S01700004345454E426F742D50726F6A6563742E73726563C9
S11300000C940B030C9428030C9428030C942803DD
S11300100C9401120C942A120C9453120C947C121A
S11300200C9428030C94E2100C940B110C943411CE
S11300300C94AF110C945D110C9486110C94D8118E
S11300400C9467100C9490100C94B9100C94280321
S11300500C9428030C9428030C9428030C94280370
S11300600C9428030C9428030C9428030C94280360
S11300700C9428030C9428030C9428030763423639
S1130080B79BD8A71A39685618AEBAAB558C1D3C25
S1130090B7CC5763BD6DEDFD753EF6177231BF00E9
S11300A00000803F08000000BE922449123EABAA23
S11300B0AA2ABECDCCCC4C3E00000080BEABAAAA7E
S11300C0AA3E00000000BF000000803F00000000C6
S11300D000084178D3BB4387D1133D190E3CC3BDFF
S11300E04282AD2B3E68EC8276BED98FE1A93E4CAC
S11300F080EFFFBE01C4FF7F3F00000000006E617F
S11301006E00696E660000407A10F35A00A0724EC9
S113011018090010A5D4E80000E87648170000E4A8
S11301200B54020000CA9A3B000000E1F5050000F0
S113013080969800000040420F000000A086010055
S11301400000102700000000E80300000000640025
S1130150000000000A000000000001000000000090
S11301602C76D888DC674F0823DFC1DFAE59E1B1B4
S1130170B796E5E3E453C63AE651997696E8E6C2C3
S11301808426EB898C9B62ED407C6FFCEFBC9C9FCA
S113019040F2BAA56FA5F490055A2AF75C936B6CEC
S11301A0F9676DC11BFCE0E40D47FEF520E6B500E0
S11301B0D0ED902E0300943577050080841E08004E
S11301C000204E0A000000C80C333333330F986EFE
S11301D012831141EF8D2114893BE65516CFFEE6BB
S11301E0DB18D1844B381BF77C1D901DA4BBE42481
S11301F0203284725E228100C9F124ECA1E53D27FE
S113020016050100000000000000FA000000E000F4
S1130210E00028FE28FE282454FE5448C4C81026B2
S1130220466C92AA44A000A0C0000000384482009A
S1130230008244380028107C102810107C10100014
S11302400A0C00001010101010000606000004082C
S11302501020407C8A92A27C0042FE020042868AE0
S113026092628482A2D28C182848FE08E4A2A2A238
S11302709C3C5292920C808E90A0C06C9292926C94
S11302806092929478006C6C0000006A6C0000101C
S113029028448200282828282800824428104080E6
S11302A08A90604C929E827C7E8888887EFE9292A0
S11302B0926C7C82828244FE82824438FE929292C4
S11302C082FE909090807C8292925EFE101010FECE
S11302D00082FE8200040282FC80FE10284482FE1A
S11302E002020202FE403040FEFE201008FE7C8224
S11302F082827CFE909090607C828A847AFE9098C0
S11303009462629292928C8080FE8080FC0202024F
S1130310FCF8040204F8FC021C02FCC6281028C6DF
S1130320E0100E10E0868A92A2C200FE8282004093
S113033020100804008282FE002040804020020237
S11303400202020080402000042A2A2A1EFE1222F1
S1130350221C1C222222041C222212FE1C2A2A2ACB
S113036018107E908040304A4A4A7CFE1020201E9D
S11303700022BE0200040222BC00FE081422000077
S113038082FE02003E2018201E3E1020201E1C2249
S113039022221C3E28282810102828183E3E10200F
S11303A02010122A2A2A0420FC2202043C020204FD
S11303B03E38040204383C020C023C221408142285
S11303C0300A0A0A3C22262A322200106C820000DB
S11303D000FE000000826C100008101008100000DD
S11303E00000007F8181817F7F8383837F7F878774
S11303F0877F7F8F8F8F7F7F9F9F9F7F7FBFBFBFB1
S11304007F7FFFFFFF7F2040FF40206215171565A7
S113041000FBFB00000000000000C0FF0300E0FF41
S11304200700F0FF0F00F8FF1F0078001E0078009F
S11304301E0078001E0078001E0078001E00780060
S11304401E0078001E0078001E0078001E000000C8
S113045000000000000080FF0300E0FF0700F0FF41
S11304600F00F8FF1F00F83C1F00783C1E00783C8A
S11304701E00783C1E00783C1E00783C1E00783C30
S11304801E00783C1E00783C1E00783C1E00783C20
S11304901E000000000000000000E0FF0300F0FF69
S11304A00700F8FF0F00F8FF1F00783C1E00783C9F
S11304B01E00783C1E00783C1E00783C1E00783CF0
S11304C01E00783C1E00783C1E00783C1E00783CE0
S11304D01E000000000000000000F8FF0300F8FF09
S11304E00F00F8FF1F00F8FF1F0000001E000000AF
S11304F01E0000801F0000F01F0000FF0F00E0FF3F
S11305000700F0FF0000F80F0000F800000078007A
S1130510000078000000F8FF1F00F8FF1F00F0FF44
S11305201F00E0FF1F000000000000000000F8FFB3
S11305301F00F8FF1F00F8FF1F00F8FF1F007800DE
S11305401E00783C1E00783C1E00783C1E00783C5F
S11305501E00783C1E00783C1E00F87E1F00F8FF49
S11305601F00F0FF0F00E0E70300000000000000A0
S11305703800EEFF6C002A8045003A0047FC03FF78
S11305806CFC83FF3900DEFF0B7CD0810BFCD08137
S11305900BC0D0810BFCD0810B7CDEFF0B0082FFF3
S11305A0397002FF6CF83A0047DC2A8045CCEEFF34
S11305B06CCC000038000000000C00001E0C000091
S11305C01E0000001E0000001E0000001E00F8FFB8
S11305D01F00F8FF1F00F8FF1F00F8FF1F000000B6
S11305E01E0000001E0000001E0000001E0000008F
S11305F05E000000400000007C000000400000009D
S1130600400000007C0000003000000010000000EA
S1130610300000007C0011241FBECFEFD8E0DEBF05
S1130620CDBF11E0A0E0B1E0E0E4FDE402C005903C
S11306300D92A638B107D9F722E0A6E8B1E001C0CF
S11306401D92AE3AB207E1F70E947E070C949E26F3
S11306500C940000CF93DF93FC013081209123029E
S1130660321303C0208121111EC0EC010E948707B0
S11306708881813059F038F0823059F0833061F448
S113068082E591E00BC081E291E008C089E391E04A
S113069005C086E491E002C08CE591E00E9410263A
S11306A0888180932302DF91CF910895DC01FB01BF
S11306B09C918081981325C011962D913C9112979D
S11306C08181928128173907E1F413962D913C9189
S11306D01497838194812817390799F415962D91DD
S11306E03C911697858196812817390751F41796FE
S11306F04D915C9118972781308581E0421753070B
S113070009F080E00895CF93DF93EC019B01809181
S1130710220281110AC041E061E089E192E00E9475
S1130720240F81E08093220211C080911F0288234C
S113073069F080E40E94AC0880E00E942C0E88835B
S113074081E00E942C0E898310921F02DF91CF91C9
S11307500895CF92DF92EF92FF92CF93DF93EC0153
S11307609B018091180281110AC041E061E08FE091
S113077092E00E94240F81E08093180242C080918D
S113078015028823F1F180E20E94AC0881E00E9406
S1130790310783E00E943C070E941407BC0180E0FB
S11307A090E00E94462020E030E040EA50E40E94BD
S11307B0162120E030E040E85AE30E9416216B0144
S11307C07C0185E00E943C070E941407BC0180E084
S11307D090E00E94462020E030E040EA50E40E948D
S11307E0162120E030E040E85AE30E941621CA8234
S11307F0DB82EC82FD826E837F83888799871092E7
S11308001502DF91CF91FF90EF90DF90CF90089584
S1130810EF92FF920F931F93CF93DF93EC019B0111
S113082080910E0281110AC041E061E085E092E00E
S11308300E94240F81E080930E0233C080910B024A
S1130840882379F10E94F00F9C01AAE0B0E00E9495
S11308505E230E94462027EE3AE34DE85CE30E94C3
S113086016217B018C010E9487071F930F93FF922F
S1130870EF928BE691E09F938F930E94FA256E2D61
S11308807F2D802F912F0E9417206A877B878C876A
S11308909D8710920B020F900F900F900F900F9066
S11308A00F90DF91CF911F910F91FF90EF900895DA
S11308B0FC0181E0808388EC90E0928381839483BF
S11308C0838380E991E09683858390878783089565
S11308D04F925F926F927F928F929F92AF92BF924C
S11308E0CF92DF92EF92FF920F931F93CF93DF93F8
S11308F0EC013B01FB01D080F1E0DF124DC0E2E0EE
S11309009E2E988260E082E00E94810D1F921F92C9
S11309101F92DF92F0E94F2E4F921F92A8EC5A2EAD
S11309205F921F9286E98F9388248394A12CB12C23
S1130930C12CB0E9EB2EFF24F39408EC10E026E977
S113094030E041E062E080E00E94260A1F921F929C
S11309501F92DF924F921F925F921F9285E88F93AE
S113096025E830E040E062E080E00E94260A9882B8
S113097088EC90E09A8389839C838B8380E991E05F
S11309809E838D8398878F838DB79EB742960FB6CB
S1130990F8949EBF0FBE8DBFF301D180F1E0DF124A
S11309A04EC042E0942E988260E082E00E94810D65
S11309B01F921F921F92DF9250E9452E4F921F9271
S11309C068EC562E5F921F9286E98F938824839455
S11309D0A12CB12CC12C70E9E72EFF24F39408EC70
S11309E010E026E930E041E062E080E00E94260A5F
S11309F01F921F921F92DF924F921F925F921F923B
S1130A0085E88F93812C25E830E041E062E080E0C6
S1130A100E94260A988288EC90E09A8389839C83BA
S1130A208B8380E991E09E838D8398878F838DB734
S1130A309EB742960FB6F8949EBF0FBE8DBFF301CA
S1130A408181813009F052C0D080F1E0DF124EC0C4
S1130A5082E0782E788260E082E00E94810D1F920D
S1130A601F921F92DF9290E9992E9F921F9228EC79
S1130A70622E6F921F9286E98F9388248394A12C0F
S1130A80B12CC12C30E9E32EFF24F39408EC10E0E0
S1130A9026E930E041E062E080E00E94260A1F92ED
S1130AA01F921F92DF929F921F926F92DF928AE0B1
S1130AB08F93812C2AE031E041E062E080E00E94E3
S1130AC0260A788288EC90E09A8389839C838B83BE
S1130AD080E991E09E838D8398878F838DB79EB73D
S1130AE042960FB6F8949EBF0FBE8DBFDF91CF9193
S1130AF01F910F91FF90EF90DF90CF90BF90AF9038
S1130B009F908F907F906F905F904F900895CF93B8
S1130B100E94321F20E030E040E05FE30E94162193
S1130B20C1E020E030E040E050E40E94D4201816F8
S1130B300CF0C0E08C2FCF910895CF92DF92EF920A
S1130B40FF920F931F93CF93DF93EC018B01FB0173
S1130B5062817381848195812681378140855185A5
S1130B600E94321F20E030E040E05FE30E94162143
S1130B7020E030E040E050E40E94D42018169CF5B8
S1130B80F801668177818085918522813381448152
S1130B9055810E94311F20E030E048E452E40E9475
S1130BA016216B017C019B01AC0160E070E088E4DC
S1130BB093E40E94311F0E9410207A83698320E00D
S1130BC030E048E453E4C701B6010E94321F0E949A
S1130BD010207C836B8380E991E09E838D839887CA
S1130BE08F8383E08883DF91CF911F910F91FF90D2
S1130BF0EF90DF90CF9008957F928F929F92AF9263
S1130C00BF92CF92DF92EF92FF920F931F93CF93F5
S1130C10DF93EC01FB0166817781808591852281D8
S1130C203381448155810E94321F20E030E040E04E
S1130C305FE30E94162120E030E040E250E40E948D
S1130C40D42018160CF052C060E082E00E94810D9E
S1130C5088EB9BE00E94F70E1F921F921F9277244D
S1130C6073947F9280E9982E9F921F9298ECD92ECC
S1130C70DF921F9286E98F9388248394A12CB12C50
S1130C80C12C20E9E22EFF24F39408EC10E026E9BD
S1130C9030E041E062E080E00E94260A1F921F9249
S1130CA01F927F929F921F92DF921F9285E88F93EB
S1130CB0812C25E830E041E062E080E00E94260AD1
S1130CC084E0888388EC90E09A8389839C838B8377
S1130CD080E991E09E838D8398878F838DB79EB73B
S1130CE042960FB6F8949EBF0FBE8DBFDF91CF9191
S1130CF01F910F91FF90EF90DF90CF90BF90AF9036
S1130D009F908F907F9008950895CF93DF93EC0187
S1130D106CEF71E00E945603811114C06F817885D5
S1130D208D819E810E94CB0B6B817C8189819A810C
S1130D300E94680B89E0FE01ACEFB1E001900D92D6
S1130D408A95E1F7DF91CF910895CF93DF93CDB7E3
S1130D50DEB72E970FB6F894DEBF0FBECDBF0E944C
S1130D60A1080E94A9070E94BF0A0E9409070E94C5
S1130D70CB0F109226021092250210922802109294
S1130D80270210922A021092290210922C02109229
S1130D902B02109224028AE791E00E94102688EB2D
S1130DA09BE00E94F70E0E9487076DE770E0CE017A
S1130DB001960E9483036DE770E0CE0101960E94C4
S1130DC0A90362E370E0CE0101960E94080484E264
S1130DD092E00E945804BE016F5F7F4F84E292E06C
S1130DE00E946804BE016F5F7F4F84E292E00E941C
S1130DF09D05BE016F5F7F4F84E292E00E94FC0577
S1130E0084E292E00E94850684E292E00E942A0332
S1130E10CCCF8FE00E94130E882311F082E0089556
S1130E200E94730781E008958FE00E94200E8823BA
S1130E3019F420E030E013C080917A00806480933C
S1130E407A0080917A0086FDFCCF30917800209161
S1130E507900922F80E0232F30E0282B392BC90111
S1130E600895ECE7F0E090818295880F880F807CEC
S1130E709F73982B90830895582F80910001883098
S1130E80D8F440917E0021E030E0B90102C0660F41
S1130E90771F8A95E2F7CB018095842380937E00A7
S1130EA080917E00052E02C0220F331F0A94E2F7C0
S1130EB0822B80937E000DC020917E0081E090E023
S1130EC0052E02C0880F991F0A94E2F7282B20935D
S1130ED07E005093000180917C005F71807E852BA1
S1130EE080937C0008958FE180937C00EAE7F0E032
S1130EF087E0808380818068808308950E946510E4
S1130F000E9457100E94A50680E090E008950F9378
S1130F101F9385E00E94200E8823C1F080E460E0E6
S1130F200E94840800E0802F60E00E942F0810E0F7
S1130F3080E061E00E9484081F5F1038C9F70F5FEA
S1130F40043089F783E060E00E9472081F910F91DA
S1130F5008950F931F9385E00E94130E882311F0C8
S1130F6082E07AC00E94CF08182F0E94920E11507E
S1130F70123008F06DC08150823008F069C00E94C0
S1130F809F088EEA60E00E94840882EA60E00E9482
S1130F90840880EA60E00E94840800E513ECC8013C
S1130FA00197F1F780EC60E00E9484088FE260E032
S1130FB00E94840881E860E00E94840886E160E081
S1130FC00E94840882E260E00E948408C8010197BC
S1130FD0F1F78FEA60E00E94840886EA60E00E94EC
S1130FE0840885EA60E00E94840880E090E028E8B4
S1130FF033E1F9013197F1F7019643E0883E940714
S1131000C1F783EB60E00E94840880E460E00E9402
S1131010840883E060E00E942F0883E060E00E947F
S1131020720810924402109246021092450285E022
S113103091E09093AB028093AA0288E10E94510848
S11310400E94870784EA60E00E94840881E004C06B
S113105085E00E94030E87E01F910F910895FF928F
S11310600F931F93082FF62E85E00E94200E8823ED
S1131070A1F01F2D1F770370802F806B60E00E940A
S1131080840812951F70812F806160E00E9484089B
S11310908F2D8F7060E00E9484081F910F91FF9044
S11310A008951F93182F85E00E94200E8823C1F015
S11310B087E00E94110982E06AE00E94620982E0EE
S11310C061EB0E946209612F113208F060E282E054
S11310D00E94620989EE8A95F1F787E00E9411095E
S11310E01F9108950F931F93082F162F85E00E94D8
S11310F0200E882331F003701F771093420200936F
S113110043021F910F9108950F931F93082F162FD9
S113111085E00E94200E882379F0112319F0113004
S113112021F402C02B9801C02B9A86E08A95F1F72E
S113113080E0602F0E9462091F910F910895239A05
S1131140089586E00E94130E882311F082E008952A
S11311500E94B80881E008951F93182F86E00E942A
S1131160200E882319F0812F0E94C1081F91089531
S1131170559A569A80E20E94631380E40E94631396
S11311800895282F85FF04C08BB190E289278BB97D
S113119026FF04C08BB190E489278BB9089582E0BF
S11311A00E94130E882311F082E008950E947109B1
S11311B080E06AEE73E10E94080981E062EE73E167
S11311C00E94080982E06AED73E10E94080986E042
S11311D062EF73E10E94080983E062ED73E10E940B
S11311E0080984E062ED73E10E94080985E062ED7C
S11311F073E10E94080987E062ED73E10E94080927
S11312008FEF8093470287E00E94110981E00895DF
S1131210E82FF0E0EE0FFF1FEB52FE4F7183608367
S113122008951F93182F82E00E94200E882309F44A
S113123047C0912F977080914702981709F440C0D6
S11312409093470285B1887F892B85B9933011F13A
S1131250943028F4913051F0923090F40CC09530D1
S113126019F19530E0F0963021F50FC0E091D701E7
S1131270F091D80122C0E091D501F091D6011DC0B2
S1131280E091D901F091DA0118C0E091E101F09107
S1131290E20113C0E091DB01F091DC010EC0E091AA
S11312A0DD01F091DE0109C0E091DF01F091E00180
S11312B004C0E091E301F091E401309709F009954D
S11312C01F9108951F93162F0E94110982E00E9416
S11312D0200E882321F01EBD0DB407FEFDCF1F9103
S11312E00895259A2698279A209A219A229A089551
S11312F02F923F924F925F926F927F928F929F9222
S1131300AF92BF92CF92DF92EF92FF920F931F930F
S1131310DF93CF930F92CDB7DEB7582E962E442E7F
S11313203901C9821501CE88DF88A88CB98C6A8DF1
S11313307B8D81E0981619F1981628F092E09916A1
S113134009F070C03EC080E0B7010E94A90B80E0A4
S1131350642DA30198010981EE24E3947FE7C72E4D
S113136072E0D72E0E94690C552009F05BC000D0B2
S11313700F92EDB7FEB71182338222821CC081E046
S11313800E94A90B81E0682DA60195010C8DEE2425
S1131390E3949FE7C92E92E0D92E0E94690C552050
S11313A009F040C000D00F92EDB7FEB791828D8D49
S11313B09E8D938382830E94A60D0F900F900F90B1
S11313C031C0C7010E94CB0B00D08FE792E0EDB78C
S11313D0FEB792838183842DB301A8012981082D4E
S11313E076016501AC8C882483940E94FC0C0F90D8
S11313F00F905520B9F400D000D00F92ADB7BEB70E
S11314001196EDB7FEB79182FD01328221828D8D56
S11314109E8D948383830E94A60D0F900F900F904E
S11314200F900F900F90CF91DF911F910F91FF902C
S1131430EF90DF90CF90BF90AF909F908F907F9070
S11314406F905F904F903F902F9008954F925F92CE
S11314507F928F929F92AF92BF92CF92DF92EF9240
S1131460FF920F931F93DF93CF93CDB7DEB7562F21
S1131470942E7C2CAA89BB89CC88DD886E897F89CF
S1131480988D813009F445C0813030F1823009F003
S113149066C0513071F0513020F0523009F05FC015
S11314A011C080E0B7010E94A90B80E0692DA8015A
S11314B006C081E00E94A90B81E0682DA6010E946C
S11314C0340B4DC0C7010E94CB0B892DB801482DA8
S11314D096010E944B0B43C0EDB7FEB739970FB688
S11314E0F894FEBF0FBEEDBF4DB65EB60894411C26
S11314F0511CB283A183F201D382C28275836483B7
S11315009683898D9A8D9087878380E0652FC72C79
S11315101CC0EDB7FEB739970FB6F894FEBF0FBEE7
S1131520EDBFADB6BEB60894A11CB11CB283A183B5
S1131530F501D382C28275836483968310861782F1
S113154081E0652FC72CAA24BB240E9478098DB79B
S11315509EB709960FB6F8949EBF0FBE8DBFCF916C
S1131560DF911F910F91FF90EF90DF90CF90BF908C
S1131570AF909F908F907F905F904F90089587E0F9
S11315800E94130E882311F082E008950E94F90D41
S113159081E080937E0210924802109249021092D8
S11315A04B0210924A0210924D0210924C02109279
S11315B04F0210924E021092510210925002109259
S11315C05302109252021092550210925402109239
S11315D05702109256021092590210925802109219
S11315E05B0210925A0210925D0210925C021092F9
S11315F05F0210925E0210926102109260021092D9
S113160066021092670210926802109269021092A8
S11316106B0210926C0210926D0210926E02109284
S11316206F02109270021092710210927302109263
S11316307202109275021092740210927702109244
S1131640760210927902109278021092630210923C
S11316506202109265021092640210927D0210924E
S11316607C0210927E020895EF92FF920F931F93D3
S1131670182F062F7A0160E00E94080C812F602F3A
S11316800E94E90B812FB7010E941D0C1F910F913D
S1131690FF90EF900895CF92DF92EF92FF920F9315
S11316A01F93C82E7B01D42E890182E060E00E9442
S11316B0080C8C2D6D2D0E94FE0BC701B8010E94F1
S11316C04A0C1F910F91FF90EF90DF90CF900895F7
S11316D02EEF8037920714F480E79EEFFC0181E03F
S11316E0E139F80714F0E0E9F1E09B018EEF60378F
S11316F0780714F420E73EEFA90121E041395207AD
S113170014F040E951E08F2F881F8827881F252F68
S1131710221F2227221F91E090937E0280936B0266
S113172020936C02CF01F7FF03C0909581959F4FE2
S11317309A0157FF03C0309521953F4F90934B0278
S113174080934A0230934D0220934C0210927E0201
S11317500895482F81E080937E02CB0123E0693E07
S1131760720710F088EE93E0413071F0413018F0C8
S1131770423071F405C0909353028093520208C022
S11317809093530280935202909355028093540293
S113179010927E02089521E020937E02AC0183E042
S11317A0493E580710F048EE53E09B0183E0693E40
S11317B0780710F028EE33E0F894509353024093E6
S11317C052023093550220935402789410927E0270
S11317D00895982F81E080937E02913051F09130EA
S11317E018F0923041F403C060936B0204C060931C
S11317F06B0260936C0210927E02089591E09093C4
S11318007E02EBE6F2E08193608310927E020895FB
S1131810982F81E080937E02913051F0913018F03E
S1131820923041F403C06093480204C060934802BC
S11318306093490210927E020895482F81E08093BC
S11318407E02CB0121E06139720710F080E991E05A
S1131850413061F0413018F04230C9F40EC0F894C0
S113186090934B0280934A02789411C0F894909319
S11318704D0280934C0278940AC0F89490934B02E2
S113188080934A0290934D0280934C027894109274
S11318907E020895AC0181E080937E02F894CB012E
S11318A021E06139720710F080E991E090934D02D4
S11318B080934C029A0181E04139580710F020E9E5
S11318C031E030934B0220934A02789410927E02C6
S11318D008958F929F92AF92BF92CF92DF92EF9230
S11318E0FF920F931F93CF93DF93182FF62E4A0185
S11318F05901E60187E00E94200E882309F46FC095
S1131900812F61E00E94080C812FB401A5010E947F
S1131910CC15812F6F2D0E94E90B812F602F0E941F
S1131920B715812FB4010E948F15C114D10499F009
S1131930113049F0113018F0123069F406C01882E1
S113194010927A0208C0198204C018821982109277
S11319507A0210927B02D0937D02C0937C02EE2027
S1131960B9F586E891E090937D0280937C02812F03
S1131970B5010E941D0C812F0E947A15113071F05F
S1131980113018F0123059F512C0109286011092DD
S11319907A02809186018823E1F321C010928701A5
S11319A010927B02809187018823E1F318C0109282
S11319B086011092870110927A0210927B02809124
S11319C086018823E1F3809187018823C1F307C04E
S11319D0812FB5010E941D0C812F0E947A15DF9181
S11319E0CF911F910F91FF90EF90DF90CF90BF9018
S11319F0AF909F908F9008953F924F925F926F9215
S1131A007F928F929F92AF92BF92CF92DF92EF928A
S1131A10FF920F931F93DF93CF93CDB7DEB7982E2A
S1131A202B013A01322EB02E0C891D8987E00E94C9
S1131A30200E882309F453C082E061E00E94080C60
S1131A4080E0B201A3010E94CC1581E0B701A60198
S1131A500E94CC15892D6B2D0E94FE0B80E0632D16
S1131A600E94B71581E06A2D0E94B715C201B70123
S1131A700E94AA150115110539F0F801108211828E
S1131A8010927A0210927B0210937D0200937C02E2
S1131A908820F1F488E891E090937D0280937C02A1
S1131AA0C301B6010E944A0C82E00E947A1510928A
S1131AB088011092890110927A0210927B0280911F
S1131AC088018823E1F3809189018823C1F307C049
S1131AD0C301B6010E944A0C82E00E947A15CF919C
S1131AE0DF911F910F91FF90EF90DF90CF90BF9007
S1131AF0AF909F908F907F906F905F904F903F90AA
S1131B0008950F931F93182F062F662349F460E05E
S1131B1070E00E941D0C812F60E070E00E948F1520
S1131B2081E080937E02113051F0113018F01230B0
S1131B3041F403C00093660204C00093660200935C
S1131B40670210927E021F910F910895CF92DF9247
S1131B50EF92FF920F931F93DF93CF93CDB7DEB72E
S1131B601B8587E00E94200E8823D1F1113061F09B
S1131B70113018F01230A1F511C0EC85FD8580916B
S1131B807F028823E1F306C0EC85FD858091800205
S1131B908823E1F3309721F1099522C0CC84DD84B8
S1131BA0EE84FF8400E010E0002351F480917F0272
S1131BB0882331F0C114D10411F0F601099501E034
S1131BC0112351F480918002882331F0E114F1044F
S1131BD011F0F701099511E0002331F3112321F3EA
S1131BE0CF91DF911F910F91FF90EF90DF90CF90F5
S1131BF008953A9A3B9A3C9A3D9A3E9A3F9A88B104
S1131C00837088B90895853160F4E82FF0E0E35DCE
S1131C10FD4F8081882329F08081815080838081D9
S1131C2008958FEF0895853110F080E00895E82F2E
S1131C30F0E0E35DFD4F80818F5F808381500895E4
S1131C40853110F080E00895E82FF0E0E35DFD4F6A
S1131C508081811181E008951F93182F80918B0159
S1131C60882341F080919201882399F010928B018E
S1131C70109292010E94610E80938A018CE891E097
S1131C8061E040E028E230E00E94240F81E080938C
S1131C908B0190918A01133018F0133079F409C044
S1131CA0E12FF0E0EF5FFE4F8081892341F081E076
S1131CB006C091FF03C0892F817001C080E01F918D
S1131CC008950F931F9381E00E94200E882311F43E
S1131CD000E024C087E00E94110982E06AE00E94CB
S1131CE0620982E062EB0E94620918EC812F8A95F6
S1131CF0F1F782E060E00E94FB13082F812F8A95A0
S1131D00F1F782E060E00E94FB131A95F1F787E097
S1131D100E94110988E893E10197F1F7802F1F9140
S1131D200F910895DF93CF9300D00F92CDB7DEB714
S1131D3081E00E94130E882311F082E011C00E94FA
S1131D40CF088150823040F40E94B60ECE01019635
S1131D500E94841681E004C081E00E94030E87E0A3
S1131D600F900F900F90CF91DF91089510929802E9
S1131D701092970210929A021092990210929C0269
S1131D8010929B0210929E0210929D021092A00249
S1131D9010929F0280E991E09093840280938302E1
S1131DA090938602809385029093880280938702A1
S1131DB090938A028093890290938C0280938B0281
S1131DC084E398E090938E0280938D029093900226
S1131DD080938F0290939202809391029093940245
S1131DE080939302909396028093950208950F93A3
S1131DF01F93DF93CF93CDB7DEB729970FB6F8942F
S1131E00DEBF0FBECDBF8C0188E00E94200E882368
S1131E1011F491E00DC0CE01019661E040E098011B
S1131E200E94240F982F882319F48F818823E9F3C3
S1131E30892F29960FB6F894DEBF0FBECDBFCF9180
S1131E40DF911F910F910895EF92FF920F931F93CB
S1131E50CF93DF93EC01F62EE42E890188E00E94F3
S1131E60200E882311F481E026C084E090E00E94D3
S1131E70AF23FC01009711F482E01DC0F982F0FC4D
S1131E801E8281E0E81619F489818460898389813E
S1131E90886089831B830A831D830C83D183C08359
S1131EA01382128281E08093F501CF010E94620FB8
S1131EB01092F50180E0DF91CF911F910F91FF9077
S1131EC0EF900895CF92DF92EF92FF920F931F93BA
S1131ED0CF93DF93EC018091A102882339F4D0934E
S1131EE0A302C093A2020E94FE1647C0C090A202A1
S1131EF0D090A30200E010E0EE24FF2437C0A881B4
S1131F00B981FD0164817581F60140815181FA0135
S1131F10848195819B01281B390B37FF0FC0861BD9
S1131F20970B95838483DB82CA82012B29F4D09397
S1131F30A302C093A20221C0F7010CC0F601828162
S1131F4093812115310549F4FD01158214829B8387
S1131F508A83F601D383C28310C0FD0135832483B1
S1131F600097B9F30F5F1F4F76016C018091A102B6
S1131F7090E00817190718F2ECCF8091A1028F5F47
S1131F808093A102DF91CF911F910F91FF90EF9069
S1131F90DF90CF9008958CE00E94130E882311F0F7
S1131FA082E008958BE00E94200E8823A1F40E9411
S1131FB00F16813081F480E00E94C11688EE93E010
S1131FC024EF31E0F9013197F1F70197D9F70E9435
S1131FD0541081E008958CE00E94030E87E0089578
S1131FE0EF92FF920F931F938CE00E94200E8823A0
S1131FF009F452C00E942D16139A81E28A95F1F7D2
S113200013980B98EE24FF2487010CC0039B0AC08D
S113201082E48A95F1F780B186958695869580FF4E
S113202026C00FC00894E11CF11C011D111D80E2A3
S1132030E81681EAF80687E0080780E0180731F718
S113204022C00E943716EE24FF24870102C0039B9E
S11320500EC00894E11CF11C011D111D90E2E9164B
S113206091EAF90697E0090790E0190781F70E94C1
S11320703F1680E090E2E91691EAF90697E0090735
S113208090E0190708F081E00B9A1398813021F051
S11320900E9409169C0102C020E030E0C9011F9192
S11320A00F91FF90EF9008950B9A139808950E9452
S11320B06D160E9474130E94A5120E94E2160E94DB
S11320C0CF080E94920E78940895000008951F92FC
S11320D00F920FB60F9211242F933F934F935F9358
S11320E06F937F938F939F93AF93BF93EF93FF93DC
S11320F0E091B501F091B601309709F00995FF918F
S1132100EF91BF91AF919F918F917F916F915F916B
S11321104F913F912F910F900FBE0F901F901895E4
S11321201F920F920FB60F9211242F933F934F9348
S11321305F936F937F938F939F93AF93BF93EF932B
S1132140FF93E091B701F091B801309709F0099538
S1132150FF91EF91BF91AF919F918F917F916F917B
S11321605F914F913F912F910F900FBE0F901F9051
S113217018951F920F920FB60F9211242F933F932D
S11321804F935F936F937F938F939F93AF93BF937B
S1132190EF93FF93E091B901F091BA01309709F000
S11321A00995FF91EF91BF91AF919F918F917F918D
S11321B06F915F914F913F912F910F900FBE0F90B0
S11321C01F9018951F920F920FB60F9211242F9300
S11321D03F934F935F936F937F938F939F93AF93AB
S11321E0BF93EF93FF93E091A701F091A80130977B
S11321F009F00995FF91EF91BF91AF919F918F9154
S11322007F916F915F914F913F912F910F900FBEEE
S11322100F901F9018951F920F920FB60F921124D2
S11322202F933F934F935F936F937F938F939F93DA
S1132230AF93BF93EF93FF93E091A901F091AA01AB
S1132240309709F00995FF91EF91BF91AF919F915C
S11322508F917F916F915F914F913F912F910F904B
S11322600FBE0F901F9018951F920F920FB60F92EA
S113227011242F933F934F935F936F937F938F9387
S11322809F93AF93BF93EF93FF93E091AB01F091D2
S1132290AC01309709F00995FF91EF91BF91AF918F
S11322A09F918F917F916F915F914F913F912F916A
S11322B00F900FBE0F901F9018951F920F920FB69C
S11322C00F9211242F933F934F935F936F937F93B8
S11322D08F939F93AF93BF93EF93FF93E091AF01DD
S11322E0F091B001309709F00995FF91EF91BF91FA
S11322F0AF919F918F917F916F915F914F913F919A
S11323002F910F900FBE0F901F9018951F920F9250
S11323100FB60F9211242F933F934F935F936F93B4
S11323207F938F939F93AF93BF93EF93FF93E0912A
S1132330B101F091B201309709F00995FF91EF9145
S1132340BF91AF919F918F917F916F915F914F91C9
S11323503F912F910F900FBE0F901F9018951F92D1
S11323600F920FB60F9211242F933F934F935F93C5
S11323706F937F938F939F93AF93BF93EF93FF9349
S1132380E091AD01F091AE01309709F00995FF910C
S1132390EF91BF91AF919F918F917F916F915F91D9
S11323A04F913F912F910F900FBE0F901F90189552
S11323B01F920F920FB60F9211242F933F934F93B6
S11323C05F936F937F938F939F93AF93BF93EF9399
S11323D0FF93E091B301F091B401309709F00995AE
S11323E0FF91EF91BF91AF919F918F917F916F91E9
S11323F05F914F913F912F910F900FBE0F901F90BF
S113240018951F920F920FB60F9211242F933F939A
S11324104F935F936F937F938F939F93AF93BF93E8
S1132420EF93FF93E0919D01F0919E01309709F0A5
S11324300995FF91EF91BF91AF919F918F917F91FA
S11324406F915F914F913F912F910F900FBE0F901D
S11324501F9018951F920F920FB60F9211242F936D
S11324603F934F935F936F937F938F939F93AF9318
S1132470BF93EF93FF93E0919F01F091A0013097F8
S113248009F00995FF91EF91BF91AF919F918F91C1
S11324907F916F915F914F913F912F910F900FBE5C
S11324A00F901F9018951F920F920FB60F92112440
S11324B02F933F934F935F936F937F938F939F9348
S11324C0AF93BF93EF93FF93E091A101F091A20129
S11324D0309709F00995FF91EF91BF91AF919F91CA
S11324E08F917F916F915F914F913F912F910F90B9
S11324F00FBE0F901F9018951F920F920FB60F9258
S113250011242F933F934F935F936F937F938F93F4
S11325109F93AF93BF93EF93FF93E091A301F09147
S1132520A401309709F00995FF91EF91BF91AF9104
S11325309F918F917F916F915F914F913F912F91D7
S11325400F900FBE0F901F90189580E10E94130EFC
S1132550882311F082E00895E5E9F1E011921192E7
S113256081E0E53DF807D1F781E00895FF920F93EC
S11325701F93CF93DF93F82E8AE0F816B1F08F15EE
S113258048F0E8E0FE16B9F1EF1538F1F7E0FF1670
S113259051F43BC08DE0F81659F0EBE1FE1689F0DA
S11325A0FCE0FF1641F001E041C01092420203C07A
S11325B0109242023AC080914302815080934302B8
S11325C034C00E94870714C080E061E00E94840840
S11325D0809142028F5F809342028091420287FF82
S11325E0F3CF1092420280914302815080934302C0
S11325F000E011E01CC0809142028823B1F0809178
S1132600420286508093420210C081E00E94CC14A2
S113261064EF71E080E090E04DE750E024E630E0C4
S11326200E94D81481E00E94331400E010E08091ED
S11326304302609142020E942F08002351F185E079
S1132640F89EC0011124EC01CD59DE4F8C010859CC
S11326501E4FFE01849161E00E9484082196C017F8
S1132660D107B9F780E061E00E94840880914202BA
S11326708A5F809342028091420290E08C379105F8
S11326803CF01092420280914302815080934302B5
S113269011E080914302837080934302113059F416
S11326A080914402813039F4E0914502F091460270
S11326B0309709F0099580E090E0DF91CF911F9168
S11326C00F91FF9008951F93182F86E00E94200E0B
S11326D0882319F0812F0E946F131F91089585FD9F
S11326E05D9886FD5E980895F8940E94CF1381E06A
S11326F00E947C1381E00895813049F0F894813080
S113270020F18230B1F0833009F045C017C02C9A13
S113271080E8809361001092610080E090E0000006
S1132720019688329105D9F71092680010926B00D7
S1132730089580E88093610083E004C080E880937A
S1132740610088E08093610028C080E090E0000090
S113275001962DE680369207D1F72C9880E090E020
S1132760000001962DE680369207D1F710927A0088
S11327708FEF80936400809168008160809368008B
S113278080916B00846080936B00789483B7816040
S113279083BF88950895823008F078940895249A28
S11327A02C9A089583E58CBD81E08DBD8DE08A95DA
S11327B0F1F7089583E58CBD1DBC84EF91E001978A
S11327C0F1F708958FE78CBD1DBC84EF91E001976C
S11327D0F1F7089583E58CBD81E08DBD8DE08A9588
S11327E0F1F7089583E58CBD81E08DBD84EF91E020
S11327F00197F1F708951F93162F0E94110982E0A3
S11328000E94200E882329F01EBD0DB407FEFDCFC3
S11328108EB51F9108958AE00E94030E882329F43F
S113282081E00E942E151092E601089589E00E942D
S1132830030E8823B9F48091E501882311F00E94E6
S1132840741582E00E942E158091F3019091F40199
S1132850009731F00E9447241092F4011092F30182
S11328601092E5010895813029F0823029F40E9404
S1132870161408950E940B1408950F931F93CF9379
S1132880DF9380E291E00E94AF239C019093F401D6
S11328908093F301892B11F480E039C08901C0E0F1
S11328A0D0E0BE0180E090E00E94462020E030E0CD
S11328B040EA51E40E949E1F27EF35E740E05FE3C2
S11328C00E9416219B01AC0160E070E080E291E47B
S11328D00E9483219B01AC01CA01B9012DEC3CEC9F
S11328E042E851E40E9416210E94D9202AE030E0F7
S11328F040E050E00E942C23F8016193719381938E
S113290091938F012196C834D10559F681E0DF9166
S1132910CF911F910F9108958AE00E94130E88238E
S113292011F082E008951092F0011092EF0181E01D
S11329300E944A1581E08093E60108951F9389E07F
S11329400E94130E882311F082E024C08BE00E94C1
S1132950200E8823D9F40E943D14182F813011F0E1
S113296086E018C01092E7011092E8011092E90184
S11329701092EA018DE066E377E10E94111782E08C
S11329800E944A151093E50181E004C089E00E9489
S1132990030E87E01F910895813021F0823029F0E1
S11329A084E008950E948C1408950E949E14089552
S11329B06F927F928F929F92AF92BF92CF92DF924B
S11329C0EF92FF920F931F93CF93DF933B014C0140
S11329D05A01E9018AE00E94200E882381F12097A0
S11329E041F19501442737FD4095542FBE01C5366A
S11329F0D10510F064E670E080E090E00E942C23A2
S1132A0024E630E040E050E00E943C2379018A0152
S1132A10C401B3010E943917C7010E94F70E60E098
S1132A2070E080E090E00E943917C5018E199F097B
S1132A3004C0A114B10419F0C5010E94F70EDF917E
S1132A40CF911F910F91FF90EF90DF90CF90BF90A7
S1132A50AF909F908F907F906F900895823029F46B
S1132A60809181008E7F809381008091E501813087
S1132A7031F48091E601813011F4000008958091D1
S1132A80E501813021F08091E601813011F45F98F5
S1132A9057980895982F8091E501882331F4809107
S1132AA0E601882311F4579A5F988091E501882301
S1132AB0D1F49230C1F41092800010928100809180
S1132AC0810088608093810080918100816080937F
S1132AD08100109285001092840081E08093890027
S1132AE080E9809388000895EFE6F0E080818D7F8F
S1132AF080830895982F81E080937E02913051F075
S1132B00913018F0923041F403C01092660204C070
S1132B10109266021092670210927E020895982F16
S1132B2081E080937E02913071F0913018F0923000
S1132B3071F405C070935B0260935A0208C07093ED
S1132B405B0260935A0270935D0260935C02109280
S1132B507E02089521E020937E02EAE5F2E091836B
S1132B60808332967183608310927E020895982F39
S1132B7081E080937E02913051F0913018F09230D0
S1132B8041F403C06093680204C0609368026093D8
S1132B90690210927E0208950F931F93CF93DF93DF
S1132BA0EB018A01813001F1813018F0823061F546
S1132BB00DC08091520290915302892B11F080E054
S1132BC01AC010925F0210925E021EC080915202DF
S1132BD090915302892B21F080E00E949E1704C03B
S1132BE010925F0210925E028091540290915502FD
S1132BF0892B31F081E0BE01A8010E949E1704C018
S1132C001092610210926002DF91CF911F910F9197
S1132C1008952091810230918202C90108958BE0C8
S1132C200E94130E882311F082E0089589E00E9427
S1132C30200E882369F410928202109281028DE0A2
S1132C406BE078E10E9411170E944C1681E0089510
S1132C508BE00E94030E82E008952091810230915E
S1132C6082021092820210928102C90108958BE0BF
S1132C700E94200E882311F00E94611608958BE0B3
S1132C800E94200E882311F00E9467162091810271
S1132C9030918202C901089510928000E1E8F0E0C9
S1132CA0108280818860808380818160808310921B
S1132CB08500109284001092890088EC809388002B
S1132CC00895EFE6F0E08081826080830895EFE666
S1132CD0F0E080818D7F80830895CF93DF93C0E0FF
S1132CE0D0E08C2F60E00E947C162196C531D1057E
S1132CF0C1F7DF91CF910895853128F4E82FF0E0F2
S1132D00E35DFD4F608308951F93CF93DF93EC0140
S1132D10009799F181E00E94200E882351F187E009
S1132D200E94110918EC812F8A95F1F782E06AE07C
S1132D300E94620982E064EB0E946209812F8A95F5
S1132D40F1F782E060E00E94FB138883812F8A956B
S1132D50F1F782E060E00E94FB1389831A95F1F792
S1132D6082E060E00E94FB138A8387E00E941109DD
S1132D7004C0188219828DE28A83DF91CF911F915A
S1132D8008951F93182F81E00E94200E8823C1F01C
S1132D9087E00E94110988EC8A95F1F782E06AE0E5
S1132DA00E94620982E065EB0E94620982E0612F61
S1132DB00E94620989EE8A95F1F787E00E94110961
S1132DC01F91089588E00E94130E882311F082E079
S1132DD008951092A1021092A3021092A2021092DE
S1132DE0F5011092F60180E16EE078E10E9425176A
S1132DF00E9402170E940B1781E0089581E08093DE
S1132E00F601089584B5826084BD85B5846085BD6E
S1132E108EE487BD0895EEE6F0E0808182608083D1
S1132E200895E82F803268F48051833050F0F0E048
S1132E30EE0FFF1FEB56FE4F2081318171836083BB
S1132E4002C020E030E0C9010895803218F020E08B
S1132E5030E00AC0E82FF0E0EE0FFF1FEB56FE4F04
S1132E602081318171836083C90108950E945D17B7
S1132E700895EF92FF920F931F937B018C018AE0D8
S1132E800E94200E8823A1F08091E601882381F01E
S1132E90D801C701880F991FAA1FBB1F9093F20185
S1132EA08093F101E114F1040105110509F45F981F
S1132EB01F910F91FF90EF9008958091E7019091F9
S1132EC0E801A091E901B091EA012091EB01309170
S1132ED0EC014091ED015091EE01280F391F4A1F7A
S1132EE05B1F2093E7013093E8014093E90150937D
S1132EF0EA018091E7019091E801A091E901B09184
S1132F00EA018851964FA040B040BCF08BB1805884
S1132F108BB98091E7019091E801A091E901B0910A
S1132F20EA018851964FA040B0408093E701909306
S1132F30E801A093E901B093EA010895EF92FF92AA
S1132F400F931F93CF93DF93EB01882321F08130FC
S1132F5009F05AC02DC09A0140E050E0CA01B901FD
S1132F600E942C232091520230915302220F331FCE
S1132F7040E050E00E943C2379018A01A8019701B6
S1132F80220F331F441F551FCE01A0E0B0E082176B
S1132F909307A407B50728F0F0925F02E0925E025F
S1132FA033C0D695C795D0935F02C0935E022CC000
S1132FB09A0140E050E0CA01B9010E942C232091FB
S1132FC0540230915502220F331F40E050E00E941A
S1132FD03C2379018A01A8019701220F331F441F62
S1132FE0551FCE01A0E0B0E082179307A407B507F0
S1132FF028F0F0926102E092600206C0D695C7956F
S1133000D0936102C0936002DF91CF911F910F9121
S1133010FF90EF9008950E942E1808950E941518AD
S11330200E9461180E943A18089588E00E94200EB8
S1133030882311F484E008958091F601882311F423
S113304083E008958091F501882311F082E00895CA
S11330500E94AE1A8130E1F380E00895CF93DF93AC
S1133060C1E8D2E088819981019688839983DF91B0
S1133070CF9108958091E601813011F58091EF019F
S11330809091F0012091F1013091F201280F391F44
S11330903093F0012093EF018091EF019091F001C2
S11330A0885E93406CF08BB180588BB98091EF01AE
S11330B09091F001885E93409093F0018093EF012A
S11330C0089587E00E94200E882309F4AAC0809105
S11330D0520290915302892B09F1809176029091CA
S11330E077022091520230915302820F931F9093E2
S11330F07702809376028091760290917702885EBF
S11331009340A4F08091760290917702885E934078
S1133110909377028093760241E009C080914A023D
S113312090914B0290934F0280934E0240E0809125
S1133130540290915502892B09F180917802909163
S113314079022091540230915502820F931F90937B
S11331507902809378028091780290917902885E56
S11331609340A4F08091780290917902885E934014
S1133170909379028093780261E009C080914C02B7
S113318090914D02909351028093500260E0842FFD
S11331900E941219809172029091730220914E0242
S11331A030914F02280F391F30937302209372021B
S11331B08091720290917302885E934014F440E00F
S11331C00BC08091720290917302885E9340909339
S11331D073028093720241E08091740290917502AF
S11331E02091500230915102280F391F30937502FB
S11331F0209374028091740290917502885E9340CA
S113320014F460E00BC08091740290917502885EA2
S11332109340909375028093740261E0842F0E941E
S1133220571908958823F1F020914A0230914B02F6
S113323080914E0290914F02281B390B12161306EF
S113324034F480914E0290914F02019607C0232BD3
S113325049F080914E0290914F02019790934F0252
S113326080934E02662311F120914C0230914D025D
S11332708091500290915102281B390B12161306AB
S113328054F480915002909151020196909351020E
S1133290809350020895232B49F08091500290911D
S11332A051020197909351028093500208950F9315
S11332B01F93182F062F80917E02882309F0E7C000
S11332C080916602882309F05AC080914E02909141
S11332D04F02892BE9F48091F701837E8093F701F3
S11332E010926F0280917A02882309F45DC0609184
S11332F0680280E00E94810DE0917C02F0917D02E1
S1133300309709F451C081E0808310927A024CC056
S113331080914802813041F480915A0290915B027D
S1133320019711F411E002C01123F1F1E0916D0253
S1133330F0E0ED5EFE4F9091F701937E8081892B42
S11333408093F70180916B02882321F480916D02B0
S11333508F5F03C080916D02815080936D028091D4
S11333606D02837080936D0281E080936F0280917F
S113337048028130C9F480E00E945A1A15C0909125
S1133380F701937E9093F701E0916D02F0E0ED5E1A
S1133390FE4F8081892B8093F70182E080936F0236
S11333A010924F0210924E0280916702882309F016
S11333B059C08091500290915102892BE9F4809177
S11333C0F7018F718093F7011092700280917B0254
S11333D0882309F45CC06091690281E00E94810D38
S11333E0E0917C02F0917D02309709F450C081E0B5
S11333F0818310927B024BC080914902813041F459
S113340080915C0290915D02019711F401E002C089
S11334100023E9F1E0916E02F0E0E95EFE4F909145
S1133420F7019F718081892B8093F70180916C0251
S1133430882321F480916E028F5F03C080916E0215
S1133440815080936E0280916E02837080936E022D
S113345081E080937002809149028130C1F40E941E
S11334605A1A15C09091F7019F719093F701E0915A
S11334706E02F0E0E95EFE4F8081892B8093F701B4
S113348082E0809370021092510210925002809157
S11334907102882331F487EF91E0612F402F0E945D
S11334A01C1B88B183709091F701892B88B91F91F7
S11334B00F910895882321F0813009F04EC027C070
S11334C080915A0290915B02892B49F080915A02B3
S11334D090915B02019790935B0280935A028091D2
S11334E07A028823D1F520915A0230915B028091AF
S11334F05E0290915F022817390779F580E060E059
S113350070E00E941D0C81E080937A0208958091FE
S11335105C0290915D02892B49F080915C0290914C
S11335205D02019790935D0280935C0280917B021F
S1133530882399F420915C0230915D0280916002AD
S1133540909161022817390741F481E060E070E04E
S11335500E941D0C81E080937B020895FF920F93DB
S11335601F93CF93DF938091A102882309F459C05C
S11335700091A2021091A302F801C081D1818C8133
S11335809D8101979D838C83181619060CF449C0FC
S1133590898180FF05C08E81882311F481E08E83A8
S11335A0898181FF03C0EF81F88509958091A1028B
S11335B08230A8F0F801828193819093A3028093D2
S11335C0A20213821282E0910000F0910100848132
S11335D09581181619063CF0FF24F39405C0109247
S11335E0A3021092A202FF248091A1028150809331
S11335F0A1028091A102882311F40E94191B8981E0
S113360082FF08C08A819B819D838C83C8010E94AC
S1133610620F08C0C8010E94472489818F7E898374
S113362001C0FF248F2DDF91CF911F910F91FF9047
S113363008951092F6010895FC0180916F02823082
S113364069F48091FB0191E089278093FB01882331
S113365009F03EC08081837E80833AC080914E020F
S113366090914F02C397A4F56623D1F020914E02A6
S113367030914F0280E690E0BC01269FC001279F55
S1133680900D369F900D1124880F892F881F990B58
S1133690909363028093620281E08093F90118C0E1
S11336A08091F9018823A1F08091620290916302D4
S11336B001979093630280936202809162029091D9
S11336C06302892B29F48081837E80831092F9011F
S11336D080917002823069F48091FA0191E0892727
S11336E08093FA01882309F03EC080818F71808322
S11336F008958091500290915102C397A4F54423F8
S1133700D1F0209150023091510280E690E0AC015A
S1133710249FC001259F900D349F900D1124880F84
S1133720892F881F990B909365028093640281E02E
S11337308093F80108958091F8018823A1F0809185
S113374064029091650201979093650280936402EC
S11337508091640290916502892B29F480818F7194
S113376080831092F8010895A0E1B0E0EAEBFBE158
S11337700C9478237C011B016A01FC0117821682D8
S1133780838181FF44C39E012F5F3F4F3901F701BD
S11337909381F10193FD859193FF81911F0188230A
S11337A009F431C3853239F493FD859193FF8191F6
S11337B01F01853239F4B70190E00E94BE255601FD
S11337C06501E5CF10E0512C912CFFE1F915D8F0FB
S11337D08B3279F038F4803279F08332A1F4F92D08
S11337E0F0612EC08D3261F0803369F4292D21609F
S11337F02DC0392D3260932E892D8460982E2AC0D5
S1133800E92DE86015C097FC2DC020ED280F2A3063
S113381088F496FE06C03AE0139F200D1124122F5F
S113382019C08AE0589E200D1124522EE92DE06221
S11338309E2E10C08E3231F496FCE5C2F92DF06450
S11338409F2E08C08C3621F4292D2068922E02C0A8
S1133850883641F4F10193FD859193FF81911F0115
S11338608111B3CF9BEB980F933020F4992D906185
S1133870805E07C09BE9980F933008F066C1992DCC
S11338809F7E96FF16E09F73992E853619F49064F7
S1133890992E08C0863621F4392F3068932E02C041
S11338A01111115097FE07C01C3350F44424439463
S11338B0410E27E00BC0183038F027E017E005C0B0
S11338C027E09CE3492E02C0212F412C560184E0BD
S11338D0A80EB11CF6016081718182819381042D4F
S11338E0A3010E94D0246C01F981FC87F0FF02C07F
S11338F0F3FF06C091FC06C092FE06C000E205C0BC
S11339000DE203C00BE201C000E08C858C7019F05D
S113391001115AC29BC297FE10C04C0CFC85F4FFE7
S113392004C08A81813309F44A94141474F528E09C
S1133930241578F588E0482E2CC096FC2AC0812FE7
S113394090E08C159D059CF03CEFC3163FEFD30629
S113395074F0892D8068982E0AC0E2E0F0E0EC0F44
S1133960FD1FE10FF11D8081803319F411501111F5
S1133970F4CF97FE0EC044244394410E812F90E06F
S1133980C816D9062CF41C1904C04424439401C05D
S113399010E097FE06C01C141D0434F4C601019601
S11339A005C085E090E002C081E090E0011101963D
S11339B0112331F0212F30E02F5F3F4F820F931FEF
S11339C0252D30E08217930714F4581A01C0512CA6
S11339D0892D897049F4552039F0B70180E290E0CF
S11339E00E94BE255A94F7CF002329F0B701802FF7
S11339F090E00E94BE2593FC09C0552039F0B70120
S1133A0080E390E00E94BE255A94F7CF97FE4CC005
S1133A104601D7FE02C0812C912CC6018819990950
S1133A20F301E80FF91FFE87ED8796012419310988
S1133A30388B2F87012F10E01195019511093FEF65
S1133A408316930629F4B7018EE290E00E94BE2506
S1133A50C814D9044CF08F8598898815990524F4E5
S1133A60ED85FE85818101C080E3F1E08F1A910824
S1133A702D853E852F5F3F4F3E872D87801691060B
S1133A802CF0B70190E00E94BE25D9CFC814D90408
S1133A9041F49A81963320F4953319F43C8534FF2C
S1133AA081E3B70190E04EC08A81813319F09C858F
S1133AB09F7E9C87B70190E00E94BE25111105C02E
S1133AC094FC18C085E690E017C0B7018EE290E040
S1133AD00E94BE251E5F82E001E0080FF301E80F9B
S1133AE0F11D8081B70190E00E94BE25802F011353
S1133AF0F3CFE6CF85E490E0B7010E94BE25D7FC62
S1133B0006C0C114D10441F4EC85E4FF05C0D1948E
S1133B10C194D1088DE201C08BE2B70190E00E940C
S1133B20BE2580E32AE0C216D1042CF08F5FFAE0B0
S1133B30CF1AD108F7CFB70190E00E94BE25B70194
S1133B40C601C0960E94BE2554C1833631F0833726
S1133B5079F0833509F056C020C0560132E0A30E37
S1133B60B11CF6018081898301E010E0630112C079
S1133B705601F2E0AF0EB11CF601C080D18096FE72
S1133B8003C0612F70E002C06FEF7FEFC6010E9497
S1133B90B3258C01F92DFF7714C0560122E0A20E43
S1133BA0B11CF601C080D18096FE03C0612F70E085
S1133BB002C06FEF7FEFC6010E94A8258C01F92D8A
S1133BC0F0689F2EF3FD1AC0852D90E008171907A1
S1133BD0A8F4B70180E290E00E94BE255A94F4CF85
S1133BE0F60197FC859197FE81916F01B70190E0F2
S1133BF00E94BE2551105A94015011090115110556
S1133C0079F7F7C0843611F0893661F5560197FECD
S1133C1009C024E0A20EB11CF60160817181828189
S1133C2093810AC0F2E0AF0EB11CF601608171818C
S1133C30072E000C880B990BF92DFF769F2E97FF0A
S1133C4009C090958095709561957F4F8F4F9F4FD8
S1133C50F0689F2E2AE030E0A3010E944026C82E7F
S1133C60C6183FC0092D853721F40F7E2AE030E0C5
S1133C701DC0097F8F3691F018F4883559F0C3C000
S1133C80803719F0883711F0BEC0006104FF09C005
S1133C90046007C094FE08C0066006C028E030E057
S1133CA005C020E130E002C020E132E0560107FF08
S1133CB009C084E0A80EB11CF60160817181828183
S1133CC0938108C0F2E0AF0EB11CF60160817181EE
S1133CD080E090E0A3010E944026C82EC6180F770A
S1133CE0902E96FE0BC0092D0E7FC11650F494FE43
S1133CF00AC092FC08C0092D0E7E05C0DC2C092DDB
S1133D0003C0DC2C01C0D12E04FF0DC0FE01EC0D5C
S1133D10F11D8081803311F4097E09C002FF06C0C1
S1133D20D394D39404C0802F867809F0D39403FDF0
S1133D3011C000FF06C01C2DD51480F4150D1D19EB
S1133D400DC0D51458F4B70180E290E00E94BE255E
S1133D50D394F7CFD51410F45D1801C0512C04FF8F
S1133D6010C0B70180E390E00E94BE2502FF17C097
S1133D7001FD03C088E790E002C088E590E0B70148
S1133D800CC0802F867859F001FF02C08BE201C07D
S1133D9080E207FD8DE2B70190E00E94BE25C116C6
S1133DA038F4B70180E390E00E94BE251150F7CFAC
S1133DB0CA94F301EC0DF11D8081B70190E00E94DB
S1133DC0BE25C110F5CF15C0F4E0F51560F584E00B
S1133DD0581A93FE1FC0011127C02C8523FF2AC047
S1133DE00EEF10E0392D3071932EF801849181117A
S1133DF024C0552009F4E4CCB70180E290E00E948D
S1133E00BE255A94F6CFF7018681978126C08FEF9D
S1133E109FEF23C0B70180E290E00E94BE255A9430
S1133E205110F8CFD8CF512CB701802F90E00E94C9
S1133E30BE25D3CF02E011E0D5CF91108052B70157
S1133E4090E00E94BE250F5F1F4FCFCF23E02515C2
S1133E5010F483E0BDCF512CC0CF6096E2E10C9406
S1133E6094235058BB27AA270E94491F0C949A20D8
S1133E700E948C2038F00E94932020F039F49F3F58
S1133E8019F426F40C9489200EF4E095E7FB0C94C5
S1133E908320E92F0E94AB2058F3BA1762077307F7
S1133EA08407950720F079F4A6F50C94CD200EF440
S1133EB0E0950B2EBA2FA02D0B01B90190010C0136
S1133EC0CA01A0011124FF27591B99F0593F50F44E
S1133ED0503E68F11A16F040A22F232F342F4427A6
S1133EE0585FF3CF469537952795A795F04053959E
S1133EF0C9F77EF41F16BA0B620B730B840BBAF06E
S1133F009150A1F0FF0FBB1F661F771F881FC2F7D8
S1133F100EC0BA0F621F731F841F48F487957795EC
S1133F206795B795F7959E3F08F0B0CF9395880FA6
S1133F3008F09927EE0F9795879508950E94B21F70
S1133F400C949A200E94932058F00E948C2040F0F8
S1133F5029F45F3F29F00C94832051110C94CE2056
S1133F600C9489200E94AB2068F39923B1F3552364
S1133F7091F3951B550BBB27AA2762177307840778
S1133F8038F09F5F5F4F220F331F441FAA1FA9F30E
S1133F9035D00E2E3AF0E0E832D091505040E695FC
S1133FA0001CCAF72BD0FE2F29D0660F771F881F5D
S1133FB0BB1F261737074807AB07B0E809F0BB0B50
S1133FC0802DBF01FF2793585F4F3AF09E3F510564
S1133FD078F00C9483200C94CE205F3FE4F3983E59
S1133FE0D4F3869577956795B795F7959F5FC9F74D
S1133FF0880F911D9695879597F90895E1E0660FCE
S1134000771F881FBB1F621773078407BA0720F046
S1134010621B730B840BBA0BEE1F88F7E0950895AF
S11340200E9417206894B1110C94CE2008950E9428
S1134030B32088F09F5798F0B92F9927B751B0F063
S1134040E1F0660F771F881F991F1AF0BA95C9F718
S113405014C0B13091F00E94CD20B1E008950C94C9
S1134060CD20672F782F8827B85F39F0B93FCCF37C
S1134070869577956795B395D9F73EF49095809595
S1134080709561957F4F8F4F9F4F0895E89409C0B5
S113409097FB3EF490958095709561957F4F8F4F77
S11340A09F4F9923A9F0F92F96E9BB279395F6958D
S11340B0879577956795B795F111F8CFFAF4BB0F0B
S11340C011F460FF1BC06F5F7F4F8F4F9F4F16C06F
S11340D0882311F096E911C0772321F09EE8872FF9
S11340E0762F05C0662371F096E8862F70E060E0B5
S11340F02AF09A95660F771F881FDAF7880F96952E
S1134100879597F9089597F99F6780E870E060E0D4
S113411008959FEF80EC089500240A94161617065C
S113412018060906089500240A94121613061406A4
S113413005060895092E0394000C11F4882352F007
S1134140BB0F40F4BF2B11F460FF04C06F5F7F4FBF
S11341508F4F9F4F089557FD9058440F551F59F0A6
S11341605F3F71F04795880F97FB991F61F09F3F60
S113417079F087950895121613061406551FF2CF89
S11341804695F1DF08C0161617061806991FF1CFD9
S113419086957105610508940895E894BB27662700
S11341A07727CB0197F908950E940D2208F48FEF29
S11341B008950E94B320A8F19E57B0F1985160F081
S11341C039F1983070F5092E9927660F771F881FEB
S11341D0991F0A94D1F71CC0BB27993F4CF4B11125
S11341E0B1E0B62B672F782F8827985FB1F708C006
S11341F0869577956795B79508F4B1609395C1F75F
S1134200BB0F30F411F460FF03C06F5F7F4F8F4F1B
S11342103EF490958095709561957F4F8F4F9F4F99
S1134220089568940C94CE200C94CD200E942921EA
S11342300C949A200E948C2038F00E94932020F045
S1134240952311F00C9483200C94892011240C9450
S1134250CE200E94AB2070F3959FC1F3950F50E0E0
S1134260551F629FF001729FBB27F00DB11D639F24
S1134270AA27F00DB11DAA1F649F6627B00DA11DCA
S1134280661F829F2227B00DA11D621F739FB00D70
S1134290A11D621F839FA00D611D221F749F3327E0
S11342A0A00D611D231F849F600D211D822F762F79
S11342B06A2F11249F5750409AF0F1F088234AF056
S11342C0EE0FFF1FBB1F661F771F881F91505040C2
S11342D0A9F79E3F510580F00C9483200C94CE20C6
S11342E05F3FE4F3983ED4F3869577956795B79549
S11342F0F795E7959F5FC1F7FE2B880F911D969563
S1134300879597F90895FA01EE0FFF1F309621055E
S11343103105A1F16115710561F48038BFE39B0794
S113432049F168949038810561F08038BFEF9B07AC
S113433041F099234AF5FF3FE1053105210519F1C3
S1134340E8940894E795D901AA2329F4AB2FBE2F4A
S1134350F85FD0F310C0FF5F70F4A695E0F7F7396B
S113436050F019F0FF3A38F49F779F930DD00F90D7
S113437007FC9058089546F00C94892060E070E0A2
S113438080E89FE308954FE79F775F934F933F93B0
S11343902F930E94A2222F913F914F915F910E94EF
S11343A016210C94DB2129F416F00C9483200C9430
S11343B0CD200C9489200E94B320A8F39638A0F74E
S11343C007F80F92E8942BE33AEA48EB5FE70E9480
S11343D02C210F920F920F924DB75EB70F920E944D
S11343E0EA22ECE7F0E00E9431224F915F91EF91D5
S11343F0FF91E595EE1FFF1F49F0FE57E068442743
S1134400EE0F441FFA95E1F74195550B0E94642283
S11344100F9007FE0C9458220895990F0008550F29
S1134420AA0BE0E8FEEF16161706E807F907C0F036
S113443012161306E407F50798F0621B730B840B3E
S1134440950B39F40A2661F0232B242B252B21F418
S113445008950A2609F4A140A6958FEF811D811DB8
S11344600895DF93CF931F930F93FF92EF92DF9200
S11344707B018C01689406C0DA2EEF010E94292189
S1134480FE01E894A5912591359145915591A6F3A6
S1134490EF010E94491FFE019701A801DA9469F710
S11344A0DF90EF90FF900F911F91CF91DF910895CE
S11344B09B01AC0160E070E080E89FE30C949E1FD8
S11344C00C9483200C941E230E94B320D8F39923C8
S11344D0C9F3940F511DA3F39150504094F059F037
S11344E0882332F0660F771F881F91505040C1F720
S11344F09E3F51052CF7880F911D9695879597F946
S113450008955F3FACF0983E9CF0BB278695779565
S11345106795B79508F4B1609395C1F7BB0F58F749
S113452011F460FFE8CF6F5F7F4F8F4F9F4FE3CF52
S11345300C94CE2016F00C941E230C9489206894BD
S11345400C9483200E94B320A8F39923C1F3AEF303
S1134550DF93CF931F930F93FF92C92FDD278823F7
S11345602AF02197660F771F881FDAF720E030E0E2
S113457040E85FEB9FE3883920F0803E38F02196D5
S11345808F770E94321FE4EAF0E004C00E94321FD9
S1134590E1EDF0E00E9431228B01BE01EC01FB2E23
S11345A06F5771097595771F880B990B0E944820E6
S11345B028E132E741E35FE30E942921AF2D98010E
S11345C0AE01FF900F911F91CF91DF910E94491F7F
S11345D00C949A20FA01DC01AA0FBB1F9B01AC01C9
S11345E0BF5728F4222733274427507820C0B751D7
S11345F090F4AB2F0024469537952795011CA3957D
S1134600D2F3002071F0220F331F441FB395DAF365
S11346100ED00C94311F61307105A0E88A07B946A9
S113462030F49B01AC016627772788279078309671
S113463021F0208331834283538308959F3F31F0D7
S1134640915020F4879577956795B795880F911DBC
S11346509695879597F90895DB018F939F930E9410
S11346606D23BF91AF91A29F800D911DA39F900DCB
S1134670B29F900D11240895A1E21A2EAA1BBB1B10
S1134680FD010DC0AA1FBB1FEE1FFF1FA217B3071A
S1134690E407F50720F0A21BB30BE40BF50B661F30
S11346A0771F881F991F1A9469F7609570958095F4
S11346B090959B01AC01BD01CF010895A29FB0016B
S11346C0B39FC001A39F700D811D1124911DB29F42
S11346D0700D811D1124911D08950E945E23A59FD4
S11346E0900DB49F900DA49F800D911D11240895E9
S11346F02F923F924F925F926F927F928F929F92EE
S1134700AF92BF92CF92DF92EF92FF920F931F93DB
S1134710CF93DF93CDB7DEB7CA1BDB0B0FB6F8948C
S1134720DEBF0FBECDBF09942A88398848885F84CC
S11347306E847D848C849B84AA84B984C884DF803D
S1134740EE80FD800C811B81AA81B981CE0FD11D21
S11347500FB6F894DEBF0FBECDBFED0108950F93E1
S11347601F93CF93DF938230910510F482E090E0A1
S1134770E091A602F091A70220E030E0A0E0B0E0D2
S1134780309719F1408151810281138148175907EB
S1134790C8F08417950769F4109731F012960C93BA
S11347A0129713961C9327C00093A6021093A70296
S11347B022C02115310519F04217530718F49A0144
S11347C0BD01EF01DF01F801DBCF21153105F9F05F
S11347D0281B390B2430310580F48A819B816115B3
S11347E0710521F0FB019383828304C09093A70297
S11347F08093A602FE01329644C0FE01E20FF31F2D
S11348008193919322503109398328833AC02091AE
S1134810A4023091A502232B41F420911D01309173
S11348201E013093A5022093A40220911B01309114
S11348301C012115310541F42DB73EB740911F01EC
S113484050912001241B350BE091A402F091A502A4
S1134850E217F307A0F42E1B3F0B2817390778F053
S1134860AC014E5F5F4F2417350748F04E0F5F1FB2
S11348705093A5024093A4028193919302C0E0E077
S1134880F0E0CF01DF91CF911F910F910895CF9365
S1134890DF93009709F481C0FC01329713821282DE
S11348A0A091A602B091A702109781F420813181D2
S11348B0820F931F2091A4023091A5022817390773
S11348C051F5F093A502E093A40267C0ED0120E046
S11348D030E0CE17DF0740F44A815B819E01411529
S11348E05105F1F0EA01F5CFD383C28340815181B0
S11348F0840F951FC817D90759F488819981840FAB
S1134900951F0296918380838A819B8193838283FE
S11349102115310529F4F093A702E093A6023DC0C6
S1134920E901FB83EA8349915991C40FD51FEC1720
S1134930FD0761F480819181840F951F0296E9013E
S113494099838883828193819B838A83E0E0F0E06A
S113495012968D919C911397009719F0FD01DC013B
S1134960F7CF8D919C9111979D012E5F3F4F820F40
S1134970931F2091A4023091A5022817390769F4E6
S1134980309729F41092A7021092A60202C0138253
S11349901282B093A502A093A402DF91CF9108954F
S11349A0283008F027E03327DA01990F311D87FDFD
S11349B0916000966105710539F432602E5F3D9374
S11349C030E32A95E1F708959F3F30F08038710570
S11349D0610509F03C5F3C5F3D93913008F08068CD
S11349E0911DDF93CF931F930F93FF92EF92192F93
S11349F0987F9695E92F96959695E90FFF27E05AAB
S1134A00FE4F99273327EE24FF24A701E7010590E1
S1134A100894079428F4360FE71EF81E491F511D09
S1134A20660F771F881F991F0694A1F705900794B6
S1134A3028F4E70EF81E491F561FC11D770F881F63
S1134A40991F661F0694A1F70590079428F4F80EA1
S1134A50491F561FC71FD11D880F991F661F771F37
S1134A600694A1F70590079420F4490F561FC71F19
S1134A70D81F990F661F771F881F0694A9F7849182
S1134A801095177041F0D695C79557954795F794AB
S1134A90E7941A95C1F7E6E0F1E068941590159152
S1134AA035916591959105907FE27395E118F10A2E
S1134AB0430B560BC90BD009C0F7E10CF11E431F81
S1134AC0561FC91FD01D7EF4703311F48A95E6CFAA
S1134AD0E894015030F0080F0AF40027021708F494
S1134AE0202F2395022F7A3328F079E37D932A959A
S1134AF0E9F710C07D932A9589F6069497956795F2
S1134B00379517951794E118F10A430B560BC90B07
S1134B10D00998F023957E9173957A3308F070E369
S1134B207C932013B8F77E9170617D9330F0839568
S1134B3071E37D9370E32A95E1F71124EF90FF90E0
S1134B400F911F91CF91DF91992787FD909508953B
S1134B50FC010590615070400110D8F78095909544
S1134B608E0F9F1F0895FC01615070400190011049
S1134B70D8F7809590958E0F9F1F08950F931F93DC
S1134B80CF93DF93FB01238121FD03C08FEF9FEFC0
S1134B902CC022FF16C046815781248135814217DB
S1134BA0530744F4A081B1819D012F5F3F4F3183AE
S1134BB020838C93268137812F5F3F4F3783268351
S1134BC014C08B01EC01FB010084F185E02D0995F3
S1134BD0892BE1F6D80116968D919C911797019631
S1134BE017969C938E931697CE01DF91CF911F91C8
S1134BF00F910895A0E0B0E0E0E0F6E20C94882381
S1134C00AE014B5F5F4FFA0161917191AF018091E9
S1134C10AA029091AB020E94B41BE2E00C94A4237C
S1134C200F931F93CF93DF93E091AA02F091AB020D
S1134C30238121FF1BC08C01D0E0C0E0F8018191E9
S1134C408F016091AA027091AB02DB011896ED917D
S1134C50FC911997882331F00995892B79F3DFEFBB
S1134C60CFEFECCF8AE00995892B19F08FEF9FEFF6
S1134C7002C08D2F9C2FDF91CF911F910F9108952A
S1134C80FA01AA27283051F1203181F1E8946F9379
S1134C906E7F6E5F7F4F8F4F9F4FAF4FB1E03ED01F
S1134CA0B4E03CD0670F781F891F9A1FA11D680FBD
S1134CB0791F8A1F911DA11D6A0F711D811D911DF0
S1134CC0A11D20D009F468943F912AE0269F112465
S1134CD03019305D3193DEF6CF010895462F4770C9
S1134CE0405D4193B3E00FD0C9F7F6CF462F4F7024
S1134CF0405D4A3318F0495D31FD4052419302D082
S1134D00A9F7EACFB4E0A695979587957795679527
S1134D10BA95C9F700976105710508959B01AC0127
S1134D200A2E06945795479537952795BA95C9F74E
S1134D30620F731F841F951FA01D0895F894FFCF61
S1134D401F020103030000000200000000B612006D
S1134D50000000180C041060C080200000AE022087
S1134D60005374617274696E6720746865205072B0
S1134D706F6772616D2E2E2E004578706C6F7269AC
S1134D806E672E2E2E0041766F6964696E672E2E33
S1134D902E00486F6D696E672E2E2E00556E6B6E59
S1134DA06F776E2073746174652100204469737495
S1134DB0203D20252E3366200A00537461727469E5
S1094DC06E672E2E2E008A
S9030000FC
