S01700004345454E426F742D50726F6A6563742E73726563C9
S11300000C9431030C944E030C944E030C944E0345
S11300100C94AB0E0C94D40E0C94FD0E0C94260F81
S11300200C944E030C948C0D0C94B50D0C94DE0DB5
S11300300C94590E0C94070E0C94300E0C94820EF2
S11300400C94110D0C943A0D0C94630D0C944E0306
S11300500C944E030C944E030C944E030C944E03D8
S11300600C944E030C944E030C944E030C944E03C8
S11300700C944E030C944E030C944E03D20BD50BEC
S1130080D80BDB0BE40BDE0BE10BE70BEA0BED0B00
S1130090F00BF30BF60BF90BFC0BFF0B020C050C2E
S11300A0080C190C1C0C1F0C220C2B0C250C280CF6
S11300B02E0C310C340C370C3A0C3D0C400C430C18
S11300C0460C490C4C0C4F0C07634236B79BD8A71F
S11300D01A39685618AEBAAB558C1D3CB7CC576369
S11300E0BD6DEDFD753EF6177231BF000000803F17
S11300F008000000BE922449123EABAAAA2ABECD33
S1130100CCCC4C3E00000080BEABAAAAAA3E0000A4
S11301100000BF000000803F00000000000841789C
S1130120D3BB4387D1133D190E3CC3BD4282AD2BD3
S11301303E68EC8276BED98FE1A93E4C80EFFFBECB
S113014001C4FF7F3F00000000006E616E00696E15
S1130150660000407A10F35A00A0724E180900108D
S1130160A5D4E80000E87648170000E40B54020028
S113017000CA9A3B000000E1F50500008096980053
S1130180000040420F000000A0860100000010277C
S113019000000000E803000000006400000000000C
S11301A00A00000000000100000000002C76D8883E
S11301B0DC674F0823DFC1DFAE59E1B1B796E5E351
S11301C0E453C63AE651997696E8E6C28426EB896A
S11301D08C9B62ED407C6FFCEFBC9C9F40F2BAA507
S11301E06FA5F490055A2AF75C936B6CF9676DC19F
S11301F01BFCE0E40D47FEF520E6B500D0ED902EA3
S11302000300943577050080841E080000204E0A00
S1130210000000C80C333333330F986E128311413E
S1130220EF8D2114893BE65516CFFEE6DB18D18409
S11302304B381BF77C1D901DA4BBE4242032847230
S11302405E228100C9F124ECA1E53D2716050100D9
S1130250000000000000FA000000E000E00028FEBA
S113026028FE282454FE5448C4C81026466C92AA7A
S113027044A000A0C000000038448200008244383A
S11302800028107C102810107C1010000A0C0000AC
S11302901010101010000606000004081020407C06
S11302A08A92A27C0042FE020042868A9262848282
S11302B0A2D28C182848FE08E4A2A2A29C3C529226
S11302C0920C808E90A0C06C9292926C60929294E8
S11302D078006C6C0000006A6C00001028448200F6
S11302E02828282828008244281040808A90604CBE
S11302F0929E827C7E8888887EFE9292926C7C821A
S1130300828244FE82824438FE92929282FE9090CF
S113031090807C8292925EFE101010FE0082FE821B
S113032000040282FC80FE10284482FE02020202C3
S1130330FE403040FEFE201008FE7C8282827CFE5D
S1130340909090607C828A847AFE90989462629203
S113035092928C8080FE8080FC020202FCF80402EF
S113036004F8FC021C02FCC6281028C6E0100E107B
S1130370E0868A92A2C200FE828200402010080415
S1130380008282FE0020408040200202020202001D
S113039080402000042A2A2A1EFE1222221C1C222B
S11303A02222041C222212FE1C2A2A2A18107E90C1
S11303B08040304A4A4A7CFE1020201E0022BE02A1
S11303C000040222BC00FE081422000082FE020087
S11303D03E2018201E3E1020201E1C2222221C3EDD
S11303E028282810102828183E3E10202010122AF1
S11303F02A2A0420FC2202043C0202043E3804029D
S113040004383C020C023C2214081422300A0A0A62
S11304103C22262A322200106C82000000FE0000DA
S113042000826C1000081010081000000000007F0B
S11304308181817F7F8383837F7F8787877F7F8F8E
S11304408F8F7F7F9F9F9F7F7FBFBFBF7F7FFFFF78
S1130450FF7F2040FF4020621517156500FBFB005D
S1130460000000000000C0FF0300E0FF0700F0FFF1
S11304700F00F8FF1F0078001E0078001E007800AF
S11304801E0078001E0078001E0078001E00780010
S11304901E0078001E0078001E000000000000000E
S11304A0000080FF0300E0FF0700F0FF0F00F8FFEB
S11304B01F00F83C1F00783C1E00783C1E00783C6E
S11304C01E00783C1E00783C1E00783C1E00783CE0
S11304D01E00783C1E00783C1E00783C1E00000084
S11304E0000000000000E0FF0300F0FF0700F8FF39
S11304F00F00F8FF1F00783C1E00783C1E00783C7B
S11305001E00783C1E00783C1E00783C1E00783C9F
S11305101E00783C1E00783C1E00783C1E00000043
S1130520000000000000F8FF0300F8FF0F00F8FFD0
S11305301F00F8FF1F0000001E0000001E000080C6
S11305401F0000F01F0000FF0F00E0FF0700F0FF96
S11305500000F80F0000F8000000780000007800A8
S11305600000F8FF1F00F8FF1F00F0FF1F00E0FF6E
S11305701F000000000000000000F8FF1F00F8FF4B
S11305801F00F8FF1F00F8FF1F0078001E00783CD2
S11305901E00783C1E00783C1E00783C1E00783C0F
S11305A01E00783C1E00F87E1F00F8FF1F00F0FFBD
S11305B00F00E0E703000000000000003800EEFF39
S11305C06C002A8045003A0047FC03FF6CFC83FF63
S11305D03900DEFF0B7CD0810BFCD0810BC0D081B5
S11305E00BFCD0810B7CDEFF0B0082FF397002FF15
S11305F06CF83A0047DC2A8045CCEEFF6CCC000056
S113060038000000000C00001E0C00001E0000005A
S11306101E0000001E0000001E00F8FF1F00F8FF6F
S11306201F00F8FF1F00F8FF1F0000001E0000005D
S11306301E0000001E0000001E0000005E000000FE
S1130640400000007C00000040000000400000006A
S11306507C000000300000001000000030000000AA
S11306607C0011241FBECFEFD8E0DEBFCDBF11E068
S1130670A0E0B1E0EEEAF7E402C005900D92AE34DA
S1130680B107D9F722E0AEE4B1E001C01D92AF3367
S1130690B207E1F70E9421070C94D5230C940000C3
S11306A00E9447070E94E8090E94B40681E00E9464
S11306B0160782E00C94BF0383E00E94DF060E94C9
S11306C0C206BC0180E090E00E94411D20E030E0C1
S11306D040EA50E40E94691E20E030E040E85AE31A
S11306E00E94691E089584E00E94DF060E94C206EB
S11306F0BC0180E090E00E94411D20E030E040EA2F
S113070050E40E94691E20E030E040E85AE30E9471
S1130710691E08950F931F93CF93DF93CDB7DEB770
S1130720EC970FB6F894DEBF0FBECDBF5F934F9327
S11307303F932F939F938F937F936F9381E291E0E5
S11307409F938F938E010F5F1F4F1F930F930E94F0
S113075055230E942A071F930F930E943F230FB62D
S1130760F894DEBF0FBECDBFEC960FB6F894DEBF93
S11307700FBECDBFDF91CF911F910F910895D82F58
S1130780CBE40E9473034B015C010E945C036B0188
S11307907C019B01AC01C501B4010E948A0320E0E5
S11307A030E040E85EE3C701B6010E94271E87FDE2
S11307B00BC020E030E040E85EE3C701B6010E94D0
S11307C02C1C6B017C0103C0C12CD12C7601D130CF
S11307D0F9F0F0F0D230F1F1D33099F6C501B4015B
S11307E00E940B1DC69F5001C79FB00C1124C70166
S11307F0B6010E940B1DC69F9001C79F300D1124A6
S1130800B901330F880B990B0E94431DA5013BC00E
S1130810A701960164E17EEA87E990E40E942C1C1A
S113082020E030E046E952E40E94691E0E940B1D5C
S11308306B017C01A50194016DEC7CEC8CE890E4E7
S11308400E942C1C20E030E046E952E40E94691E1C
S1130850A60119C0C701B6010E940B1DC69F7001F5
S1130860C79FF00C1124C501B4010E940B1DC69F43
S11308709001C79F300D1124B901330F880B990BD8
S11308800E94431DA7010E94A6067BCF089583E022
S11308900E94520C882361F061E082E00E94500BB8
S11308A060E070E080E490E40E946C0580E015C094
S11308B080E00E94520C8111EFCF81E00E94520C23
S11308C0882369F061E082E00E94500B60E070E0F0
S11308D080E490E40E946C0581E00C944406089541
S11308E02BEB3AE141E55DE30E94991C08954F9298
S11308F05F926F927F928F929F92AF92BF92CF92AC
S1130900DF92EF92FF920F931F93CF93DF9300D068
S113091000D0CDB7DEB72BEB3AE141E55DE30E94B1
S1130920991C6B017C0120E53DE847E95CE30E94EA
S1130930691E9B01AC01C701B6010E942C1C20E07A
S113094030E040E850E40E942D1C4B015C010E9401
S11309507E1D2B013C012FE832EC45E75CE3C70127
S1130960B6010E94691EA50194010E942D1C0E94DB
S11309707E1D0E94121D69837A838B839C831F9240
S11309801F921F921F9288EC8F9381E08F9380E9CE
S11309908F93C301B2010E94121D7F936F93812C28
S11309A0A12CB12CC12C88ECE82EF12C00E911E02B
S11309B029813A8140E062E080E00E9441090FB65B
S11309C0F894DEBF0FBECDBF0F900F900F900F9025
S11309D0DF91CF911F910F91FF90EF90DF90CF9017
S11309E0BF90AF909F908F907F906F905F904F904B
S11309F008954F925F926F927F928F929F92AF92DF
S1130A00BF92CF92DF92EF92FF920F931F938A01CE
S1130A102BEB3AE141E55DE30E94991C6B017C01FB
S1130A2020E53DE847E95CE30E94691E9B01AC01B7
S1130A30C701B6010E942C1C20E030E040E850E4DD
S1130A400E942D1C2B013C010E947E1D4B015C0168
S1130A502FE832EC45E75CE3C701B6010E94691E4A
S1130A60A30192010E942D1C0E947E1D0E94121D52
S1130A702B013C011F921F921F921F9288EC8F93AF
S1130A801F930F93C501B4010E94121D7F936F93AE
S1130A90812CA12CB12CC12C88ECE82EF12C9201D4
S1130AA040E062E081E00E9441098DB79EB709965B
S1130AB00FB6F8949EBF0FBE8DBF1F910F91FF908C
S1130AC0EF90DF90CF90BF90AF909F908F907F90EA
S1130AD06F905F904F9008954F925F926F927F92C4
S1130AE08F929F92AF92BF92CF92DF92EF92FF923A
S1130AF00F931F932BEB3AE141E55DE30E94991CB0
S1130B006B017C0120E53DE847E95CE30E94691E36
S1130B109B01AC01C701B6010E942C1C20E030E00F
S1130B2040E850E40E942D1C2B013C010E947E1DD4
S1130B304B015C012FE832EC45E75CE3C701B601E9
S1130B400E94691EA30192010E942D1C0E947E1D19
S1130B500E94121D2B013C011F921F921F921F9293
S1130B6088EC8F931F928F93C501B4010E94121DCC
S1130B707F936F9388248394A12CB12CC12C88EC8F
S1130B80E82EF12C08EC10E0920141E062E080E0F4
S1130B900E9441098DB79EB709960FB6F8949EBF7F
S1130BA00FBE8DBF1F910F91FF90EF90DF90CF90FC
S1130BB0BF90AF909F908F907F906F905F904F9079
S1130BC008958F92AF92BF92CF92EF92FF920F93BC
S1130BD01F93882341F11F921F921F9281E08F93EC
S1130BE080E98F9382E08F9388E58F931F9283E748
S1130BF08F93812CA12CB12CC12C90E9E92EFF24D8
S1130C00F39408E512E023E830E041E062E080E09C
S1130C100E9441098DB79EB709960FB6F8949EBFFE
S1130C200FBE8DBF28C01F921F921F9281E08F9329
S1130C3080E98F9382E08F9388E58F931F9282E8F7
S1130C408F9388248394A12CB12CC12C80E9E82EA5
S1130C50FF24F39408E512E023E730E040E062E08B
S1130C6080E00E9441098DB79EB709960FB6F894AB
S1130C709EBF0FBE8DBF1F910F91FF90EF90CF903D
S1130C80BF90AF908F9008958F92AF92BF92CF9202
S1130C90EF92FF920F931F93882341F11F921F92AB
S1130CA01F9281E08F9380E98F931F9288EC8F933A
S1130CB01F928EE18F9388248394A12CB12CC12C94
S1130CC090E9E92EFF24F39408EC10E02FEA30E0D9
S1130CD041E062E080E00E9441098DB79EB7099629
S1130CE00FB6F8949EBF0FBE8DBF27C01F921F92F0
S1130CF01F9281E08F9380E98F931F9288EC8F93EA
S1130D001F928FEA8F9388248394A12CB12CC12C39
S1130D1080E9E82EFF24F39408EC10E02EE130E0A3
S1130D2041E062E080E00E9441098DB79EB70996D8
S1130D300FB6F8949EBF0FBE8DBF1F910F91FF9009
S1130D40EF90CF90BF90AF908F900895CF93DF93A3
S1130D50EA010E94121D80E00E94A20ABE0181E005
S1130D60DF91CF910C94A20A8FE00E94C30B8823D9
S1130D7031F40E94F60C8FE061E00E940B0C8FE0CE
S1130D8091E008958FE00E94C30B813019F020E0B8
S1130D9030E013C080917A00806480937A0080915F
S1130DA07A0086FDFCCF3091780020917900922F53
S1130DB080E0232F30E0282B392BC9010895582FC8
S1130DC0809100018830D8F440917E0021E030E029
S1130DD0B90102C0660F771F8A95E2F7CB018095AF
S1130DE0842380937E0080917E00052E02C0220F12
S1130DF0331F0A94E2F7822B80937E000DC020916A
S1130E007E0081E090E0052E02C0880F991F0A94AD
S1130E10E2F7282B20937E005093000180917C0000
S1130E205F71807E852B80937C000895ECE7F0E071
S1130E3090818295880F880F807C9F73982B908374
S1130E4008950E940F0D0E94010D0E94500380E03E
S1130E5090E008950F931F9380E460E00E940908D6
S1130E6000E0802F60E00E94F00710E080E061E085
S1130E700E9409081F5F1038C9F70F5F043089F713
S1130E8083E060E00E94E9071F910F9108950F939A
S1130E901F9382E00E94C30B882311F482E006C0F2
S1130EA081E00E94C30B882319F481E090E06DC0B7
S1130EB00E94630F85E061E00E940B0C8EEA60E003
S1130EC00E94090882EA60E00E94090880EA60E062
S1130ED00E94090800E513ECC8010197F1F780ECC2
S1130EE060E00E9409088FE260E00E94090881E83E
S1130EF060E00E94090886E160E00E94090882E23D
S1130F0060E00E940908C8010197F1F78FEA60E0E8
S1130F100E94090886EA60E00E94090885EA60E008
S1130F200E94090880E090E028E833E1F901319754
S1130F30F1F7019643E0883E9407C1F783EB60E044
S1130F400E94090880E460E00E94090883E060E0F0
S1130F500E94F00783E060E00E94E9071092D70145
S1130F601092D9011092D80185E091E090933C024F
S1130F7080933B0288E10E94C8070E942A0784EA02
S1130F8060E00E94090885E091E01F910F910895A7
S1130F901F93182F85E00E94C30B8130C1F487E0B2
S1130FA00E94240882E06AE00E94750882E061EBF6
S1130FB00E947508612F113208F060E282E00E94FD
S1130FC0750889EE8A95F1F787E00E9424081F913D
S1130FD0089583706F776093D5018093D601089547
S1130FE00F931F93062F162F1F778370806B60E07B
S1130FF00E94090812951F70812F806160E00E9491
S11310000908802F8F7060E00E9409081F910F91DA
S113101008950F931F93082F162F85E00E94C30B8A
S1131020813079F4112319F0113021F402C02B9886
S113103001C02B9A86E08A95F1F780E0602F0E9428
S113104075081F910F9108951F93182F82E00E9435
S1131050C30B813009F047C0912F97708091DA015A
S1131060981709F440C09093DA0185B1887F892BE1
S113107085B9933011F1943028F4913051F09230C5
S113108090F40CC0953019F19530E0F0963021F5CC
S11310900FC0E0919D01F0919E0122C0E0919B015F
S11310A0F0919C011DC0E0919F01F091A00118C036
S11310B0E091A701F091A80113C0E091A101F09182
S11310C0A2010EC0E091A301F091A40109C0E09136
S11310D0A501F091A60104C0E091A901F091AA0133
S11310E0309709F009951F9108951F93162F0E94B8
S11310F0240882E00E94C30B813021F41EBD0DB48C
S113110007FEFDCF1F9108952F923F924F925F9259
S11311106F927F928F929F92AF92BF92CF92DF9203
S1131120EF92FF920F931F93DF93CF93CDB7DEB768
S1131130582E962E442E39013C2CC98CDA8C2B8CDB
S113114081E0681739F1681728F092E0691709F00F
S113115085C049C080E061E00E948D0A80E0B7014B
S11311600E94560A80E0642DA3019801032DEE2409
S1131170E394E2E1CE2EE2E0DE2E0E94C40A552082
S113118009F06CC000D00F92EDB7FEB71182B382A4
S1131190A28223C081E061E00E948D0A81E0B60151
S11311A00E94560A81E0682D4D895E892F89388D09
S11311B0022DEE24E39472E1C72E72E0D72E0E9432
S11311C0C40A552009F04AC000D00F92EDB7FEB70B
S11311D091828C8D9D8D938382830E94750B0F90D9
S11311E00F900F903BC082E061E00E948D0A80E086
S11311F0B7010E94560A81E0B6010E94560A80E0B7
S1131200642DA3019801032DEE24E39492E1C92EE9
S113121092E0D92E0E94C40A81E0682D4D895E892E
S11312202F89388D022D0E94C40A5520B9F400D0AC
S113123000D00F92ADB7BEB71196EDB7FEB791824D
S1131240FD01B282A1828C8D9D8D948383830E9443
S1131250750B0F900F900F900F900F90CF91DF911F
S11312601F910F91FF90EF90DF90CF90BF90AF90C0
S11312709F908F907F906F905F904F903F902F90B2
S113128008956F927F928F929F92AF92BF92CF9266
S1131290DF92EF92FF920F931F93DF93CF93CDB71B
S11312A0DEB7942E7C2DD50149895A89AB88BC8838
S11312B0CD88DE889F89813009F457C08130B8F128
S11312C0823009F076C0613091F0613020F06230F4
S11312D009F06FC015C080E060E00E948D0A80E0D4
S11312E0B7010E94560A80E0692DA8011DC081E063
S11312F060E00E948D0A81E0B6010E94560A11C086
S113130082E060E00E948D0A80E0B7010E94560AE4
S113131081E0B6010E94560A80E0692DA8010E946E
S11313203F0A81E0682DA5010E943F0A42C0EDB743
S1131330FEB739970FB6F894FEBF0FBEEDBF6DB67A
S11313407EB60894611C711C52834183F301B382FD
S1131350A282D582C4829683888D998D9087878353
S113136080E0492DC72E5D011AC0EDB7FEB739974D
S11313700FB6F894FEBF0FBEEDBFADB7BEB7119662
S113138052834183FD01B382A282D582C4829683B3
S11313901086178281E0492DC72EAA24BB240E94FF
S11313A084088DB79EB709960FB6F8949EBF0FBEFA
S11313B08DBFCF91DF911F910F91FF90EF90DF9040
S11313C0CF90BF90AF909F908F907F906F90089533
S11313D00E940A1281E080931102EBEDF1E0119278
S11313E011921182108232961182108232961182E9
S11313F010823296118210823296118210823296B5
S113140011821082329611821082329611821082D9
S11314103296118210823296118210823296118293
S11314201082329611821082369611921192119284
S1131430108232961192119211921192119211927C
S11314401192118210823296118210823296118288
S1131450108232961182108276971182108232960F
S1131460118210821092100210920F021092110237
S113147087E061E00E940B0C87E091E00895EF9211
S1131480FF920F931F93182F062F7A0160E00E949A
S11314908D0A812F602F0E94780A812FB7010E9444
S11314A0A20A1F910F91FF90EF900895482F81E0B9
S11314B080931102CB0123E0693E720710F088EE9D
S11314C093E0413071F0413018F0423071F405C0BE
S11314D09093E6018093E50108C09093E601809320
S11314E0E5019093E8018093E701109211020895B9
S11314F0982F81E080931102913051F0913018F0CF
S1131500923041F403C06093FE0104C06093FE0175
S11315106093FF01109211020895982F81E0809347
S11315201102913051F0913018F0923041F403C01F
S11315306093DB0104C06093DB016093DC011092D3
S113154011020895482F81E080931102CB0121E01C
S11315506139720710F080E991E0413071F0413057
S113156018F0423071F405C09093DE018093DD01E0
S113157008C09093DE018093DD019093E001809395
S1131580DF011092110208958F929F92AF92BF9241
S1131590CF92DF92EF92FF920F931F93CF93DF933B
S11315A0182FF62E5A014901E60161E00E948D0AC6
S11315B0812FB501A4010E944412812F6F2D0E9436
S11315C0780A812F602F0E942F12812FB5010E946B
S11315D01412C114D10499F0113049F0113018F0EB
S11315E0123069F406C0188210920D0208C01982E4
S11315F004C01882198210920D0210920E02D09328
S11316001002C0930F02EE20B9F58EE491E090939E
S1131610100280930F02812FB4010E94A20A812F2D
S11316200E94F511113071F0113018F0123059F593
S113163012C010924E0110920D0280914E01882327
S1131640E1F321C010924F0110920E0280914F01DC
S11316508823E1F318C010924E0110924F011092AA
S11316600D0210920E0280914E018823E1F38091C5
S11316704F018823C1F307C0812FB4010E94A20A3D
S1131680812F0E94F511DF91CF911F910F91FF904F
S1131690EF90DF90CF90BF90AF909F908F90089580
S11316A00F931F93182F062F662349F460E070E010
S11316B00E94A20A812F60E070E00E94141281E06F
S11316C080931102113051F0113018F0123041F4AE
S11316D003C00093F90104C00093F9010093FA01D7
S11316E0109211021F910F910895CF92DF92EF9201
S11316F0FF920F931F93DF93CF93CDB7DEB78B8504
S1131700813061F0813018F08230A1F511C0EC8590
S1131710FD85809112028823E1F306C0EC85FD85E6
S1131720809113028823E1F3309721F1099522C0B7
S1131730CC84DD84EE84FF8400E010E0002351F4C7
S113174080911202882331F0C114D10411F0F60102
S1131750099501E0112351F480911302882331F09B
S1131760E114F10411F0F701099511E0002331F3BC
S1131770112321F3CF91DF911F910F91FF90EF90EF
S1131780DF90CF900895E82FF0E0E331F10540F4C5
S1131790E25CFF4FEE0FFF1F0590F491E02D0994DA
S11317A080E008958091C20108958091C301089555
S11317B08091C40108958091C50108958091C60166
S11317C008958091C80108958091C701089580917A
S11317D0C90108958091CA0108958091CB010895AB
S11317E08091CC0108958091CD0108958091CE011E
S11317F008958091CF0108958091D001089580913A
S1131800D10108958091D20108958091D301089562
S11318108091D4010895E82FF0E0E331F10508F058
S113182040C0EF5AFF4FEE0FFF1F0590F491E02DDB
S113183009946093C20108956093C301089560936D
S1131840C40108956093C50108956093C601089585
S11318506093C80108956093C70108956093C90116
S113186008956093CA0108956093CB01089560932D
S1131870CC0108956093CD0108956093CE0108953D
S11318806093CF0108956093D00108956093D101CE
S113189008956093D20108956093D30108956093ED
S11318A0D20108951F93182F80915101882341F08C
S11318B080915801882399F0109251011092580197
S11318C00E94870C8093500182E591E061E040E042
S11318D028E230E00E94B80C81E08093510190919D
S11318E05001133018F0133079F409C0E12FF0E0FF
S11318F0EF5FFE4F8081892341F081E006C091FFB4
S113190003C0892F817001C080E01F9108950F9357
S11319101F9381E00E94C30B813011F000E024C0CA
S113192087E00E94240882E06AE00E94750882E051
S113193062EB0E94750818EC812F8A95F1F782E01A
S113194060E00E94B010082F812F8A95F1F782E0A1
S113195060E00E94B0101A95F1F787E00E94240815
S113196088E893E10197F1F7802F1F910F91089573
S1131970EF92FF920F931F93CF93DF93EC01F62E18
S1131980E42E890188E00E94C30B813011F081E0CC
S113199026C084E090E00E94F420FC01009711F43A
S11319A082E01DC0F982F0FC1E8281E0E81619F481
S11319B08981846089838981886089831B830A8300
S11319C01D830C83D183C0831382128281E08093B0
S11319D0BB01CF010E9414131092BB0180E0DF9180
S11319E0CF911F910F91FF90EF9008958FE1809315
S11319F07C00EAE7F0E087E0808380818068808370
S1131A0008950E9481120E9412100E944F0F0E949A
S1131A107D130E9477100E94A41278940895000008
S1131A2008951F920F920FB60F9211242F933F9394
S1131A304F935F936F937F938F939F93AF93BF93D2
S1131A40EF93FF93E0917B01F0917C01309709F0D3
S1131A500995FF91EF91BF91AF919F918F917F91E4
S1131A606F915F914F913F912F910F900FBE0F9007
S1131A701F9018951F920F920FB60F9211242F9357
S1131A803F934F935F936F937F938F939F93AF9302
S1131A90BF93EF93FF93E0917D01F0917E01309726
S1131AA009F00995FF91EF91BF91AF919F918F91AB
S1131AB07F916F915F914F913F912F910F900FBE46
S1131AC00F901F9018951F920F920FB60F9211242A
S1131AD02F933F934F935F936F937F938F939F9332
S1131AE0AF93BF93EF93FF93E0917F01F091800157
S1131AF0309709F00995FF91EF91BF91AF919F91B4
S1131B008F917F916F915F914F913F912F910F90A2
S1131B100FBE0F901F9018951F920F920FB60F9241
S1131B2011242F933F934F935F936F937F938F93DE
S1131B309F93AF93BF93EF93FF93E0916D01F09167
S1131B406E01309709F00995FF91EF91BF91AF9124
S1131B509F918F917F916F915F914F913F912F91C1
S1131B600F900FBE0F901F9018951F920F920FB6F3
S1131B700F9211242F933F934F935F936F937F930F
S1131B808F939F93AF93BF93EF93FF93E0916F0174
S1131B90F0917001309709F00995FF91EF91BF9191
S1131BA0AF919F918F917F916F915F914F913F91F1
S1131BB02F910F900FBE0F901F9018951F920F92A8
S1131BC00FB60F9211242F933F934F935F936F930C
S1131BD07F938F939F93AF93BF93EF93FF93E09182
S1131BE07101F0917201309709F00995FF91EF911D
S1131BF0BF91AF919F918F917F916F915F914F9121
S1131C003F912F910F900FBE0F901F9018951F9228
S1131C100F920FB60F9211242F933F934F935F931C
S1131C206F937F938F939F93AF93BF93EF93FF93A0
S1131C30E0917501F0917601309709F00995FF91D3
S1131C40EF91BF91AF919F918F917F916F915F9130
S1131C504F913F912F910F900FBE0F901F901895A9
S1131C601F920F920FB60F9211242F933F934F930D
S1131C705F936F937F938F939F93AF93BF93EF93F0
S1131C80FF93E0917701F0917801309709F009957D
S1131C90FF91EF91BF91AF919F918F917F916F9140
S1131CA05F914F913F912F910F900FBE0F901F9016
S1131CB018951F920F920FB60F9211242F933F93F2
S1131CC04F935F936F937F938F939F93AF93BF9340
S1131CD0EF93FF93E0917301F0917401309709F051
S1131CE00995FF91EF91BF91AF919F918F917F9152
S1131CF06F915F914F913F912F910F900FBE0F9075
S1131D001F9018951F920F920FB60F9211242F93C4
S1131D103F934F935F936F937F938F939F93AF936F
S1131D20BF93EF93FF93E0917901F0917A0130979B
S1131D3009F00995FF91EF91BF91AF919F918F9118
S1131D407F916F915F914F913F912F910F900FBEB3
S1131D500F901F9018951F920F920FB60F92112497
S1131D602F933F934F935F936F937F938F939F939F
S1131D70AF93BF93EF93FF93E0916301F0916401FC
S1131D80309709F00995FF91EF91BF91AF919F9121
S1131D908F917F916F915F914F913F912F910F9010
S1131DA00FBE0F901F9018951F920F920FB60F92AF
S1131DB011242F933F934F935F936F937F938F934C
S1131DC09F93AF93BF93EF93FF93E0916501F091DD
S1131DD06601309709F00995FF91EF91BF91AF919A
S1131DE09F918F917F916F915F914F913F912F912F
S1131DF00F900FBE0F901F9018951F920F920FB661
S1131E000F9211242F933F934F935F936F937F937C
S1131E108F939F93AF93BF93EF93FF93E0916701E9
S1131E20F0916801309709F00995FF91EF91BF9106
S1131E30AF919F918F917F916F915F914F913F915E
S1131E402F910F900FBE0F901F9018951F920F9215
S1131E500FB60F9211242F933F934F935F936F9379
S1131E607F938F939F93AF93BF93EF93FF93E091EF
S1131E706901F0916A01309709F00995FF91EF919A
S1131E80BF91AF919F918F917F916F915F914F918E
S1131E903F912F910F900FBE0F901F90189580E1E6
S1131EA00E94C30B882361F4EBE5F1E011921192D7
S1131EB081E0EB39F807D1F780E161E00E940B0C77
S1131EC080E191E00895239A0895FF920F931F9360
S1131ED0CF93DF93F82E8AE0F816B1F08F1548F00F
S1131EE0E8E0FE16B9F1EF1538F1F7E0FF1651F40A
S1131EF03BC08DE0F81659F0EBE1FE1689F0FCE0EA
S1131F00FF1641F001E041C01092D50103C01092C8
S1131F10D5013AC08091D60181508093D60134C056
S1131F200E942A0714C080E061E00E9409088091A1
S1131F30D5018F5F8093D5018091D50187FFF3CFC1
S1131F401092D5018091D60181508093D60100E092
S1131F5011E01CC08091D5018823B1F08091D50196
S1131F6086508093D50110C081E00E94951164EFE2
S1131F7071E080E090E04DE750E024E630E00E941C
S1131F80A21181E00E94FA1000E010E08091D601D5
S1131F906091D5010E94F007002351F185E0F89E7D
S1131FA0C0011124EC01C155DE4F8C010C541E4FAD
S1131FB0FE01849161E00E9409082196C017D107AF
S1131FC0B9F780E061E00E9409088091D5018A5F39
S1131FD08093D5018091D50190E08C3791053CF038
S1131FE01092D5018091D60181508093D60111E0E1
S1131FF08091D60183708093D601113059F4809179
S1132000D701813039F4E091D801F091D9013097AA
S113201009F0099580E090E0DF91CF911F910F9135
S1132020FF90089580E00E94C30B882351F4F89434
S11320300E94CB1381E00E94241080E061E00E94A2
S11320400B0C80E091E00895813049F0F8948130E0
S113205020F18230B1F0833009F045C017C02C9ACA
S113206080E8809361001092610080E090E00000BD
S1132070019688329105D9F71092680010926B008E
S1132080089580E88093610083E004C080E8809331
S1132090610088E08093610028C080E090E0000047
S11320A001962DE680369207D1F72C9880E090E0D7
S11320B0000001962DE680369207D1F710927A003F
S11320C08FEF809364008091680081608093680042
S11320D080916B00846080936B00789483B78160F7
S11320E083BF88950895823008F0789408950F93FB
S11320F01F930E94F71380E066EE73E10E94C21002
S113210081E06EED73E10E94C21082E066ED73E13E
S11321100E94C21086E06EEE73E10E94C2100EECC3
S113212013E183E0B8010E94C21084E0B8010E9468
S1132130C21085E0B8010E94C21087E0B8010E9475
S1132140C21082E061E00E940B0C8FEF8093DA01F1
S113215087E00E94240882E091E01F910F91089586
S11321601F93162F0E94240882E00E94C30B813023
S113217011F080E005C01EBD0DB407FEFDCF8EB585
S11321801F910895E82FF0E0EE0FFF1FE556FE4F74
S11321907183608308958AE00E94C30B813041F407
S11321A00E9459141092AC018AE060E00E940B0C6A
S11321B0089589E00E94C30B8130D9F48091AB016A
S11321C0882311F00E94EF1182E00E94591480913B
S11321D0B9019091BA01009731F00E948C211092BC
S11321E0BA011092B9011092AB0189E060E00E943B
S11321F00B0C0895813029F0823029F40E94D91003
S113220008950E94CB1008950F931F93CF93DF93EB
S113221080E291E00E94F4209C019093BA018093A3
S1132220B901892B11F480E039C08901C0E0D0E004
S1132230BE0180E090E00E94411D20E030E040EAD1
S113224051E40E94991C27EF35E740E05FE30E94C8
S1132250691E9B01AC0160E070E080E291E40E94A1
S1132260D61E9B01AC01CA01B9012DEC3CEC42E83D
S113227051E40E94691E0E942C1E2AE030E040E0D6
S113228050E00E947120F8016193719381939193BE
S11322908F012196C834D10559F681E0DF91CF91A1
S11322A01F910F9108958AE00E94C30B882371F453
S11322B01092B6011092B50181E00E94751481E07C
S11322C08093AC018AE061E00E940B0C8AE091E00B
S11322D008951F938BE00E94C30B882311F090E0B4
S11322E021C089E00E94C30B8823D9F40E94041101
S11322F0182F8130B1F41092AD011092AE011092FA
S1132300AF011092B0018DE06EEF73E10E94B7133C
S113231082E00E9475141093AB0189E061E00E9491
S11323200B0C91E089E01F910895813029F08230EF
S113233031F090E089E008950E94531108950E94BD
S1132340691108958F929F92AF92BF92CF92DF92BC
S1132350EF92FF920F931F93CF93DF934B015C0196
S1132360EA01B9012115310539F19E01442737FDF0
S11323704095542F6536710510F064E670E080E0F6
S113238090E00E94712024E630E040E050E00E949A
S1132390812079018A01C501B4010E940114C70199
S11323A00E94F31260E070E080E090E00E9401146B
S11323B0CE018E199F0904C04115510519F0CA01B7
S11323C00E94F312DF91CF911F910F91FF90EF9034
S11323D0DF90CF90BF90AF909F908F900895EFE6DD
S11323E0F0E080818D7F80830895982F81E0809331
S11323F01102913051F0913018F0923041F403C041
S11324001092F90104C01092F9011092FA0110928D
S1132410110208953A9A3B9A3C9A3D9A3E9A3F9A01
S113242088B1837088B90895982F81E08093110250
S1132430913071F0913018F0923071F405C07093BE
S1132440EE016093ED0108C07093EE016093ED011D
S11324507093F0016093EF01109211020895982F88
S113246081E080931102913051F0913018F0923054
S113247041F403C06093FB0104C06093FB016093CB
S1132480FC011092110208950F931F93CF93DF93D1
S1132490EB018A01813001F1813018F0823061F55D
S11324A00DC08091E5019091E601892B11F080E047
S11324B01AC01092F2011092F1011EC08091E50140
S11324C09091E601892B21F080E00E949F1404C0C2
S11324D01092F2011092F1018091E7019091E801CC
S11324E0892B31F081E0BE01A8010E949F1404C031
S11324F01092F4011092F301DF91CF911F910F918B
S113250008951092C2011092C3011092C701109253
S1132510C4011092C6011092C8011092C901109210
S1132520CA011092CB011092CC011092CD011092ED
S1132530CE011092CF011092D0011092D1011092CD
S1132540D2011092D301089582E00E94C30B882324
S113255019F490E082E0089510922C0210922B025C
S113256010922E0210922D021092300210922F021D
S113257010923202109231021092340210923302FD
S113258080E991E0909318028093170290931A02C5
S11325908093190290931C0280931B0290931E0255
S11325A080931D029093200280931F0284E398E09D
S11325B09093220280932102909324028093230219
S11325C090932602809325029093280280932702F9
S11325D090932A028093290281E061E00E940B0C0F
S11325E091E081E00895DF93CF93CDB7DEB72997CB
S11325F00FB6F894DEBF0FBECDBF9C01CE0101968D
S113260061E040E00E94B80C982F882319F48F8170
S11326108823E9F3892F29960FB6F894DEBF0FBEFD
S1132620CDBFCF91DF910895CF92DF92EF92FF92C9
S11326300F931F93CF93DF93EC01809114028823AF
S113264039F4D0931602C09315020E94A21347C016
S1132650C0901502D090160200E010E0EE24FF2492
S113266037C0A881B981FD0164817581F60140817B
S11326705181FA01848195819B01281B390B37FF15
S11326800FC0861B970B95838483DB82CA82012B40
S113269029F4D0931602C093150221C0F7010CC08F
S11326A0F601828193812115310549F4FD011582DA
S11326B014829B838A83F601D383C28310C0FD01F5
S11326C0358324830097B9F30F5F1F4F76016C01A4
S11326D08091140290E00817190718F2ECCF80914A
S11326E014028F5F80931402DF91CF911F910F9199
S11326F0FF90EF90DF90CF90089588E00E94C30B85
S11327008823B9F410921402109216021092150242
S11327101092BB011092BC0180E16CE075E10E9453
S1132720A6130E9413150E949C1388E061E00E9486
S11327300B0C88E091E00895EEE6F0E08081826081
S11327408083089581E08093BC010895803218F05D
S113275020E030E00AC0E82FF0E0EE0FFF1FE55A5A
S1132760FE4F2081318171836083C9010895E82F70
S1132770803268F48051833050F0F0E0EE0FFF1F98
S1132780E55AFE4F208131817183608302C020E0CD
S113279030E0C9010895249A2C9A089583E58CBDEC
S11327A081E08DBD8DE08A95F1F7089583E58CBDB8
S11327B01DBC84EF91E00197F1F708958FE78CBD7C
S11327C01DBC84EF91E00197F1F7089583E58CBD7A
S11327D081E08DBD8DE08A95F1F7089583E58CBD88
S11327E081E08DBD84EF91E00197F1F70895259A7A
S11327F02698279A209A219A229A08950E941814BA
S113280008959B01AC018091AC01882381F0DA0129
S1132810C901880F991FAA1FBB1F9093B801809309
S1132820B701211531054105510509F45F98089553
S11328308091AD019091AE01A091AF01B091B00132
S11328402091B1013091B2014091B3015091B40192
S1132850280F391F4A1F5B1F2093AD013093AE012F
S11328604093AF015093B0018091AD019091AE01BE
S1132870A091AF01B091B0018851964FA040B040F3
S1132880BCF08BB180588BB98091AD019091AE01B1
S1132890A091AF01B091B0018851964FA040B040D3
S11328A08093AD019093AE01A093AF01B093B001BA
S11328B00895823029F4809181008E7F8093810075
S11328C08091AB01813031F48091AC01813011F4FD
S11328D0000008958091AB01813021F08091AC011A
S11328E0813011F45F9857980895982F8091AB0127
S11328F0882331F48091AC01882311F4579A5F98AE
S11329008091AB018823D1F49230C1F410928000FD
S11329101092810080918100886080938100809171
S11329208100816080938100109285001092840060
S113293081E08093890080E9809388000895EF9274
S1132940FF920F931F93CF93DF93EB01882321F022
S1132950813009F05AC02DC09A0140E050E0CA010C
S1132960B9010E9471202091E5013091E601220F06
S1132970331F40E050E00E94812079018A01A801C0
S11329809701220F331F441F551FCE01A0E0B0E072
S113299082179307A407B50728F0F092F201E0929A
S11329A0F10133C0D695C795D093F201C093F101DC
S11329B02CC09A0140E050E0CA01B9010E94712084
S11329C02091E7013091E801220F331F40E050E0ED
S11329D00E94812079018A01A8019701220F331FE7
S11329E0441F551FCE01A0E0B0E082179307A4074F
S11329F0B50728F0F092F401E092F30106C0D695F1
S1132A00C795D093F401C093F301DF91CF911F9147
S1132A100F91FF90EF9008950E941C150E945C1581
S1132A200E943515089584B5826084BD85B584609F
S1132A3085BD8EE487BD089588E00E94C30B88237A
S1132A4011F484E008958091BC01882311F483E09B
S1132A5008958091BB01882311F082E008950E94BB
S1132A60A9178130E1F380E008958091AC018130B1
S1132A7011F58091B5019091B6012091B701309183
S1132A80B801280F391F3093B6012093B501809106
S1132A90B5019091B601885E93406CF08BB180587B
S1132AA08BB98091B5019091B601885E9340909363
S1132AB0B6018093B501089587E00E94C30B81306D
S1132AC009F0AAC08091E5019091E601892B09F1F2
S1132AD08091090290910A022091E5013091E6016A
S1132AE0820F931F90930A02809309028091090236
S1132AF090910A02885E9340A4F08091090290911B
S1132B000A02885E934090930A028093090241E08E
S1132B1009C08091DD019091DE019093E2018093E0
S1132B20E10140E08091E7019091E801892B09F1EE
S1132B3080910B0290910C022091E7013091E80101
S1132B40820F931F90930C0280930B0280910B02CF
S1132B5090910C02885E9340A4F080910B029091B6
S1132B600C02885E934090930C0280930B0261E008
S1132B7009C08091DF019091E0019093E40180937A
S1132B80E30160E0842F0E940D168091050290916C
S1132B9006022091E1013091E201280F391F3093A0
S1132BA00602209305028091050290910602885E38
S1132BB0934014F440E00BC080910502909106020A
S1132BC0885E9340909306028093050241E08091D1
S1132BD00702909108022091E3013091E401280F4B
S1132BE0391F3093080220930702809107029091C5
S1132BF00802885E934014F460E00BC080910702E1
S1132C0090910802885E9340909308028093070293
S1132C1061E0842F0E94521608958823F1F02091D8
S1132C20DD013091DE018091E1019091E201281BE8
S1132C30390B1216130634F48091E1019091E201EC
S1132C40019607C0232B49F08091E1019091E201A4
S1132C5001979093E2018093E101662311F12091A1
S1132C60DF013091E0018091E3019091E401281BA0
S1132C70390B1216130654F48091E3019091E40188
S1132C8001969093E4018093E3010895232B49F086
S1132C908091E3019091E40101979093E401809382
S1132CA0E30108950F931F93182F062F80911102AB
S1132CB0882309F0E7C08091F901882309F05AC0FC
S1132CC08091E1019091E201892BE9F48091BD01A9
S1132CD0837E8093BD011092020280910D028823AD
S1132CE009F45DC06091FB0180E00E94500BE0910B
S1132CF00F02F0911002309709F451C081E08083F3
S1132D0010920D024CC08091DB01813041F480911E
S1132D10ED019091EE01019711F411E002C011232D
S1132D20F1F1E0910002F0E0ED5EFE4F9091BD0103
S1132D30937E8081892B8093BD018091FE0188233D
S1132D4021F4809100028F5F03C0809100028150C2
S1132D50809300028091000283708093000281E0DE
S1132D60809302028091DB018130C9F480E00E94EB
S1132D70551715C09091BD01937E9093BD01E091CC
S1132D800002F0E0ED5EFE4F8081892B8093BD014F
S1132D9082E0809302021092E2011092E10180919C
S1132DA0FA01882309F059C08091E3019091E4016C
S1132DB0892BE9F48091BD018F718093BD0110923C
S1132DC0030280910E02882309F45CC06091FC0127
S1132DD081E00E94500BE0910F02F09110023097B5
S1132DE009F450C081E0818310920E024BC080919F
S1132DF0DC01813041F48091EF019091F001019761
S1132E0011F401E002C00023E9F1E0910102F0E0D5
S1132E10E95EFE4F9091BD019F718081892B809363
S1132E20BD018091FF01882321F4809101028F5F0D
S1132E3003C08091010281508093010280910102BC
S1132E4083708093010281E0809303028091DC010E
S1132E508130C1F40E94551715C09091BD019F7136
S1132E609093BD01E0910102F0E0E95EFE4F8081A4
S1132E70892B8093BD0182E0809303021092E401C8
S1132E801092E30180910402882331F48DEB91E0E8
S1132E90612F402F0E94171888B183709091BD0153
S1132EA0892B88B91F910F910895882321F08130CF
S1132EB009F04EC027C08091ED019091EE01892B5D
S1132EC049F08091ED019091EE0101979093EE010C
S1132ED08093ED0180910D028823D1F52091ED01BD
S1132EE03091EE018091F1019091F2012817390798
S1132EF079F580E060E070E00E94A20A81E08093AE
S1132F000D0208958091EF019091F001892B49F011
S1132F108091EF019091F00101979093F0018093DB
S1132F20EF0180910E02882399F42091EF013091F2
S1132F30F0018091F3019091F4012817390741F4CD
S1132F4081E060E070E00E94A20A81E080930E02BA
S1132F500895FF920F931F93CF93DF9380911402F0
S1132F60882309F459C00091150210911602F80142
S1132F70C081D1818C819D8101979D838C8318169A
S1132F8019060CF449C0898180FF05C08E8188230D
S1132F9011F481E08E83898181FF03C0EF81F8857C
S1132FA00995809114028230A8F0F80182819381FE
S1132FB0909316028093150213821282E09100000E
S1132FC0F091010084819581181619063CF0FF24C4
S1132FD0F39405C01092160210921502FF248091FA
S1132FE0140281508093140280911402882311F4F6
S1132FF00E941418898182FF08C08A819B819D8365
S11330008C83C8010E94141308C0C8010E948C213B
S113301089818F7E898301C0FF248F2DDF91CF9119
S11330201F910F91FF9008951092BC010895FC0127
S113303080910202823069F48091C10191E0892774
S11330408093C101882309F03EC08081837E808300
S11330503AC08091E1019091E201C397A4F56623FF
S1133060D1F02091E1013091E20180E690E0BC01D1
S1133070269FC001279F900D369F900D1124880F25
S1133080892F881F990B9093F6018093F50181E0B5
S11330908093BF0118C08091BF018823A1F0809163
S11330A0F5019091F60101979093F6018093F50153
S11330B08091F5019091F601892B29F48081837E1A
S11330C080831092BF0180910302823069F4809161
S11330D0C00191E089278093C001882309F03EC094
S11330E080818F71808308958091E3019091E40140
S11330F0C397A4F54423D1F02091E3013091E40176
S113310080E690E0AC01249FC001259F900D349F80
S1133110900D1124880F892F881F990B9093F80123
S11331208093F70181E08093BE0108958091BE01F0
S11331308823A1F08091F7019091F8010197909371
S1133140F8018093F7018091F7019091F801892BA0
S113315029F480818F7180831092BE010895A0E1CB
S1133160B0E0E5EBF8E10C94AE207C011B016A01B0
S1133170FC0117821682838181FF44C39E012F5F65
S11331803F4F3901F7019381F10193FD859193FF3D
S113319081911F01882309F431C3853239F493FDE9
S11331A0859193FF81911F01853239F4B70190E035
S11331B00E94032356016501E5CF10E0512C912CA8
S11331C0FFE1F915D8F08B3279F038F4803279F0D8
S11331D08332A1F4F92DF0612EC08D3261F0803379
S11331E069F4292D21602DC0392D3260932E892D4B
S11331F08460982E2AC0E92DE86015C097FC2DC084
S113320020ED280F2A3088F496FE06C03AE0139F7A
S1133210200D1124122F19C08AE0589E200D11246C
S1133220522EE92DE0629E2E10C08E3231F496FCAF
S1133230E5C2F92DF0649F2E08C08C3621F4292DA7
S11332402068922E02C0883641F4F10193FD8591E5
S113325093FF81911F018111B3CF9BEB980F9330A2
S113326020F4992D9061805E07C09BE9980F9330FC
S113327008F066C1992D9F7E96FF16E09F73992EE4
S1133280853619F49064992E08C0863621F4392FB6
S11332903068932E02C01111115097FE07C01C33E1
S11332A050F444244394410E27E00BC0183038F006
S11332B027E017E005C027E09CE3492E02C0212F38
S11332C0412C560184E0A80EB11CF6016081718185
S11332D082819381042DA3010E9415226C01F9813E
S11332E0FC87F0FF02C0F3FF06C091FC06C092FE0B
S11332F006C000E205C00DE203C00BE201C000E01D
S11333008C858C7019F001115AC29BC297FE10C0B3
S11333104C0CFC85F4FF04C08A81813309F44A947F
S1133320141474F528E0241578F588E0482E2CC090
S113333096FC2AC0812F90E08C159D059CF03CEFF3
S1133340C3163FEFD30674F0892D8068982E0AC007
S1133350E2E0F0E0EC0FFD1FE10FF11D808180330E
S113336019F411501111F4CF97FE0EC04424439464
S1133370410E812F90E0C816D9062CF41C1904C004
S11333804424439401C010E097FE06C01C141D049D
S113339034F4C601019605C085E090E002C081E0E6
S11333A090E001110196112331F0212F30E02F5FBD
S11333B03F4F820F931F252D30E08217930714F49B
S11333C0581A01C0512C892D897049F4552039F0BF
S11333D0B70180E290E00E9403235A94F7CF0023C0
S11333E029F0B701802F90E00E94032393FC09C0C9
S11333F0552039F0B70180E390E00E9403235A94EA
S1133400F7CF97FE4CC04601D7FE02C0812C912C09
S1133410C60188199909F301E80FF91FFE87ED87A2
S1133420960124193109388B2F87012F10E011954B
S1133430019511093FEF8316930629F4B7018EE233
S113344090E00E940323C814D9044CF08F85988916
S11334508815990524F4ED85FE85818101C080E3FA
S1133460F1E08F1A91082D853E852F5F3F4F3E87EF
S11334702D87801691062CF0B70190E00E9403235B
S1133480D9CFC814D90441F49A81963320F49533E2
S113349019F43C8534FF81E3B70190E04EC08A8182
S11334A0813319F09C859F7E9C87B70190E00E9430
S11334B00323111105C094FC18C085E690E017C0E1
S11334C0B7018EE290E00E9403231E5F82E001E0D8
S11334D0080FF301E80FF11D8081B70190E00E940D
S11334E00323802F0113F3CFE6CF85E490E0B701E7
S11334F00E940323D7FC06C0C114D10441F4EC8517
S1133500E4FF05C0D194C194D1088DE201C08BE2DF
S1133510B70190E00E94032380E32AE0C216D1049D
S11335202CF08F5FFAE0CF1AD108F7CFB70190E003
S11335300E940323B701C601C0960E94032354C10D
S1133540833631F0833779F0833509F056C020C0D3
S1133550560132E0A30EB11CF6018081898301E09B
S113356010E0630112C05601F2E0AF0EB11CF60187
S1133570C080D18096FE03C0612F70E002C06FEF5F
S11335807FEFC6010E94F8228C01F92DFF7714C049
S1133590560122E0A20EB11CF601C080D18096FE35
S11335A003C0612F70E002C06FEF7FEFC6010E947D
S11335B0ED228C01F92DF0689F2EF3FD1AC0852DA4
S11335C090E008171907A8F4B70180E290E00E9480
S11335D003235A94F4CFF60197FC859197FE8191C9
S11335E06F01B70190E00E94032351105A940150D7
S11335F011090115110579F7F7C0843611F08936E0
S113360061F5560197FE09C024E0A20EB11CF60133
S113361060817181828193810AC0F2E0AF0EB11C96
S1133620F60160817181072E000C880B990BF92D2E
S1133630FF769F2E97FF09C09095809570956195B0
S11336407F4F8F4F9F4FF0689F2E2AE030E0A301F9
S11336500E947723C82EC6183FC0092D853721F450
S11336600F7E2AE030E01DC0097F8F3691F018F4F8
S1133670883559F0C3C0803719F0883711F0BEC0BF
S1133680006104FF09C0046007C094FE08C006601E
S113369006C028E030E005C020E130E002C020E1AF
S11336A032E0560107FF09C084E0A80EB11CF60100
S11336B0608171818281938108C0F2E0AF0EB11CF8
S11336C0F6016081718180E090E0A3010E9477237C
S11336D0C82EC6180F77902E96FE0BC0092D0E7FAC
S11336E0C11650F494FE0AC092FC08C0092D0E7E47
S11336F005C0DC2C092D03C0DC2C01C0D12E04FF35
S11337000DC0FE01EC0DF11D8081803311F4097EA2
S113371009C002FF06C0D394D39404C0802F8678D6
S113372009F0D39403FD11C000FF06C01C2DD5146D
S113373080F4150D1D190DC0D51458F4B70180E29D
S113374090E00E940323D394F7CFD51410F45D18AE
S113375001C0512C04FF10C0B70180E390E00E9427
S1133760032302FF17C001FD03C088E790E002C0F5
S113377088E590E0B7010CC0802F867859F001FFEE
S113378002C08BE201C080E207FD8DE2B70190E048
S11337900E940323C11638F4B70180E390E00E942D
S11337A003231150F7CFCA94F301EC0DF11D80816E
S11337B0B70190E00E940323C110F5CF15C0F4E0D7
S11337C0F51560F584E0581A93FE1FC0011127C057
S11337D02C8523FF2AC00AE411E0392D3071932E81
S11337E0F8018491811124C0552009F4E4CCB70177
S11337F080E290E00E9403235A94F6CFF701868179
S1133800978126C08FEF9FEF23C0B70180E290E03D
S11338100E9403235A945110F8CFD8CF512CB701EA
S1133820802F90E00E940323D3CF0EE411E0D5CF84
S113383091108052B70190E00E9403230F5F1F4F45
S1133840CFCF23E0251510F483E0BDCF512CC0CF9A
S11338506096E2E10C94CA205058BB27AA270E9424
S1133860441C0C94D51D0E94C71D38F00E94CE1D27
S113387020F039F49F3F19F426F40C94C41D0EF47F
S1133880E095E7FB0C94951DE92F0E94E61D58F383
S1133890BA17620773078407950720F079F4A6F531
S11338A00C94201E0EF4E0950B2EBA2FA02D0B01C4
S11338B0B90190010C01CA01A0011124FF27591B71
S11338C099F0593F50F4503E68F11A16F040A22F77
S11338D0232F342F4427585FF3CF469537952795E8
S11338E0A795F0405395C9F77EF41F16BA0B620BE7
S11338F0730B840BBAF09150A1F0FF0FBB1F661F2E
S1133900771F881FC2F70EC0BA0F621F731F841F70
S113391048F4879577956795B795F7959E3F08F096
S1133920B0CF9395880F08F09927EE0F9795879558
S113393008950E94AD1C0C94D51D0E94CE1D58F014
S11339400E94C71D40F029F45F3F29F00C94951D97
S113395051110C94211E0C94C41D0E94E61D68F3A1
S11339609923B1F3552391F3951B550BBB27AA2734
S113397062177307840738F09F5F5F4F220F331F6E
S1133980441FAA1FA9F335D00E2E3AF0E0E832D036
S113399091505040E695001CCAF72BD0FE2F29D039
S11339A0660F771F881FBB1F261737074807AB070B
S11339B0B0E809F0BB0B802DBF01FF2793585F4F80
S11339C03AF09E3F510578F00C94951D0C94211EFD
S11339D05F3FE4F3983ED4F3869577956795B79562
S11339E0F7959F5FC9F7880F911D9695879597F96D
S11339F00895E1E0660F771F881FBB1F62177307E6
S1133A008407BA0720F0621B730B840BBA0BEE1FFA
S1133A1088F7E09508950E94121D6894B1110C94E2
S1133A20211E08950E94EE1D88F09F5798F0B92F2B
S1133A309927B751B0F0E1F0660F771F881F991FDF
S1133A401AF0BA95C9F714C0B13091F00E94201E43
S1133A50B1E008950C94201E672F782F8827B85F53
S1133A6039F0B93FCCF3869577956795B395D9F737
S1133A703EF490958095709561957F4F8F4F9F4F41
S1133A800895E89409C097FB3EF49095809570954D
S1133A9061957F4F8F4F9F4F9923A9F0F92F96E996
S1133AA0BB279395F695879577956795B795F1110B
S1133AB0F8CFFAF4BB0F11F460FF1BC06F5F7F4FA8
S1133AC08F4F9F4F16C0882311F096E911C07723BA
S1133AD021F09EE8872F762F05C0662371F096E8C3
S1133AE0862F70E060E02AF09A95660F771F881F92
S1133AF0DAF7880F9695879597F908950E94081E1E
S1133B0090F09F3748F4911116F00C94211E60E058
S1133B1070E080E89FEB089526F41B16611D711D6B
S1133B20811D0C949B1D0C94B61D97F99F6780E82A
S1133B3070E060E00895882371F4772321F09850B1
S1133B40872B762F07C0662311F499270DC0905157
S1133B50862B70E060E02AF09A95660F771F881F25
S1133B60DAF7880F9695879597F908959F3F31F076
S1133B70915020F4879577956795B795880F911D97
S1133B809695879597F908959FEF80EC0895002402
S1133B900A941616170618060906089500240A94AE
S1133BA012161306140605060895092E0394000C34
S1133BB011F4882352F0BB0F40F4BF2B11F460FFC3
S1133BC004C06F5F7F4F8F4F9F4F089557FD9058EC
S1133BD0440F551F59F05F3F71F04795880F97FBCD
S1133BE0991F61F09F3F79F0879508951216130687
S1133BF01406551FF2CF4695F1DF08C016161706B6
S1133C001806991FF1CF86957105610508940895EA
S1133C100E94EE1DA0F0BEE7B91788F4BB279F38B9
S1133C2060F41616B11D672F782F8827985FF7CF99
S1133C30869577956795B11D93959639C8F3089540
S1133C40E894BB2766277727CB0197F908950E944C
S1133C50601F08F48FEF08950E94EE1DA8F19E578F
S1133C60B0F1985160F039F1983070F5092E992728
S1133C70660F771F881F991F0A94D1F71CC0BB27B2
S1133C80993F4CF4B111B1E0B62B672F782F8827F8
S1133C90985FB1F708C0869577956795B79508F44E
S1133CA0B1609395C1F7BB0F30F411F460FF03C00A
S1133CB06F5F7F4F8F4F3EF490958095709561951F
S1133CC07F4F8F4F9F4F089568940C94211E0C943E
S1133CD0201E0E947C1E0C94D51D0E94C71D38F026
S1133CE00E94CE1D20F0952311F00C94951D0C9488
S1133CF0C41D11240C94211E0E94E61D70F3959F8F
S1133D00C1F3950F50E0551F629FF001729FBB27CE
S1133D10F00DB11D639FAA27F00DB11DAA1F649F6A
S1133D206627B00DA11D661F829F2227B00DA11D1D
S1133D30621F739FB00DA11D621F839FA00D611DA3
S1133D40221F749F3327A00D611D231F849F600DC4
S1133D50211D822F762F6A2F11249F5750409AF0ED
S1133D60F1F088234AF0EE0FFF1FBB1F661F771F79
S1133D70881F91505040A9F79E3F510580F00C9444
S1133D80951D0C94211E5F3FE4F3983ED4F3869571
S1133D9077956795B795F795E7959F5FC1F7FE2BE4
S1133DA0880F911D9695879597F90895FA01EE0F5E
S1133DB0FF1F309621053105A1F16115710561F4EC
S1133DC08038BFE39B0749F168949038810561F01E
S1133DD08038BFEF9B0741F099234AF5FF3FE10587
S1133DE03105210519F1E8940894E795D901AA232E
S1133DF029F4AB2FBE2FF85FD0F310C0FF5F70F42F
S1133E00A695E0F7F73950F019F0FF3A38F49F77A8
S1133E109F930DD00F9007FC9058089546F00C9492
S1133E20C41D60E070E080E89FE308954FE79F774A
S1133E305F934F933F932F930E94F51F2F913F91D0
S1133E404F915F910E94691E0C942E1F29F416F065
S1133E500C94951D0C94201E0C94C41D0E94EE1D00
S1133E60A8F39638A0F707F80F92E8942BE33AEA00
S1133E7048EB5FE70E947F1E0F920F920F924DB79F
S1133E805EB70F920E943D20E8ECF0E00E94841F90
S1133E904F915F91EF91FF91E595EE1FFF1F49F060
S1133EA0FE57E0684427EE0F441FFA95E1F7419569
S1133EB0550B0E94B71F0F9007FE0C94AB1F08957B
S1133EC0990F0008550FAA0BE0E8FEEF1616170627
S1133ED0E807F907C0F012161306E407F50798F08F
S1133EE0621B730B840B950B39F40A2661F0232BA8
S1133EF0242B252B21F408950A2609F4A140A69524
S1133F008FEF811D811D0895DF93CF931F930F932E
S1133F10FF92EF92DF927B018C01689406C0DA2E47
S1133F20EF010E947C1EFE01E894A5912591359134
S1133F3045915591A6F3EF010E94441CFE0197019F
S1133F40A801DA9469F7DF90EF90FF900F911F9129
S1133F50CF91DF9108959B01AC0160E070E080E8AF
S1133F609FE30C94991C0C94951D0C94B61D0E940F
S1133F70EE1DD8F39923C9F3940F511DA3F3915067
S1133F80504094F059F0882332F0660F771F881F51
S1133F9091505040C1F79E3F51052CF7880F911D59
S1133FA09695879597F908955F3FACF0983E9CF0FD
S1133FB0BB27869577956795B79508F4B160939577
S1133FC0C1F7BB0F58F711F460FFE8CF6F5F7F4F65
S1133FD08F4F9F4FE3CF0C94211E16F00C94B61D07
S1133FE00C94C41D68940C94951D0E94EE1DA8F3B6
S1133FF09923C1F3AEF3DF93CF931F930F93FF92F3
S1134000C92FDD2788232AF02197660F771F881F81
S1134010DAF720E030E040E85FEB9FE3883920F0F6
S1134020803E38F021968F770E942D1CE0EFF0E05F
S113403004C00E942D1CEDE1F1E00E94841F8B015D
S1134040BE01EC01FB2E6F5771097595771F880B24
S1134050990B0E94431D28E132E741E35FE30E948C
S11340607C1EAF2D9801AE01FF900F911F91CF914F
S1134070DF910E94441C0C94D51DFA01DC01AA0FA7
S1134080BB1F9B01AC01BF5728F4222733274427C9
S1134090507820C0B75190F4AB2F00244695379543
S11340A02795011CA395D2F3002071F0220F331F32
S11340B0441FB395DAF30ED00C942C1C61307105B7
S11340C0A0E88A07B94630F49B01AC01662777273C
S11340D088279078309621F020833183428353835C
S11340E00895DB018F939F930E94A320BF91AF910A
S11340F0A29F800D911DA39F900DB29F900D11243E
S11341000895A1E21A2EAA1BBB1BFD010DC0AA1F14
S1134110BB1FEE1FFF1FA217B307E407F50720F02C
S1134120A21BB30BE40BF50B661F771F881F991FA7
S11341301A9469F760957095809590959B01AC01F0
S1134140BD01CF0108950E94E520A59F900DB49F65
S1134150900DA49F800D911D112408952F923F92DC
S11341604F925F926F927F928F929F92AF92BF9283
S1134170CF92DF92EF92FF920F931F93CF93DF932F
S1134180CDB7DEB7CA1BDB0B0FB6F894DEBF0FBE8C
S1134190CDBF09942A88398848885F846E847D84D9
S11341A08C849B84AA84B984C884DF80EE80FD80DB
S11341B00C811B81AA81B981CE0FD11D0FB6F89451
S11341C0DEBF0FBECDBFED010895A29FB001B39F26
S11341D0C001A39F700D811D1124911DB29F700D0C
S11341E0811D1124911D08950F931F93CF93DF9385
S11341F08230910510F482E090E0E0913702F09172
S1134200380220E030E0A0E0B0E0309719F14081BE
S113421051810281138148175907C8F08417950703
S113422069F4109731F012960C93129713961C931D
S113423027C0009337021093380222C0211531059C
S113424019F04217530718F49A01BD01EF01DF0179
S1134250F801DBCF21153105F9F0281B390B243087
S1134260310580F48A819B816115710521F0FB0180
S11342709383828304C09093380280933702FE01B3
S1134280329644C0FE01E20FF31F819391932250B2
S11342903109398328833AC020913502309136029E
S11342A0232B41F420911D0130911E0130933602DD
S11342B02093350220911B0130911C0121153105F9
S11342C041F42DB73EB740911F0150912001241BAA
S11342D0350BE0913502F0913602E217F307A0F4B2
S11342E02E1B3F0B2817390778F0AC014E5F5F4F48
S11342F02417350748F04E0F5F1F50933602409342
S113430035028193919302C0E0E0F0E0CF01DF91A8
S1134310CF911F910F910895CF93DF93009709F4E4
S113432081C0FC01329713821282A0913702B091AE
S11343303802109781F420813181820F931F2091DC
S11343403502309136022817390751F5F0933602B9
S1134350E093350267C0ED0120E030E0CE17DF07BF
S113436040F44A815B819E0141155105F1F0EA0157
S1134370F5CFD383C28340815181840F951FC81721
S1134380D90759F488819981840F951F02969183E6
S113439080838A819B81938382832115310529F44B
S11343A0F0933802E09337023DC0E901FB83EA83CE
S11343B049915991C40FD51FEC17FD0761F4808111
S11343C09181840F951F0296E901998388838281E4
S11343D093819B838A83E0E0F0E012968D919C9117
S11343E01397009719F0FD01DC01F7CF8D919C9193
S11343F011979D012E5F3F4F820F931F209135022D
S1134400309136022817390769F4309729F410924D
S113441038021092370202C013821282B09336021D
S1134420A0933502DF91CF910895283008F027E05A
S11344303327DA01990F311D87FD916000966105DC
S1134440710539F432602E5F3D9330E32A95E1F72C
S113445008959F3F30F080387105610509F03C5F95
S11344603C5F3D93913008F08068911DDF93CF93BA
S11344701F930F93FF92EF92192F987F9695E92F30
S113448096959695E90FFF27E455FE4F9927332714
S1134490EE24FF24A701E70105900894079428F46B
S11344A0360FE71EF81E491F511D660F771F881F20
S11344B0991F0694A1F70590079428F4E70EF81EB7
S11344C0491F561FC11D770F881F991F661F069429
S11344D0A1F70590079428F4F80E491F561FC71F2B
S11344E0D11D880F991F661F771F0694A1F70590A9
S11344F0079420F4490F561FC71FD81F990F661F32
S1134500771F881F0694A9F784911095177041F0BE
S1134510D695C79557954795F794E7941A95C1F79B
S1134520E2E5F1E0689415901591359165919591C6
S113453005907FE27395E118F10A430B560BC90B02
S1134540D009C0F7E10CF11E431F561FC91FD01D2F
S11345507EF4703311F48A95E6CFE894015030F07C
S1134560080F0AF40027021708F4202F2395022FBE
S11345707A3328F079E37D932A95E9F710C07D9387
S11345802A9589F606949795679537951795179404
S1134590E118F10A430B560BC90BD00998F0239587
S11345A07E9173957A3308F070E37C932013B8F707
S11345B07E9170617D9330F0839571E37D9370E318
S11345C02A95E1F71124EF90FF900F911F91CF915D
S11345D0DF91992787FD90950895FC01059061501E
S11345E070400110D8F7809590958E0F9F1F089505
S11345F0FC016150704001900110D8F780959095AE
S11346008E0F9F1F08950F931F93CF93DF93FB018A
S1134610238121FD03C08FEF9FEF2CC022FF16C022
S113462046815781248135814217530744F4A08180
S1134630B1819D012F5F3F4F318320838C9326816D
S113464037812F5F3F4F3783268314C08B01EC01E2
S1134650FB010084F185E02D0995892BE1F6D80151
S113466016968D919C911797019617969C938E930D
S11346701697CE01DF91CF911F910F910895A0E07D
S1134680B0E0E5E4F3E20C94BE20AE014B5F5F4F73
S1134690FA0161917191AF0180913B0290913C02CA
S11346A00E94AF18E2E00C94DA20AEE0B0E0EBE553
S11346B0F3E20C94BC200D891E8986E08C831A8356
S11346C009838FEF9FE79E838D83AE01475E5F4F23
S11346D06F89788DCE0101960E94AF18EF81F8851D
S11346E0E00FF11F10822E96E4E00C94D820FA011A
S11346F0AA27283051F1203181F1E8946F936E7F1D
S11347006E5F7F4F8F4F9F4FAF4FB1E03ED0B4E00D
S11347103CD0670F781F891F9A1FA11D680F791F4E
S11347208A1F911DA11D6A0F711D811D911DA11D5F
S113473020D009F468943F912AE0269F112430196F
S1134740305D3193DEF6CF010895462F4770405D0A
S11347504193B3E00FD0C9F7F6CF462F4F70405DB9
S11347604A3318F0495D31FD4052419302D0A9F714
S1134770EACFB4E0A6959795879577956795BA950E
S1134780C9F700976105710508959B01AC010A2ED4
S113479006945795479537952795BA95C9F7620FAB
S11147A0731F841F951FA01D0895F894FFCF6A
S11347AE1F020103030000000200000000650F0059
S11347BE000000180C0410C080206000003F02208E
S11347CE006C6566745F73656E736F72203D202591
S11347DE2E3033660D0A2072696768745F73656ED6
S11147EE736F72203D20252E3034660D0A00B4
S9030000FC
