:100000000C94E5000C9402010C9402010C94020182
:100010000C9451090C947A090C94A3090C94CC0902
:100020000C9402010C9432080C945B080C94840824
:100030000C94FF080C94AD080C94D6080C94280975
:100040000C94B7070C94E0070C9409080C94020177
:100050000C9402010C9402010C9402010C94020114
:100060000C9402010C9402010C9402010C94020104
:100070000C9402010C9402010C940201CA06CD06F4
:10008000D006D306DC06D606D906DF06E206E5066C
:10009000E806EB06EE06F106F406F706FA06FD069C
:1000A0000007BD0BC00BC30BC60BCF0BC90BCC0B92
:1000B000D20BD50BD80BDB0BDE0BE10BE40BE70B04
:1000C000EA0BED0BF00BF30B6E616E00696E6600D0
:1000D00000407A10F35A00A0724E18090010A5D4FF
:1000E000E80000E87648170000E40B54020000CA5C
:1000F0009A3B000000E1F5050000809698000000A2
:1001000040420F000000A086010000001027000000
:100110000000E803000000006400000000000A0086
:10012000000000000100000000002C76D888DC6789
:100130004F0823DFC1DFAE59E1B1B796E5E3E453E1
:10014000C63AE651997696E8E6C28426EB898C9BFE
:1001500062ED407C6FFCEFBC9C9F40F2BAA56FA59E
:10016000F490055A2AF75C936B6CF9676DC11BFC20
:10017000E0E40D47FEF520E6B500D0ED902E03003B
:10018000943577050080841E080000204E0A000088
:1001900000C80C333333330F986E12831141EF8D47
:1001A0002114893BE65516CFFEE6DB18D1844B3887
:1001B0001BF77C1D901DA4BBE424203284725E22B8
:1001C0008100C9F124ECA1E53D2711241FBECFEF2A
:1001D000D8E0DEBFCDBF11E0A0E0B1E0EAE3F4E398
:1001E00002C005900D92A231B107D9F721E0A2E13A
:1001F000B1E001C01D92A83FB207E1F70E9474036D
:100200000C941B1A0C9400000E94E1040C94390118
:1002100083E00E940307882361F061E082E00E948E
:10022000490660E070E080E490E40E943A0280E0D9
:1002300015C080E00E9403078111EFCF81E00E948A
:100240000307882369F061E082E00E94490660E0CC
:1002500070E080E490E40E943A0281E00C94120382
:10026000089546E950E060E070E080E890E40C9486
:10027000C7010E9408010E943101FBCF2BEB3AE13C
:1002800041E55DE30E94381508954F925F926F92A9
:100290007F928F929F92AF92BF92CF92DF92EF9216
:1002A000FF920F931F93CF93DF9300D000D0CDB771
:1002B000DEB72BEB3AE141E55DE30E9438156B01B7
:1002C0007C0120E53DE847E95CE30E9482169B0142
:1002D000AC01C701B6010E94CB1420E030E040E839
:1002E00050E40E94CC144B015C010E94D9152B01F3
:1002F0003C012FE832EC45E75CE3C701B6010E9400
:100300008216A50194010E94CC140E94D9150E9466
:10031000AA1569837A838B839C831F921F921F92F5
:100320001F9288EC8F9381E08F9380E98F93C301B4
:10033000B2010E94AA157F936F93812CA12CB12C3E
:10034000C12C88ECE82EF12C00E911E029813A81DA
:1003500040E062E080E00E943A040FB6F894DEBF0D
:100360000FBECDBF0F900F900F900F90DF91CF91E8
:100370001F910F91FF90EF90DF90CF90BF90AF90C3
:100380009F908F907F906F905F904F9008954F92C5
:100390005F926F927F928F929F92AF92BF92CF9215
:1003A000DF92EF92FF920F931F938A012BEB3AE1BA
:1003B00041E55DE30E9438156B017C0120E53DE8D5
:1003C00047E95CE30E9482169B01AC01C701B601BC
:1003D0000E94CB1420E030E040E850E40E94CC14AE
:1003E0002B013C010E94D9154B015C012FE832EC36
:1003F00045E75CE3C701B6010E948216A3019201A2
:100400000E94CC140E94D9150E94AA152B013C0110
:100410001F921F921F921F9288EC8F931F930F932E
:10042000C501B4010E94AA157F936F93812CA12C62
:10043000B12CC12C88ECE82EF12C920140E062E056
:1004400081E00E943A048DB79EB709960FB6F894E2
:100450009EBF0FBE8DBF1F910F91FF90EF90DF9059
:10046000CF90BF90AF909F908F907F906F905F9054
:100470004F9008954F925F926F927F928F929F92CA
:10048000AF92BF92CF92DF92EF92FF920F931F93A2
:100490002BEB3AE141E55DE30E9438156B017C01ED
:1004A00020E53DE847E95CE30E9482169B01AC0130
:1004B000C701B6010E94CB1420E030E040E850E4D0
:1004C0000E94CC142B013C010E94D9154B015C0108
:1004D0002FE832EC45E75CE3C701B6010E948216C3
:1004E000A30192010E94CC140E94D9150E94AA1562
:1004F0002B013C011F921F921F921F9288EC8F9339
:100500001F928F93C501B4010E94AA157F936F9328
:1005100088248394A12CB12CC12C88ECE82EF12CDA
:1005200008EC10E0920141E062E080E00E943A04B1
:100530008DB79EB709960FB6F8949EBF0FBE8DBFBC
:100540001F910F91FF90EF90DF90CF90BF90AF90F1
:100550009F908F907F906F905F904F9008958F92B3
:10056000AF92BF92CF92EF92FF920F931F93882387
:1005700041F11F921F921F9281E08F9380E98F9328
:1005800082E08F9388E58F931F9283E78F93812C6E
:10059000A12CB12CC12C90E9E92EFF24F39408E59D
:1005A00012E023E830E041E062E080E00E943A049B
:1005B0008DB79EB709960FB6F8949EBF0FBE8DBF3C
:1005C00028C01F921F921F9281E08F9380E98F9322
:1005D00082E08F9388E58F931F9282E88F9388241F
:1005E0008394A12CB12CC12C80E9E82EFF24F39434
:1005F00008E512E023E730E040E062E080E00E949E
:100600003A048DB79EB709960FB6F8949EBF0FBEF9
:100610008DBF1F910F91FF90EF90CF90BF90AF9043
:100620008F9008958F92AF92BF92CF92EF92FF92E8
:100630000F931F93882341F11F921F921F9281E015
:100640008F9380E98F931F9288EC8F931F928EE196
:100650008F9388248394A12CB12CC12C90E9E92E8E
:10066000FF24F39408EC10E02FEA30E041E062E070
:1006700080E00E943A048DB79EB709960FB6F894B1
:100680009EBF0FBE8DBF27C01F921F921F9281E099
:100690008F9380E98F931F9288EC8F931F928FEA3C
:1006A0008F9388248394A12CB12CC12C80E9E82E4F
:1006B000FF24F39408EC10E02EE130E041E062E02A
:1006C00080E00E943A048DB79EB709960FB6F89461
:1006D0009EBF0FBE8DBF1F910F91FF90EF90CF90E7
:1006E000BF90AF908F9008950E94B5070E94A70712
:1006F0000E94040180E090E008952F923F924F9273
:100700005F926F927F928F929F92AF92BF92CF92A1
:10071000DF92EF92FF920F931F93DF93CF93CDB7AA
:10072000DEB7582E962E442E39013C2CC98CDA8C1B
:100730002B8C81E0681739F1681728F092E069176F
:1007400009F085C049C080E061E00E94860580E034
:10075000B7010E944F0580E0642DA3019801032D8D
:10076000EE24E394EDEBCE2EE1E0DE2E0E94BD05FB
:10077000552009F06CC000D00F92EDB7FEB7118282
:10078000B382A28223C081E061E00E94860581E0FD
:10079000B6010E944F0581E0682D4D895E892F8941
:1007A000388D022DEE24E3947DEBC72E71E0D72E19
:1007B0000E94BD05552009F04AC000D00F92EDB748
:1007C000FEB791828C8D9D8D938382830E946E06ED
:1007D0000F900F900F903BC082E061E00E94860571
:1007E00080E0B7010E944F0581E0B6010E944F05ED
:1007F00080E0642DA3019801032DEE24E3949DEB8A
:10080000C92E91E0D92E0E94BD0581E0682D4D8949
:100810005E892F89388D022D0E94BD055520B9F4BF
:1008200000D000D00F92ADB7BEB71196EDB7FEB7AE
:100830009182FD01B282A1828C8D9D8D94838383F0
:100840000E946E060F900F900F900F900F90CF9117
:10085000DF911F910F91FF90EF90DF90CF90BF90AD
:10086000AF909F908F907F906F905F904F903F9050
:100870002F9008956F927F928F929F92AF92BF9226
:10088000CF92DF92EF92FF920F931F93DF93CF935C
:10089000CDB7DEB7942E7C2DD50149895A89AB8816
:1008A000BC88CD88DE889F89813009F457C08130AB
:1008B000B8F1823009F076C0613091F0613020F0FB
:1008C000623009F06FC015C080E060E00E948605CC
:1008D00080E0B7010E944F0580E0692DA8011DC08E
:1008E00081E060E00E94860581E0B6010E944F052C
:1008F00011C082E060E00E94860580E0B7010E949E
:100900004F0581E0B6010E944F0580E0692DA801E6
:100910000E94380581E0682DA5010E94380542C07B
:10092000EDB7FEB739970FB6F894FEBF0FBEEDBF17
:100930006DB67EB60894611C711C52834183F3012D
:10094000B382A282D582C4829683888D998D908746
:10095000878380E0492DC72E5D011AC0EDB7FEB731
:1009600039970FB6F894FEBF0FBEEDBFADB7BEB757
:10097000119652834183FD01B382A282D582C48243
:1009800096831086178281E0492DC72EAA24BB24A6
:100990000E947D038DB79EB709960FB6F8949EBF4F
:1009A0000FBE8DBFCF91DF911F910F91FF90EF9000
:1009B000DF90CF90BF90AF909F908F907F906F907F
:1009C00008950E94370B81E08093BC01E6E8F1E0D6
:1009D00011921192118210823296118210823296F7
:1009E0001182108232961182108232961182108208
:1009F00032961182108232961182108232961182C2
:100A000010823296118210823296118210823296B2
:100A100011821082329611821082369611921192B2
:100A2000119210823296119211921192119211929A
:100A30001192119211821082329611821082329696
:100A40001182108232961182108276971182108262
:100A50003296118210821092BB011092BA0110924C
:100A6000BC0187E061E00E94BC0687E091E0089548
:100A7000EF92FF920F931F93182F062F7A0160E0D9
:100A80000E948605812F602F0E947105812FB7017A
:100A90000E949B051F910F91FF90EF900895482FA2
:100AA00081E08093BC01CB0123E0693E720710F026
:100AB00088EE93E0413071F0413018F0423071F42B
:100AC00005C0909391018093900108C0909391018B
:100AD0008093900190939301809392011092BC01B6
:100AE0000895982F81E08093BC01913051F09130AE
:100AF00018F0923041F403C06093A90104C06093E0
:100B0000A9016093AA011092BC010895982F81E079
:100B10008093BC01913051F0913018F0923041F443
:100B200003C06093860104C06093860160938701CF
:100B30001092BC010895482F81E08093BC01CB0145
:100B400021E06139720710F080E991E0413071F0E5
:100B5000413018F0423071F405C0909389018093C0
:100B6000880108C0909389018093880190938B013C
:100B700080938A011092BC0108958F929F92AF9248
:100B8000BF92CF92DF92EF92FF920F931F93CF937A
:100B9000DF93182FF62E5A014901E60161E00E9409
:100BA0008605812FB501A4010E94710B812F6F2D45
:100BB0000E947105812F602F0E945C0B812FB5016F
:100BC0000E94410BC114D10499F0113049F0113049
:100BD00018F0123069F406C018821092B80108C0EB
:100BE000198204C0188219821092B8011092B901BA
:100BF000D093BB01C093BA01EE20B9F582E191E038
:100C00009093BB018093BA01812FB4010E949B0590
:100C1000812F0E94220B113071F0113018F0123028
:100C200059F512C0109212011092B8018091120170
:100C30008823E1F321C0109213011092B901809131
:100C400013018823E1F318C01092120110921301CE
:100C50001092B8011092B901809112018823E1F33A
:100C6000809113018823C1F307C0812FB4010E9432
:100C70009B05812F0E94220BDF91CF911F910F9135
:100C8000FF90EF90DF90CF90BF90AF909F908F90AC
:100C900008950F931F93182F062F662349F460E0E1
:100CA00070E00E949B05812F60E070E00E94410B84
:100CB00081E08093BC01113051F0113018F01230F6
:100CC00041F403C00093A40104C00093A401009365
:100CD000A5011092BC011F910F910895CF92DF9250
:100CE000EF92FF920F931F93DF93CF93CDB7DEB7B1
:100CF0008B85813061F0813018F08230A1F511C010
:100D0000EC85FD858091BD018823E1F306C0EC856B
:100D1000FD858091BE018823E1F3309721F109958B
:100D200022C0CC84DD84EE84FF8400E010E0002348
:100D300051F48091BD01882331F0C114D10411F028
:100D4000F601099501E0112351F48091BE01882339
:100D500031F0E114F10411F0F701099511E00023DD
:100D600031F3112321F3CF91DF911F910F91FF9068
:100D7000EF90DF90CF900895E82FF0E0E331F10598
:100D800008F040C0E25CFF4FEE0FFF1F0590F491AA
:100D9000E02D09946093BF0108956093C001089508
:100DA0006093C10108956093C20108956093C301E7
:100DB00008956093C50108956093C40108956093F8
:100DC000C60108956093C70108956093C80108950E
:100DD0006093C90108956093CA0108956093CB019F
:100DE00008956093CC0108956093CD0108956093B8
:100DF000CE0108956093CF0108956093D0010895C6
:100E00006093CF0108951F93182F809115018823B7
:100E100041F080911C01882399F0109215011092E5
:100E20001C010E9438078093140186E191E061E083
:100E300040E028E230E00E94690781E080931501DC
:100E400090911401133018F0133079F409C0E12F98
:100E5000F0E0E050FF4F8081892341F081E006C03F
:100E600091FF03C0892F817001C080E01F91089518
:100E70000F931F9381E00E94AE0B813011F000E0D0
:100E800024C087E00E94C20A82E06AE00E94130B3D
:100E900082E062EB0E94130B18EC812F8A95F1F728
:100EA00082E060E00E94A70A082F812F8A95F1F75F
:100EB00082E060E00E94A70A1A95F1F787E00E949D
:100EC000C20A88E893E10197F1F7802F1F910F91F3
:100ED0000895EF92FF920F931F93CF93DF93EC014E
:100EE000F62EE42E890188E00E94AE0B813011F0CD
:100EF00081E026C084E090E00E947217FC01009718
:100F000011F482E01DC0F982F0FC1E8281E0E81637
:100F100019F48981846089838981886089831B832E
:100F20000A831D830C83D183C0831382128281E0E4
:100F300080935F01CF010E94680C10925F0180E0F6
:100F4000DF91CF911F910F91FF90EF9008950E9434
:100F5000F60B0E94090A0E94F5090E94D10C0E941A
:100F60006E0A0E94190C78940895000008951F924B
:100F70000F920FB60F9211242F933F934F935F93CD
:100F80006F937F938F939F93AF93BF93EF93FF9351
:100F9000E0913F01F0914001309709F00995FF91F0
:100FA000EF91BF91AF919F918F917F916F915F91E1
:100FB0004F913F912F910F900FBE0F901F9018955A
:100FC0001F920F920FB60F9211242F933F934F93BE
:100FD0005F936F937F938F939F93AF93BF93EF93A1
:100FE000FF93E0914101F0914201309709F009959A
:100FF000FF91EF91BF91AF919F918F917F916F91F1
:101000005F914F913F912F910F900FBE0F901F90C6
:1010100018951F920F920FB60F9211242F933F93A2
:101020004F935F936F937F938F939F93AF93BF93F0
:10103000EF93FF93E0914301F0914401309709F061
:101040000995FF91EF91BF91AF919F918F917F9102
:101050006F915F914F913F912F910F900FBE0F9025
:101060001F9018951F920F920FB60F9211242F9375
:101070003F934F935F936F937F938F939F93AF9320
:10108000BF93EF93FF93E0913101F09132013097DC
:1010900009F00995FF91EF91BF91AF919F918F91C9
:1010A0007F916F915F914F913F912F910F900FBE64
:1010B0000F901F9018951F920F920FB60F92112448
:1010C0002F933F934F935F936F937F938F939F9350
:1010D000AF93BF93EF93FF93E0913301F09134010D
:1010E000309709F00995FF91EF91BF91AF919F91D2
:1010F0008F917F916F915F914F913F912F910F90C1
:101100000FBE0F901F9018951F920F920FB60F925F
:1011100011242F933F934F935F936F937F938F93FC
:101120009F93AF93BF93EF93FF93E0913501F091BD
:101130003601309709F00995FF91EF91BF91AF917A
:101140009F918F917F916F915F914F913F912F91DF
:101150000F900FBE0F901F9018951F920F920FB611
:101160000F9211242F933F934F935F936F937F932D
:101170008F939F93AF93BF93EF93FF93E0913901C8
:10118000F0913A01309709F00995FF91EF91BF91E5
:10119000AF919F918F917F916F915F914F913F910F
:1011A0002F910F900FBE0F901F9018951F920F92C6
:1011B0000FB60F9211242F933F934F935F936F932A
:1011C0007F938F939F93AF93BF93EF93FF93E091A0
:1011D0003B01F0913C01309709F00995FF91EF91A7
:1011E000BF91AF919F918F917F916F915F914F913F
:1011F0003F912F910F900FBE0F901F9018951F9247
:101200000F920FB60F9211242F933F934F935F933A
:101210006F937F938F939F93AF93BF93EF93FF93BE
:10122000E0913701F0913801309709F00995FF916D
:10123000EF91BF91AF919F918F917F916F915F914E
:101240004F913F912F910F900FBE0F901F901895C7
:101250001F920F920FB60F9211242F933F934F932B
:101260005F936F937F938F939F93AF93BF93EF930E
:10127000FF93E0913D01F0913E01309709F009950F
:10128000FF91EF91BF91AF919F918F917F916F915E
:101290005F914F913F912F910F900FBE0F901F9034
:1012A00018951F920F920FB60F9211242F933F9310
:1012B0004F935F936F937F938F939F93AF93BF935E
:1012C000EF93FF93E0912701F0912801309709F007
:1012D0000995FF91EF91BF91AF919F918F917F9170
:1012E0006F915F914F913F912F910F900FBE0F9093
:1012F0001F9018951F920F920FB60F9211242F93E3
:101300003F934F935F936F937F938F939F93AF938D
:10131000BF93EF93FF93E0912901F0912A01309759
:1013200009F00995FF91EF91BF91AF919F918F9136
:101330007F916F915F914F913F912F910F900FBED1
:101340000F901F9018951F920F920FB60F921124B5
:101350002F933F934F935F936F937F938F939F93BD
:10136000AF93BF93EF93FF93E0912B01F0912C018A
:10137000309709F00995FF91EF91BF91AF919F913F
:101380008F917F916F915F914F913F912F910F902E
:101390000FBE0F901F9018951F920F920FB60F92CD
:1013A00011242F933F934F935F936F937F938F936A
:1013B0009F93AF93BF93EF93FF93E0912D01F09133
:1013C0002E01309709F00995FF91EF91BF91AF91F0
:1013D0009F918F917F916F915F914F913F912F914D
:1013E0000F900FBE0F901F90189580E10E94AE0BDA
:1013F000882361F4EFE1F1E01192119281E0EF3581
:10140000F807D1F780E161E00E94BC0680E191E03D
:10141000089580E00E94AE0B882351F4F8940E9456
:101420000B0D81E00E941B0A80E061E00E94BC0677
:1014300080E091E00895813049F0F894813020F106
:101440008230B1F0833009F045C017C02C9A80E893
:10145000809361001092610080E090E000000196AE
:1014600088329105D9F71092680010926B000895A8
:1014700080E88093610083E004C080E8809361008D
:1014800088E08093610028C080E090E00000019631
:101490002DE680369207D1F72C9880E090E000008E
:1014A00001962DE680369207D1F710927A008FEFE1
:1014B00080936400809168008160809368008091CF
:1014C0006B00846080936B00789483B7816083BFE6
:1014D00088950895823008F0789408950F931F93AB
:1014E0000E94370D80E066E27DE00E94B90A81E04B
:1014F0006EE17DE00E94B90A82E066E17DE00E9433
:10150000B90A86E06EE27DE00E94B90A0EE01DE0B5
:1015100083E0B8010E94B90A84E0B8010E94B90AC8
:1015200085E0B8010E94B90A87E0B8010E94B90AB3
:1015300082E061E00E94BC068FEF8093D50187E0D6
:101540000E94C20A82E091E01F910F9108951F93BB
:10155000162F0E94C20A82E00E94AE0B813011F069
:1015600080E005C01EBD0DB407FEFDCF8EB51F91F6
:101570000895E82FF0E0EE0FFF1FEF59FE4F718343
:10158000608308951F93182F82E00E94AE0B813074
:1015900009F047C0912F97708091D501981709F4F1
:1015A00040C09093D50185B1887F892B85B9933050
:1015B00011F1943028F4913051F0923090F40CC035
:1015C000953019F19530E0F0963021F50FC0E0919B
:1015D0006301F091640122C0E0916101F091620128
:1015E0001DC0E0916501F091660118C0E0916D01A8
:1015F000F0916E0113C0E0916701F09168010EC097
:10160000E0916901F0916A0109C0E0916B01F091EC
:101610006C0104C0E0916F01F0917001309709F006
:1016200009951F9108951F93162F0E94C20A82E008
:101630000E94AE0B813021F41EBD0DB407FEFDCF1C
:101640001F910895982F81E08093BC01913051F053
:10165000913018F0923041F403C01092A40104C0FC
:101660001092A4011092A5011092BC0108953A9A1B
:101670003B9A3C9A3D9A3E9A3F9A88B1837088B9CA
:101680000895982F81E08093BC01913071F09130E2
:1016900018F0923071F405C070939901609398012D
:1016A00008C0709399016093980170939B016093B7
:1016B0009A011092BC010895982F81E08093BC019B
:1016C000913051F0913018F0923041F403C06093A2
:1016D000A60104C06093A6016093A7011092BC010B
:1016E00008950F931F93CF93DF93EB018A0181300D
:1016F00001F1813018F0823061F50DC080919001C8
:1017000090919101892B11F080E01AC010929D01F7
:1017100010929C011EC08091900190919101892BA3
:1017200021F080E00E943E0D04C010929D011092B5
:101730009C018091920190919301892B31F081E07D
:10174000BE01A8010E943E0D04C010929F0110929C
:101750009E01DF91CF911F910F910895E82FF0E046
:10176000E331F10540F4EF5AFF4FEE0FFF1F0590F4
:10177000F491E02D099480E008958091BF010895CF
:101780008091C00108958091C10108958091C201A6
:1017900008958091C30108958091C50108958091B5
:1017A000C40108958091C60108958091C7010895EC
:1017B0008091C80108958091C90108958091CA015E
:1017C00008958091CB0108958091CC010895809176
:1017D000CD0108958091CE0108958091CF010895A3
:1017E0008091D00108958091D10108951092BF0198
:1017F0001092C0011092C4011092C1011092C30155
:101800001092C5011092C6011092C7011092C80132
:101810001092C9011092CA011092CB011092CC0112
:101820001092CD011092CE011092CF011092D001F2
:10183000089582E00E94AE0B882319F490E082E0C4
:1018400008951092EB011092EA011092ED011092AE
:10185000EC011092EF011092EE011092F101109242
:10186000F0011092F3011092F20180E991E090935F
:10187000D7018093D6019093D9018093D80190939A
:10188000DB018093DA019093DD018093DC0190937A
:10189000DF018093DE0184E398E09093E10180937F
:1018A000E0019093E3018093E2019093E50180933E
:1018B000E4019093E7018093E6019093E90180931E
:1018C000E80181E061E00E94BC0691E081E00895BA
:1018D000CF92DF92EF92FF920F931F93CF93DF93FC
:1018E000EC018091D201882339F4D093D401C093C4
:1018F000D3010E94F60C47C0C090D301D090D40110
:1019000000E010E0EE24FF2437C0A881B981FD017A
:1019100064817581F60140815181FA01848195814C
:101920009B01281B390B37FF0FC0861B970B958334
:101930008483DB82CA82012B29F4D093D401C09323
:10194000D30121C0F7010CC0F601828193812115DA
:10195000310549F4FD01158214829B838A83F601C7
:10196000D383C28310C0FD01358324830097B9F36C
:101970000F5F1F4F76016C018091D20190E0081734
:10198000190718F2ECCF8091D2018F5F8093D201BA
:10199000DF91CF911F910F91FF90EF90DF90CF904B
:1019A000089588E00E94AE0B8823B9F41092D2010A
:1019B0001092D4011092D30110925F011092600135
:1019C00080E16BEA7DE00E94FA0C0E94B20D0E9459
:1019D000F00C88E061E00E94BC0688E091E0089588
:1019E000EEE6F0E0808182608083089581E080935C
:1019F00060010895803218F020E030E00AC0E82F3E
:101A0000F0E0EE0FFF1FE15EFE4F20813181718318
:101A10006083C9010895249A2C9A089583E58CBDAA
:101A200081E08DBD8DE08A95F1F7089583E58CBD49
:101A30001DBC84EF91E00197F1F708958FE78CBD0D
:101A40001DBC84EF91E00197F1F7089583E58CBD0B
:101A500081E08DBD8DE08A95F1F7089583E58CBD19
:101A600081E08DBD84EF91E00197F1F70895259A0B
:101A70002698279A209A219A229A0895EF92FF9207
:101A80000F931F93CF93DF93EB01882321F08130D5
:101A900009F05AC02DC09A0140E050E0CA01B901D6
:101AA0000E94EF162091900130919101220F331F77
:101AB00040E050E00E94FF1679018A01A8019701D9
:101AC000220F331F441F551FCE01A0E0B0E0821744
:101AD0009307A407B50728F0F0929D01E0929C01BE
:101AE00033C0D695C795D0939D01C0939C012CC05F
:101AF0009A0140E050E0CA01B9010E94EF1620911E
:101B0000920130919301220F331F40E050E00E9478
:101B1000FF1679018A01A8019701220F331F441F84
:101B2000551FCE01A0E0B0E082179307A407B507C8
:101B300028F0F0929F01E0929E0106C0D695C795CD
:101B4000D0939F01C0939E01DF91CF911F910F9180
:101B5000FF90EF9008950E94BB0D0E94FB0D0E9424
:101B6000D40D089584B5826084BD85B5846085BD3B
:101B70008EE487BD089588E00E94AE0B882311F49F
:101B800084E0089580916001882311F483E0089532
:101B900080915F01882311F082E008950E9448102F
:101BA0008130E1F380E0089580917201813011F578
:101BB00080917B0190917C0120917D0130917E018B
:101BC000280F391F30937C0120937B0180917B018A
:101BD00090917C01885E93406CF08BB180588BB9FA
:101BE00080917B0190917C01885E934090937C0171
:101BF00080937B01089587E00E94AE0B813009F04D
:101C0000AAC08091900190919101892B09F1809156
:101C1000B4019091B5012091900130919101820F12
:101C2000931F9093B5018093B4018091B40190917A
:101C3000B501885E9340A4F08091B4019091B50104
:101C4000885E93409093B5018093B40141E009C050
:101C5000809188019091890190938D0180938C01EE
:101C600040E08091920190919301892B09F180913C
:101C7000B6019091B7012091920130919301820FAA
:101C8000931F9093B7018093B6018091B601909114
:101C9000B701885E9340A4F08091B6019091B7019E
:101CA000885E93409093B7018093B60161E009C0CC
:101CB00080918A0190918B0190938F0180938E0186
:101CC00060E0842F0E94AC0E8091B0019091B10130
:101CD00020918C0130918D01280F391F3093B10173
:101CE0002093B0018091B0019091B101885E934042
:101CF00014F440E00BC08091B0019091B101885E76
:101D000093409093B1018093B00141E08091B20182
:101D10009091B30120918E0130918F01280F391FCE
:101D20003093B3012093B2018091B2019091B3013D
:101D3000885E934014F460E00BC08091B2019091F2
:101D4000B301885E93409093B3018093B20161E048
:101D5000842F0E94F10E08958823F1F020918801CC
:101D60003091890180918C0190918D01281B390B54
:101D70001216130634F480918C0190918D01019616
:101D800007C0232B49F080918C0190918D01019720
:101D900090938D0180938C01662311F120918A012B
:101DA00030918B0180918E0190918F01281B390B0E
:101DB0001216130654F480918E0190918F010196B2
:101DC00090938F0180938E010895232B49F0809189
:101DD0008E0190918F01019790938F0180938E01D6
:101DE00008950F931F93182F062F8091BC0188230D
:101DF00009F0E7C08091A401882309F05AC08091BE
:101E00008C0190918D01892BE9F480918101837E71
:101E1000809381011092AD018091B801882309F46B
:101E20005DC06091A60180E00E944906E091BA0180
:101E3000F091BB01309709F451C081E0808310928A
:101E4000B8014CC080918601813041F480919801A5
:101E500090919901019711F411E002C01123F1F161
:101E6000E091AB01F0E0EC5FFE4F90918101937E39
:101E70008081892B809381018091A901882321F49D
:101E80008091AB018F5F03C08091AB018150809343
:101E9000AB018091AB0183708093AB0181E08093B3
:101EA000AD01809186018130C9F480E00E94F40F79
:101EB00015C090918101937E90938101E091AB01D7
:101EC000F0E0EC5FFE4F8081892B8093810182E0FE
:101ED0008093AD0110928D0110928C018091A5012B
:101EE000882309F059C080918E0190918F01892B30
:101EF000E9F4809181018F71809381011092AE018C
:101F00008091B901882309F45CC06091A70181E048
:101F10000E944906E091BA01F091BB01309709F4A3
:101F200050C081E081831092B9014BC0809187013C
:101F3000813041F480919A0190919B01019711F4B5
:101F400001E002C00023E9F1E091AC01F0E0E85FBC
:101F5000FE4F909181019F718081892B8093810137
:101F60008091AA01882321F48091AC018F5F03C086
:101F70008091AC0181508093AC018091AC01837061
:101F80008093AC0181E08093AE0180918701813024
:101F9000C1F40E94F40F15C0909181019F7190933C
:101FA0008101E091AC01F0E0E85FFE4F8081892B78
:101FB0008093810182E08093AE0110928F01109294
:101FC0008E018091AF01882331F481E891E0612F87
:101FD000402F0E94B61088B1837090918101892BA7
:101FE00088B91F910F910895882321F0813009F05D
:101FF0004EC027C08091980190919901892B49F09A
:102000008091980190919901019790939901809303
:1020100098018091B8018823D1F5209198013091E1
:10202000990180919C0190919D012817390779F5BC
:1020300080E060E070E00E949B0581E08093B80141
:10204000089580919A0190919B01892B49F080918C
:102050009A0190919B01019790939B0180939A0123
:102060008091B901882399F420919A0130919B01C4
:1020700080919E0190919F012817390741F481E0DA
:1020800060E070E00E949B0581E08093B9010895B3
:10209000FF920F931F93CF93DF938091D2018823F8
:1020A00009F459C00091D3011091D401F801C08105
:1020B000D1818C819D8101979D838C83181619068F
:1020C0000CF449C0898180FF05C08E81882311F4FA
:1020D00081E08E83898181FF03C0EF81F8850995B6
:1020E0008091D2018230A8F0F8018281938190938F
:1020F000D4018093D30113821282E0910000F09109
:10210000010084819581181619063CF0FF24F39490
:1021100005C01092D4011092D301FF248091D20106
:1021200081508093D2018091D201882311F40E94C2
:10213000B310898182FF08C08A819B819D838C8333
:10214000C8010E94680C08C0C8010E940A18898151
:102150008F7E898301C0FF248F2DDF91CF911F9146
:102160000F91FF900895109260010895FC018091F5
:10217000AD01823069F48091850191E089278093D7
:102180008501882309F03EC08081837E80833AC028
:1021900080918C0190918D01C397A4F56623D1F0B5
:1021A00020918C0130918D0180E690E0BC01269F4A
:1021B000C001279F900D369F900D1124880F892F05
:1021C000881F990B9093A1018093A00181E08093D7
:1021D000830118C0809183018823A1F08091A00120
:1021E0009091A10101979093A1018093A00180910A
:1021F000A0019091A101892B29F48081837E8083A5
:10220000109283018091AE01823069F48091840143
:1022100091E0892780938401882309F03EC0808162
:102220008F718083089580918E0190918F01C39763
:10223000A4F54423D1F020918E0130918F0180E6E6
:1022400090E0AC01249FC001259F900D349F900D1C
:102250001124880F892F881F990B9093A3018093D5
:10226000A20181E0809382010895809182018823F8
:10227000A1F08091A2019091A30101979093A301F5
:102280008093A2018091A2019091A301892B29F44E
:1022900080818F718083109282010895A0E1B0E067
:1022A000E4E5F1E10C942C177C011B016A01FC01AF
:1022B00017821682838181FF44C39E012F5F3F4FA7
:1022C0003901F7019381F10193FD859193FF81918C
:1022D0001F01882309F431C3853239F493FD8591B8
:1022E00093FF81911F01853239F4B70190E00E947C
:1022F000811956016501E5CF10E0512C912CFFE1C9
:10230000F915D8F08B3279F038F4803279F08332D5
:10231000A1F4F92DF0612EC08D3261F0803369F4A3
:10232000292D21602DC0392D3260932E892D846096
:10233000982E2AC0E92DE86015C097FC2DC020ED2D
:10234000280F2A3088F496FE06C03AE0139F200D2D
:102350001124122F19C08AE0589E200D1124522EEC
:10236000E92DE0629E2E10C08E3231F496FCE5C25B
:10237000F92DF0649F2E08C08C3621F4292D206899
:10238000922E02C0883641F4F10193FD859193FFAE
:1023900081911F018111B3CF9BEB980F933020F4F3
:1023A000992D9061805E07C09BE9980F933008F0EB
:1023B00066C1992D9F7E96FF16E09F73992E8536F4
:1023C00019F49064992E08C0863621F4392F3068AC
:1023D000932E02C01111115097FE07C01C3350F408
:1023E00044244394410E27E00BC0183038F027E016
:1023F00017E005C027E09CE3492E02C0212F412CA5
:10240000560184E0A80EB11CF601608171818281C1
:102410009381042DA3010E9493186C01F981FC871C
:10242000F0FF02C0F3FF06C091FC06C092FE06C09A
:1024300000E205C00DE203C00BE201C000E08C85A4
:102440008C7019F001115AC29BC297FE10C04C0C3F
:10245000FC85F4FF04C08A81813309F44A94141482
:1024600074F528E0241578F588E0482E2CC096FCF9
:102470002AC0812F90E08C159D059CF03CEFC3167F
:102480003FEFD30674F0892D8068982E0AC0E2E0F1
:10249000F0E0EC0FFD1FE10FF11D8081803319F496
:1024A00011501111F4CF97FE0EC044244394410EF5
:1024B000812F90E0C816D9062CF41C1904C04424BE
:1024C000439401C010E097FE06C01C141D0434F4B0
:1024D000C601019605C085E090E002C081E090E071
:1024E00001110196112331F0212F30E02F5F3F4F72
:1024F000820F931F252D30E08217930714F4581A8A
:1025000001C0512C892D897049F4552039F0B7014B
:1025100080E290E00E9481195A94F7CF002329F0BD
:10252000B701802F90E00E94811993FC09C05520CB
:1025300039F0B70180E390E00E9481195A94F7CFF7
:1025400097FE4CC04601D7FE02C0812C912CC601DB
:1025500088199909F301E80FF91FFE87ED879601A5
:1025600024193109388B2F87012F10E0119501951F
:1025700011093FEF8316930629F4B7018EE290E02C
:102580000E948119C814D9044CF08F859889881548
:10259000990524F4ED85FE85818101C080E3F1E099
:1025A0008F1A91082D853E852F5F3F4F3E872D87DF
:1025B000801691062CF0B70190E00E948119D9CFC6
:1025C000C814D90441F49A81963320F4953319F450
:1025D0003C8534FF81E3B70190E04EC08A818133AE
:1025E00019F09C859F7E9C87B70190E00E9481191D
:1025F000111105C094FC18C085E690E017C0B70122
:102600008EE290E00E9481191E5F82E001E0080FD7
:10261000F301E80FF11D8081B70190E00E9481195C
:10262000802F0113F3CFE6CF85E490E0B7010E943D
:102630008119D7FC06C0C114D10441F4EC85E4FF34
:1026400005C0D194C194D1088DE201C08BE2B701DD
:1026500090E00E94811980E32AE0C216D1042CF098
:102660008F5FFAE0CF1AD108F7CFB70190E00E9450
:102670008119B701C601C0960E94811954C18336E1
:1026800031F0833779F0833509F056C020C0560108
:1026900032E0A30EB11CF6018081898301E010E0D5
:1026A000630112C05601F2E0AF0EB11CF601C0800A
:1026B000D18096FE03C0612F70E002C06FEF7FEF04
:1026C000C6010E9476198C01F92DFF7714C05601BE
:1026D00022E0A20EB11CF601C080D18096FE03C09C
:1026E000612F70E002C06FEF7FEFC6010E946B198F
:1026F0008C01F92DF0689F2EF3FD1AC0852D90E016
:1027000008171907A8F4B70180E290E00E94811928
:102710005A94F4CFF60197FC859197FE81916F0151
:10272000B70190E00E94811951105A94015011098B
:102730000115110579F7F7C0843611F0893661F576
:10274000560197FE09C024E0A20EB11CF60160817B
:102750007181828193810AC0F2E0AF0EB11CF60153
:1027600060817181072E000C880B990BF92DFF7683
:102770009F2E97FF09C090958095709561957F4F2A
:102780008F4F9F4FF0689F2E2AE030E0A3010E94F8
:10279000BD19C82EC6183FC0092D853721F40F7EFC
:1027A0002AE030E01DC0097F8F3691F018F488359B
:1027B00059F0C3C0803719F0883711F0BEC00061EE
:1027C00004FF09C0046007C094FE08C0066006C08C
:1027D00028E030E005C020E130E002C020E132E036
:1027E000560107FF09C084E0A80EB11CF601608104
:1027F00071818281938108C0F2E0AF0EB11CF601B5
:102800006081718180E090E0A3010E94BD19C82E13
:10281000C6180F77902E96FE0BC0092D0E7FC1169D
:1028200050F494FE0AC092FC08C0092D0E7E05C02B
:10283000DC2C092D03C0DC2C01C0D12E04FF0DC0FF
:10284000FE01EC0DF11D8081803311F4097E09C079
:1028500002FF06C0D394D39404C0802F867809F079
:10286000D39403FD11C000FF06C01C2DD51480F4C5
:10287000150D1D190DC0D51458F4B70180E290E074
:102880000E948119D394F7CFD51410F45D1801C0BC
:10289000512C04FF10C0B70180E390E00E94811921
:1028A00002FF17C001FD03C088E790E002C088E581
:1028B00090E0B7010CC0802F867859F001FF02C06C
:1028C0008BE201C080E207FD8DE2B70190E00E943B
:1028D0008119C11638F4B70180E390E00E94811994
:1028E0001150F7CFCA94F301EC0DF11D8081B701AF
:1028F00090E00E948119C110F5CF15C0F4E0F515E4
:1029000060F584E0581A93FE1FC0011127C02C8582
:1029100023FF2AC008EC10E0392D3071932EF80106
:102920008491811124C0552009F4E4CCB70180E2E0
:1029300090E00E9481195A94F6CFF7018681978121
:1029400026C08FEF9FEF23C0B70180E290E00E9486
:1029500081195A945110F8CFD8CF512CB701802F3C
:1029600090E00E948119D3CF0CEC10E0D5CF9110EC
:102970008052B70190E00E9481190F5F1F4FCFCFA7
:1029800023E0251510F483E0BDCF512CC0CF609615
:10299000E2E10C9448175058BB27AA270E94E31481
:1029A0000C9430160E94221638F00E94291620F04E
:1029B00039F49F3F19F426F40C941F160EF4E09599
:1029C000E7FB0C94F015E92F0E94411658F3BA1753
:1029D000620773078407950720F079F4A6F50C9435
:1029E0007B160EF4E0950B2EBA2FA02D0B01B9012A
:1029F00090010C01CA01A0011124FF27591B99F075
:102A0000593F50F4503E68F11A16F040A22F232F80
:102A1000342F4427585FF3CF469537952795A795D0
:102A2000F0405395C9F77EF41F16BA0B620B730B77
:102A3000840BBAF09150A1F0FF0FBB1F661F771FE8
:102A4000881FC2F70EC0BA0F621F731F841F48F49D
:102A5000879577956795B795F7959E3F08F0B0CF26
:102A60009395880F08F09927EE0F9795879508950D
:102A70000E944C150C9430160E94291658F00E94A2
:102A8000221640F029F45F3F29F00C94F015511103
:102A90000C947C160C941F160E94411668F399231F
:102AA000B1F3552391F3951B550BBB27AA2762174A
:102AB0007307840738F09F5F5F4F220F331F441F57
:102AC000AA1FA9F335D00E2E3AF0E0E832D091508B
:102AD0005040E695001CCAF72BD0FE2F29D0660F78
:102AE000771F881FBB1F261737074807AB07B0E8BB
:102AF00009F0BB0B802DBF01FF2793585F4F3AF0C1
:102B00009E3F510578F00C94F0150C947C165F3FB5
:102B1000E4F3983ED4F3869577956795B795F79546
:102B20009F5FC9F7880F911D9695879597F908952E
:102B3000E1E0660F771F881FBB1F621773078407CA
:102B4000BA0720F0621B730B840BBA0BEE1F88F7D9
:102B5000E09508950E94491688F09F5798F0B92F84
:102B60009927B751B0F0E1F0660F771F881F991FC2
:102B70001AF0BA95C9F714C0B13091F00E947B16D3
:102B8000B1E008950C947B16672F782F8827B85FE3
:102B900039F0B93FCCF3869577956795B395D9F71A
:102BA0003EF490958095709561957F4F8F4F9F4F24
:102BB00008950E94631690F09F3748F4911116F023
:102BC0000C947C1660E070E080E89FEB089526F49A
:102BD0001B16611D711D811D0C94F6150C941116A8
:102BE00097F99F6780E870E060E00895882371F4AA
:102BF000772321F09850872B762F07C0662311F496
:102C000099270DC09051862B70E060E02AF09A95CC
:102C1000660F771F881FDAF7880F9695879597F9C3
:102C200008959F3F31F0915020F4879577956795EF
:102C3000B795880F911D9695879597F908959FEF01
:102C400080EC089500240A94161617061806090643
:102C5000089500240A941216130614060506089512
:102C6000092E0394000C11F4882352F0BB0F40F49A
:102C7000BF2B11F460FF04C06F5F7F4F8F4F9F4FDA
:102C8000089557FD9058440F551F59F05F3F71F05C
:102C90004795880F97FB991F61F09F3F79F08795C3
:102CA0000895121613061406551FF2CF4695F1DF4C
:102CB00008C0161617061806991FF1CF86957105DC
:102CC0006105089408950E944916A0F0BEE7B9175F
:102CD00088F4BB279F3860F41616B11D672F782F34
:102CE0008827985FF7CF869577956795B11D93955F
:102CF0009639C8F30895E894BB2766277727CB0158
:102D000097F908950E9495160C9430160E94221689
:102D100038F00E94291620F0952311F00C94F0153C
:102D20000C941F1611240C947C160E94411670F30B
:102D3000959FC1F3950F50E0551F629FF001729F60
:102D4000BB27F00DB11D639FAA27F00DB11DAA1F6F
:102D5000649F6627B00DA11D661F829F2227B00DBC
:102D6000A11D621F739FB00DA11D621F839FA00D47
:102D7000611D221F749F3327A00D611D231F849F97
:102D8000600D211D822F762F6A2F11249F575040EE
:102D90009AF0F1F088234AF0EE0FFF1FBB1F661F69
:102DA000771F881F91505040A9F79E3F510580F032
:102DB0000C94F0150C947C165F3FE4F3983ED4F32A
:102DC000869577956795B795F795E7959F5FC1F7D6
:102DD000FE2B880F911D9695879597F90895DB0135
:102DE0008F939F930E942117BF91AF91A29F800D57
:102DF000911DA39F900DB29F900D11240895A1E203
:102E00001A2EAA1BBB1BFD010DC0AA1FBB1FEE1F64
:102E1000FF1FA217B307E407F50720F0A21BB30BAF
:102E2000E40BF50B661F771F881F991F1A9469F72B
:102E300060957095809590959B01AC01BD01CF0187
:102E400008950E946317A59F900DB49F900DA49FB5
:102E5000800D911D112408952F923F924F925F9201
:102E60006F927F928F929F92AF92BF92CF92DF929A
:102E7000EF92FF920F931F93CF93DF93CDB7DEB7FF
:102E8000CA1BDB0B0FB6F894DEBF0FBECDBF099493
:102E90002A88398848885F846E847D848C849B84EA
:102EA000AA84B984C884DF80EE80FD800C811B81F8
:102EB000AA81B981CE0FD11D0FB6F894DEBF0FBE27
:102EC000CDBFED010895A29FB001B39FC001A39FA4
:102ED000700D811D1124911DB29F700D811D112453
:102EE000911D08950F931F93CF93DF938230910527
:102EF00010F482E090E0E091F601F091F70120E01B
:102F000030E0A0E0B0E0309719F1408151810281BA
:102F1000138148175907C8F08417950769F410976B
:102F200031F012960C93129713961C9327C00093BE
:102F3000F6011093F70122C02115310519F042174F
:102F4000530718F49A01BD01EF01DF01F801DBCF4F
:102F500021153105F9F0281B390B2430310580F497
:102F60008A819B816115710521F0FB019383828326
:102F700004C09093F7018093F601FE01329644C09D
:102F8000FE01E20FF31F819391932250310939839F
:102F900028833AC02091F4013091F501232B41F4AC
:102FA00020910E0130910F013093F5012093F4012F
:102FB00020910C0130910D012115310541F42DB7FF
:102FC0003EB74091100150911101241B350BE09147
:102FD000F401F091F501E217F307A0F42E1B3F0B6B
:102FE0002817390778F0AC014E5F5F4F241735077B
:102FF00048F04E0F5F1F5093F5014093F401819309
:10300000919302C0E0E0F0E0CF01DF91CF911F91FA
:103010000F910895CF93DF93009709F481C0FC01CD
:10302000329713821282A091F601B091F7011097A6
:1030300081F420813181820F931F2091F40130911E
:10304000F5012817390751F5F093F501E093F401E4
:1030500067C0ED0120E030E0CE17DF0740F44A8181
:103060005B819E0141155105F1F0EA01F5CFD38353
:10307000C28340815181840F951FC817D90759F425
:1030800088819981840F951F0296918380838A811C
:103090009B81938382832115310529F4F093F701F5
:1030A000E093F6013DC0E901FB83EA834991599120
:1030B000C40FD51FEC17FD0761F480819181840F47
:1030C000951F0296E90199838883828193819B836E
:1030D0008A83E0E0F0E012968D919C91139700971F
:1030E00019F0FD01DC01F7CF8D919C9111979D01A5
:1030F0002E5F3F4F820F931F2091F4013091F50115
:103100002817390769F4309729F41092F7011092C3
:10311000F60102C013821282B093F501A093F4016C
:10312000DF91CF910895283008F027E03327DA01A6
:10313000990F311D87FD916000966105710539F485
:1031400032602E5F3D9330E32A95E1F708959F3F6B
:1031500030F080387105610509F03C5F3C5F3D93BC
:10316000913008F08068911DDF93CF931F930F93E8
:10317000FF92EF92192F987F9695E92F9695969545
:10318000E90FFF27E65DFE4F99273327EE24FF2442
:10319000A701E70105900894079428F4360FE71E6D
:1031A000F81E491F511D660F771F881F991F06942F
:1031B000A1F70590079428F4E70EF81E491F561F43
:1031C000C11D770F881F991F661F0694A1F70590F0
:1031D000079428F4F80E491F561FC71FD11D880FEA
:1031E000991F661F771F0694A1F70590079420F496
:1031F000490F561FC71FD81F990F661F771F881FBB
:103200000694A9F784911095177041F0D695C7954B
:1032100057954795F794E7941A95C1F7E0EDF0E0DC
:1032200068941590159135916591959105907FE27F
:103230007395E118F10A430B560BC90BD009C0F77F
:10324000E10CF11E431F561FC91FD01D7EF47033C1
:1032500011F48A95E6CFE894015030F0080F0AF493
:103260000027021708F4202F2395022F7A3328F025
:1032700079E37D932A95E9F710C07D932A9589F625
:10328000069497956795379517951794E118F10A65
:10329000430B560BC90BD00998F023957E9173957B
:1032A0007A3308F070E37C932013B8F77E91706155
:1032B0007D9330F0839571E37D9370E32A95E1F778
:1032C0001124EF90FF900F911F91CF91DF919927DB
:1032D00087FD90950895FC010590615070400110A4
:1032E000D8F7809590958E0F9F1F0895FC0161502F
:1032F000704001900110D8F7809590958E0F9F1F18
:1033000008950F931F93CF93DF93FB01238121FD3A
:1033100003C08FEF9FEF2CC022FF16C0468157815C
:10332000248135814217530744F4A081B1819D0166
:103330002F5F3F4F318320838C93268137812F5F0E
:103340003F4F3783268314C08B01EC01FB010084BF
:10335000F185E02D0995892BE1F6D80116968D911E
:103360009C911797019617969C938E931697CE0172
:10337000DF91CF911F910F910895FA01AA2728306C
:1033800051F1203181F1E8946F936E7F6E5F7F4F32
:103390008F4F9F4FAF4FB1E03ED0B4E03CD0670FAE
:1033A000781F891F9A1FA11D680F791F8A1F911D01
:1033B000A11D6A0F711D811D911DA11D20D009F451
:1033C00068943F912AE0269F11243019305D319393
:1033D000DEF6CF010895462F4770405D4193B3E07C
:1033E0000FD0C9F7F6CF462F4F70405D4A3318F023
:1033F000495D31FD4052419302D0A9F7EACFB4E0D4
:10340000A6959795879577956795BA95C9F700978B
:103410006105710508959B01AC010A2E069457952C
:10342000479537952795BA95C9F7620F731F841F83
:0A343000951FA01D0895F894FFCF2A
:10343A0002010303180C0410C08020600000F80188
:02344A00200060
:00000001FF
