S01700004345454E426F742D50726F6A6563742E73726563C9
S11300000C94E5000C9402010C9402010C9402017E
S11300100C947B080C94A4080C94CD080C94F6085A
S11300200C9402010C945C070C9485070C94AE07A5
S11300300C9429080C94D7070C9400080C945208CB
S11300400C94E1060C940A070C9433070C940201F7
S11300500C9402010C9402010C9402010C94020110
S11300600C9402010C9402010C9402010C94020100
S11300700C9402010C9402010C94020139063C0612
S11300803F0642064B06450648064E0651065406F0
S113009057065A065D0660066306660669066C0620
S11300A06F06C60AC90ACC0ACF0AD80AD20AD50AE8
S11300B0DB0ADE0AE10AE40AE70AEA0AED0AF00AC0
S11300C0F30AF60AF90AFC0A6E616E00696E6600AC
S11300D000407A10F35A00A0724E18090010A5D4FB
S11300E0E80000E87648170000E40B54020000CA58
S11300F09A3B000000E1F50500008096980000009E
S113010040420F000000A0860100000010270000FC
S11301100000E803000000006400000000000A0082
S1130120000000000100000000002C76D888DC6785
S11301304F0823DFC1DFAE59E1B1B796E5E3E453DD
S1130140C63AE651997696E8E6C28426EB898C9BFA
S113015062ED407C6FFCEFBC9C9F40F2BAA56FA59A
S1130160F490055A2AF75C936B6CF9676DC11BFC1C
S1130170E0E40D47FEF520E6B500D0ED902E030037
S1130180943577050080841E080000204E0A000084
S113019000C80C333333330F986E12831141EF8D43
S11301A02114893BE65516CFFEE6DB18D1844B3883
S11301B01BF77C1D901DA4BBE424203284725E22B4
S11301C08100C9F124ECA1E53D2711241FBECFEF26
S11301D0D8E0DEBFCDBF11E0A0E0B1E0E6E9F2E394
S11301E002C005900D92AE30B107D9F721E0AEE020
S11301F0B1E001C01D92A93EB207E1F70E940803D5
S11302000C9449190C9400008F92AF92BF92CF9234
S1130210EF92FF920F931F931F921F921F9281E000
S11302208F9380E98F9382E08F9388E58F931F9259
S113023083E78F93812CA12CB12CC12C80E9E82E6B
S1130240FF24F39408E512E02AE730E041E062E09D
S113025080E00E94CE038DB79EB709960FB6F8943E
S11302609EBF0FBE8DBF1F910F91FF90EF90CF9057
S1130270BF90AF908F9008952BEB3AE141E55DE399
S11302800E94661408954F925F926F927F928F92AC
S11302909F92AF92BF92CF92DF92EF92FF920F9311
S11302A01F932BEB3AE141E55DE30E9466146B0179
S11302B07C0126EA3BE944EC5BE30E94B0159B0118
S11302C0AC01C701B6010E94F91320E030E040E020
S11302D050E40E94FA132B013C010E9407154B01C4
S11302E05C012FE632E143E85BE3C701B6010E94FB
S11302F0B015A30192010E94FA130E9407150E94EF
S1130300D8142B013C011F921F921F921F9288EC5C
S11303108F931F928F93C501B4010E94D8147F93C9
S11303206F93812CA12CB12CC12C88ECE82EF12CDC
S113033008EC10E0920140E062E080E00E94CE030D
S11303408DB79EB709960FB6F8949EBF0FBE8DBFAA
S11303501F910F91FF90EF90DF90CF90BF90AF90DF
S11303609F908F907F906F905F904F9008954F92E1
S11303705F926F927F928F929F92AF92BF92CF9231
S1130380DF92EF92FF920F931F93CF93DF9300D0EE
S113039000D0CDB7DEB72BEB3AE141E55DE30E9437
S11303A066146B017C012CEB34E743E95CE30E94A7
S11303B0B0159B01AC01C701B6010E94F91320E0FE
S11303C030E040E850E40E94FA134B015C010E94C3
S11303D007152B013C012FE632E143E85CE3C7013A
S11303E0B6010E94B015A50194010E94FA130E945F
S11303F007150E94D81469837A838B839C831F9288
S11304001F921F921F9288EC8F9381E08F9380E953
S11304108F93C301B2010E94D8147F936F93812CF0
S1130420A12CB12CC12C88ECE82EF12C00E911E0B0
S113043029813A8140E062E080E00E94CE030FB659
S1130440F894DEBF0FBECDBF0F900F900F900F90AA
S1130450DF91CF911F910F91FF90EF90DF90CF909C
S1130460BF90AF909F908F907F906F905F904F90D0
S11304700895CF93C0E0C23071F0C33089F0C13029
S113048029F060E070E080EC90E40EC060E070E081
S113049080E491E409C060E070E080E991E404C084
S11304A060E070E080EC91E40E94B70180E29EE499
S11304B00E947206CF5FC430F1F6CF9108958F92F7
S11304C0AF92BF92CF92EF92FF920F931F93882324
S11304D051F01F910F91FF90EF90CF90BF90AF908C
S11304E08F900C9404011F921F921F9281E08F93AE
S11304F080E98F9382E08F9388E58F931F928AE738
S11305008F9388248394A12CB12CC12C80E9E82EEC
S1130510FF24F39408E512E023E730E040E062E0D2
S113052080E00E94CE038DB79EB709960FB6F8946B
S11305309EBF0FBE8DBF1F910F91FF90EF90CF9084
S1130540BF90AF908F900895CF93DF93C0E0D0E039
S113055060E070E080E492E40E94B70180E00E94D1
S11305605F02C230D10531F460E070E080E492E4CF
S11305700E94B7012196C330D10551F7DF91CF9185
S1130580089560E070E080E492E40E94B70180E0A6
S11305900E945F0260E070E080E792E40E94B7018D
S11305A080E00E945F0260E070E080EC91E40E94D1
S11305B0B7010E94040160E070E080EC91E40E94C5
S11305C0B7010E94040160E070E080EC91E40E94B5
S11305D0B70180E00E945F0260E070E080EC91E48B
S11305E00E94B70180E00E945F0260E070E080E456
S11305F092E40E94B70180E00E945F0260E070E034
S113060088ED92E40C94B7010E9475040C94A40242
S11306100E94DF060E94D1060E94040380E090E05D
S113062008952F923F924F925F926F927F928F9292
S11306309F92AF92BF92CF92DF92EF92FF920F936D
S11306401F93DF93CF93CDB7DEB7582E962E442E4B
S113065039013C2CC98CDA8C2B8C81E0681739F178
S1130660681728F092E0691709F085C049C080E056
S113067061E00E941A0580E0B7010E94E30480E073
S1130680642DA3019801032DEE24E394EEEACE2E0B
S1130690E1E0DE2E0E945105552009F06CC000D027
S11306A00F92EDB7FEB71182B382A28223C081E01C
S11306B061E00E941A0581E0B6010E94E30481E032
S11306C0682D4D895E892F89388D022DEE24E3949F
S11306D07EEAC72E71E0D72E0E945105552009F0FD
S11306E04AC000D00F92EDB7FEB791828C8D9D8DDC
S11306F0938382830E94DD050F900F900F903BC07F
S113070082E061E00E941A0580E0B7010E94E304E0
S113071081E0B6010E94E30480E0642DA301980106
S1130720032DEE24E3949EEAC92E91E0D92E0E9473
S1130730510581E0682D4D895E892F89388D022D00
S11307400E9451055520B9F400D000D00F92ADB7E6
S1130750BEB71196EDB7FEB79182FD01B282A182B8
S11307608C8D9D8D948383830E94DD050F900F9063
S11307700F900F900F90CF91DF911F910F91FF90E9
S1130780EF90DF90CF90BF90AF909F908F907F902D
S11307906F905F904F903F902F9008956F927F924B
S11307A08F929F92AF92BF92CF92DF92EF92FF927D
S11307B00F931F93DF93CF93CDB7DEB7942E7C2D89
S11307C0D50149895A89AB88BC88CD88DE889F8940
S11307D0813009F457C08130B8F1823009F076C015
S11307E0613091F0613020F0623009F06FC015C0C3
S11307F080E060E00E941A0580E0B7010E94E304F3
S113080080E0692DA8011DC081E060E00E941A0506
S113081081E0B6010E94E30411C082E060E00E941E
S11308201A0580E0B7010E94E30481E0B6010E944A
S1130830E30480E0692DA8010E94CC0481E0682DC6
S1130840A5010E94CC0442C0EDB7FEB739970FB69C
S1130850F894FEBF0FBEEDBF6DB67EB60894611C62
S1130860711C52834183F301B382A282D582C48274
S11308709683888D998D9087878380E0492DC72E34
S11308805D011AC0EDB7FEB739970FB6F894FEBFF5
S11308900FBEEDBFADB7BEB7119652834183FD01C4
S11308A0B382A282D582C48296831086178281E0A5
S11308B0492DC72EAA24BB240E9411038DB79EB7CD
S11308C009960FB6F8949EBF0FBE8DBFCF91DF91EE
S11308D01F910F91FF90EF90DF90CF90BF90AF905A
S11308E09F908F907F906F9008950E94400A81E0BE
S11308F08093AD01E7E7F1E0119211921182108229
S113090032961182108232961182108232961182AE
S1130910108232961182108232961182108232969F
S113092011821082329611821082329611821082C4
S1130930329611821082329611821082329611827E
S1130940108236961192119211921082329611925F
S1130950119211921192119211921192118210829C
S1130960329611821082329611821082329611824E
S11309701082769711821082329611821082109220
S1130980AC011092AB011092AD0187E061E00E94CE
S11309902B0687E091E00895EF92FF920F931F9347
S11309A0182F062F7A0160E00E941A05812F602F0C
S11309B00E940505812FB7010E942F051F910F91F9
S11309C0FF90EF900895482F81E08093AD01CB0113
S11309D023E0693E720710F088EE93E0413071F035
S11309E0413018F0423071F405C090938201809335
S11309F0810108C0909382018093810190938401C6
S1130A00809383011092AD010895982F81E0809323
S1130A10AD01913051F0913018F0923041F403C09F
S1130A2060939A0104C060939A0160939B011092B1
S1130A30AD010895982F81E08093AD01913051F07C
S1130A40913018F0923041F403C06093770104C0F0
S1130A5060937701609378011092AD010895482F57
S1130A6081E08093AD01CB0121E06139720710F080
S1130A7080E991E0413071F0413018F0423071F476
S1130A8005C090937A018093790108C090937A010C
S1130A908093790190937C0180937B011092AD0146
S1130AA008958F929F92AF92BF92CF92DF92EF926E
S1130AB0FF920F931F93CF93DF93182FF62E5A01B3
S1130AC04901E60161E00E941A05812FB501A401E4
S1130AD00E947A0A812F6F2D0E940505812F602FB5
S1130AE00E94650A812FB5010E944A0AC114D104EB
S1130AF099F0113049F0113018F0123069F406C041
S1130B0018821092A90108C0198204C0188219829F
S1130B101092A9011092AA01D093AC01C093AB0129
S1130B20EE20B9F58EE091E09093AC018093AB0197
S1130B30812FB4010E942F05812F0E942B0A1130AE
S1130B4071F0113018F0123059F512C010920E01E4
S1130B501092A90180910E018823E1F321C0109223
S1130B600F011092AA0180910F018823E1F318C0AC
S1130B7010920E0110920F011092A9011092AA0175
S1130B8080910E018823E1F380910F018823C1F342
S1130B9007C0812FB4010E942F05812F0E942B0AC8
S1130BA0DF91CF911F910F91FF90EF90DF90CF9045
S1130BB0BF90AF909F908F900895CF92DF92EF9265
S1130BC0FF920F931F93DF93CF93CDB7DEB78B853F
S1130BD0813061F0813018F08230A1F511C0EC85CC
S1130BE0FD858091AE018823E1F306C0EC85FD8587
S1130BF08091AF018823E1F3309721F1099522C058
S1130C00CC84DD84EE84FF8400E010E0002351F402
S1130C108091AE01882331F0C114D10411F0F601A2
S1130C20099501E0112351F48091AF01882331F03B
S1130C30E114F10411F0F701099511E0002331F3F7
S1130C40112321F3CF91DF911F910F91FF90EF902A
S1130C50DF90CF900895E82FF0E0E331F10508F03C
S1130C6040C0E25CFF4FEE0FFF1F0590F491E02DB2
S1130C7009946093B00108956093B101089560935D
S1130C80B20108956093B30108956093B401089587
S1130C906093B60108956093B50108956093B70118
S1130CA008956093B80108956093B901089560931D
S1130CB0BA0108956093BB0108956093BC0108953F
S1130CC06093BD0108956093BE0108956093BF01D0
S1130CD008956093C00108956093C10108956093DD
S1130CE0C0010895DF93CF93CDB7DEB729970FB630
S1130CF0F894DEBF0FBECDBF9C01CE01019661E02A
S1130D0040E00E949306982F882319F48F8188234A
S1130D10E9F3892F29960FB6F894DEBF0FBECDBF35
S1130D20CF91DF910895EF92FF920F931F93CF938A
S1130D30DF93EC01F62EE42E890188E00E94B70AC5
S1130D40813011F081E026C084E090E00E94A0167A
S1130D50FC01009711F482E01DC0F982F0FC1E82B0
S1130D6081E0E81619F48981846089838981886027
S1130D7089831B830A831D830C83D183C0831382DD
S1130D80128281E080935001CF010E94710B109276
S1130D90500180E0DF91CF911F910F91FF90EF9070
S1130DA008950E94FF0A0E9433090E941F090E94AD
S1130DB0DA0B0E9498090E94220B7894089500008F
S1130DC008951F920F920FB60F9211242F933F9301
S1130DD04F935F936F937F938F939F93AF93BF933F
S1130DE0EF93FF93E0913001F0913101309709F0D6
S1130DF00995FF91EF91BF91AF919F918F917F9151
S1130E006F915F914F913F912F910F900FBE0F9073
S1130E101F9018951F920F920FB60F9211242F93C3
S1130E203F934F935F936F937F938F939F93AF936E
S1130E30BF93EF93FF93E0913201F0913301309728
S1130E4009F00995FF91EF91BF91AF919F918F9117
S1130E507F916F915F914F913F912F910F900FBEB2
S1130E600F901F9018951F920F920FB60F92112496
S1130E702F933F934F935F936F937F938F939F939E
S1130E80AF93BF93EF93FF93E0913401F091350159
S1130E90309709F00995FF91EF91BF91AF919F9120
S1130EA08F917F916F915F914F913F912F910F900F
S1130EB00FBE0F901F9018951F920F920FB60F92AE
S1130EC011242F933F934F935F936F937F938F934B
S1130ED09F93AF93BF93EF93FF93E0912201F0911F
S1130EE02301309709F00995FF91EF91BF91AF91DC
S1130EF09F918F917F916F915F914F913F912F912E
S1130F000F900FBE0F901F9018951F920F920FB65F
S1130F100F9211242F933F934F935F936F937F937B
S1130F208F939F93AF93BF93EF93FF93E09124012B
S1130F30F0912501309709F00995FF91EF91BF9148
S1130F40AF919F918F917F916F915F914F913F915D
S1130F502F910F900FBE0F901F9018951F920F9214
S1130F600FB60F9211242F933F934F935F936F9378
S1130F707F938F939F93AF93BF93EF93FF93E091EE
S1130F802601F0912701309709F00995FF91EF911F
S1130F90BF91AF919F918F917F916F915F914F918D
S1130FA03F912F910F900FBE0F901F9018951F9295
S1130FB00F920FB60F9211242F933F934F935F9389
S1130FC06F937F938F939F93AF93BF93EF93FF930D
S1130FD0E0912A01F0912B01309709F00995FF91D6
S1130FE0EF91BF91AF919F918F917F916F915F919D
S1130FF04F913F912F910F900FBE0F901F90189516
S11310001F920F920FB60F9211242F933F934F9379
S11310105F936F937F938F939F93AF93BF93EF935C
S1131020FF93E0912C01F0912D01309709F009957F
S1131030FF91EF91BF91AF919F918F917F916F91AC
S11310405F914F913F912F910F900FBE0F901F9082
S113105018951F920F920FB60F9211242F933F935E
S11310604F935F936F937F938F939F93AF93BF93AC
S1131070EF93FF93E0912801F0912901309709F053
S11310800995FF91EF91BF91AF919F918F917F91BE
S11310906F915F914F913F912F910F900FBE0F90E1
S11310A01F9018951F920F920FB60F9211242F9331
S11310B03F934F935F936F937F938F939F93AF93DC
S11310C0BF93EF93FF93E0912E01F0912F0130979E
S11310D009F00995FF91EF91BF91AF919F918F9185
S11310E07F916F915F914F913F912F910F900FBE20
S11310F00F901F9018951F920F920FB60F92112404
S11311002F933F934F935F936F937F938F939F930B
S1131110AF93BF93EF93FF93E0911801F0911901FE
S1131120309709F00995FF91EF91BF91AF919F918D
S11311308F917F916F915F914F913F912F910F907C
S11311400FBE0F901F9018951F920F920FB60F921B
S113115011242F933F934F935F936F937F938F93B8
S11311609F93AF93BF93EF93FF93E0911A01F09194
S11311701B01309709F00995FF91EF91BF91AF9151
S11311809F918F917F916F915F914F913F912F919B
S11311900F900FBE0F901F9018951F920F920FB6CD
S11311A00F9211242F933F934F935F936F937F93E9
S11311B08F939F93AF93BF93EF93FF93E0911C01A1
S11311C0F0911D01309709F00995FF91EF91BF91BE
S11311D0AF919F918F917F916F915F914F913F91CB
S11311E02F910F900FBE0F901F9018951F920F9282
S11311F00FB60F9211242F933F934F935F936F93E6
S11312007F938F939F93AF93BF93EF93FF93E0915B
S11312101E01F0911F01309709F00995FF91EF919C
S1131220BF91AF919F918F917F916F915F914F91FA
S11312303F912F910F900FBE0F901F90189580E152
S11312400E94B70A882361F4E0E1F1E0119211925F
S113125081E0E035F807D1F780E161E00E942B06D8
S113126080E191E0089580E00E94B70A882351F458
S1131270F8940E94140C81E00E94450980E061E02A
S11312800E942B0680E091E00895813049F0F894A3
S1131290813020F18230B1F0833009F045C017C0AD
S11312A02C9A80E8809361001092610080E090E0C5
S11312B00000019688329105D9F7109268001092C7
S11312C06B00089580E88093610083E004C080E8A7
S11312D08093610088E08093610028C080E090E002
S11312E0000001962DE680369207D1F72C9880E015
S11312F090E0000001962DE680369207D1F7109217
S11313007A008FEF809364008091680081608093FD
S1131310680080916B00846080936B00789483B73D
S1131320816083BF88950895823008F07894089589
S11313300F931F930E94400C80E06FE27CE00E94B8
S1131340D10981E067E27CE00E94D10982E06FE18B
S11313507CE00E94D10986E067E37CE00E94D10929
S113136007E11CE083E0B8010E94D10984E0B801E0
S11313700E94D10985E0B8010E94D10987E0B80133
S11313800E94D10982E061E00E942B068FEF8093D6
S1131390C60187E00E94DA0982E091E01F910F9173
S11313A00895E82FF0E0EE0FFF1FEE5AFE4F718311
S11313B0608308951F93182F82E00E94B70A81303A
S11313C009F047C0912F97708091C601981709F4CE
S11313D040C09093C60185B1887F892B85B993302D
S11313E011F1943028F4913051F0923090F40CC003
S11313F0953019F19530E0F0963021F50FC0E09169
S11314005401F091550122C0E0915201F091530131
S11314101DC0E0915601F091570118C0E0915E01A2
S1131420F0915F0113C0E0915801F09159010EC091
S1131430E0915A01F0915B0109C0E0915C01F091E7
S11314405D0104C0E0916001F0916101309709F001
S113145009951F910895982F81E08093AD019130F3
S113146051F0913018F0923041F403C0109295017C
S113147004C010929501109296011092AD01089546
S11314803A9A3B9A3C9A3D9A3E9A3F9A88B1837025
S113149088B90895982F81E08093AD01913071F05F
S11314A0913018F0923071F405C070938A01609302
S11314B0890108C070938A016093890170938C013B
S11314C060938B011092AD010895982F81E0809371
S11314D0AD01913051F0913018F0923041F403C0D5
S11314E06093970104C060939701609398011092F0
S11314F0AD0108950F931F93CF93DF93EB018A01FE
S1131500813001F1813018F0823061F50DC0809195
S1131510810190918201892B11F080E01AC0109210
S11315208E0110928D011EC08091810190918201E3
S1131530892B21F080E00E94470C04C010928E0198
S113154010928D018091830190918401892B31F057
S113155081E0BE01A8010E94470C04C010929001D2
S113156010928F01DF91CF911F910F910895E82F71
S1131570F0E0E331F10540F4EF5AFF4FEE0FFF1FA7
S11315800590F491E02D099480E008958091B001D4
S113159008958091B10108958091B20108958091D8
S11315A0B30108958091B40108958091B60108951E
S11315B08091B50108958091B70108958091B80193
S11315C008958091B90108958091BA010895809198
S11315D0BB0108958091BC0108958091BD010895D7
S11315E08091BE0108958091BF0108958091C0014A
S11315F008958091C10108958091C20108951092C7
S1131600B0011092B1011092B5011092B201109282
S1131610B4011092B6011092B7011092B801109261
S1131620B9011092BA011092BB011092BC01109240
S1131630BD011092BE011092BF011092C001109220
S1131640C101089582E00E94B70A882319F490E04A
S113165082E008951092DC011092DB011092DE0109
S11316601092DD011092E0011092DF011092E2016C
S11316701092E1011092E4011092E30180E991E0FB
S11316809093C8018093C7019093CA018093C901C4
S11316909093CC018093CB019093CE018093CD01A4
S11316A09093D0018093CF0184E398E09093D2018A
S11316B08093D1019093D4018093D3019093D60168
S11316C08093D5019093D8018093D7019093DA0148
S11316D08093D90181E061E00E942B0691E081E0D2
S11316E00895CF92DF92EF92FF920F931F93CF93BF
S11316F0DF93EC018091C301882339F4D093C501B1
S1131700C093C4010E94FF0B47C0C090C401D09095
S1131710C50100E010E0EE24FF2437C0A881B981A0
S1131720FD0164817581F60140815181FA01848152
S113173095819B01281B390B37FF0FC0861B970B24
S113174095838483DB82CA82012B29F4D093C5015B
S1131750C093C40121C0F7010CC0F60182819381BA
S11317602115310549F4FD01158214829B838A8376
S1131770F601D383C28310C0FD013583248300970F
S1131780B9F30F5F1F4F76016C018091C30190E0A4
S11317900817190718F2ECCF8091C3018F5F80936B
S11317A0C301DF91CF911F910F91FF90EF90DF90D4
S11317B0CF90089588E00E94B70A8823B9F4109264
S11317C0C3011092C5011092C401109250011092ED
S11317D0510180E164EB7CE00E94030C0E94BB0C8D
S11317E00E94F90B88E061E00E942B0688E091E0FA
S11317F00895EEE6F0E0808182608083089581E0C0
S1131800809351010895803218F020E030E00AC03E
S1131810E82FF0E0EE0FFF1FE05FFE4F20813181E3
S113182071836083C9010895249A2C9A089583E5ED
S11318308CBD81E08DBD8DE08A95F1F7089583E537
S11318408CBD1DBC84EF91E00197F1F708958FE7FB
S11318508CBD1DBC84EF91E00197F1F7089583E5F9
S11318608CBD81E08DBD8DE08A95F1F7089583E507
S11318708CBD81E08DBD84EF91E00197F1F708956F
S1131880259A2698279A209A219A229A0895EF92C7
S1131890FF920F931F93CF93DF93EB01882321F0E3
S11318A0813009F05AC02DC09A0140E050E0CA01CD
S11318B0B9010E941D162091810130918201220FED
S11318C0331F40E050E00E942D1679018A01A801DF
S11318D09701220F331F441F551FCE01A0E0B0E033
S11318E082179307A407B50728F0F0928E01E092BF
S11318F08D0133C0D695C795D0938E01C0938D01C9
S11319002CC09A0140E050E0CA01B9010E941D16A2
S11319102091830130918401220F331F40E050E075
S11319200E942D1679018A01A8019701220F331F05
S1131930441F551FCE01A0E0B0E082179307A4070F
S1131940B50728F0F0929001E0928F0106C0D69579
S1131950C795D0939001C0938F01DF91CF911F91D0
S11319600F91FF90EF9008950E94C40C0E94040D03
S11319700E94DD0C089584B5826084BD85B58460C1
S113198085BD8EE487BD089588E00E94B70A882348
S113199011F484E0089580915101882311F483E0C7
S11319A0089580915001882311F082E008950E94E7
S11319B0760F8130E1F380E00895809163018130F6
S11319C011F580916C0190916D0120916E0130911F
S11319D06F01280F391F30936D0120936C018091A2
S11319E06C0190916D01885E93406CF08BB18058CE
S11319F08BB980916C0190916D01885E93409093B6
S1131A006D0180936C01089587E00E94B70A8130CC
S1131A1009F0AAC08091810190918201892B09F17A
S1131A208091A5019091A6012091810130918201BC
S1131A30820F931F9093A6018093A5018091A50125
S1131A409091A601885E9340A4F08091A5019091A5
S1131A50A601885E93409093A6018093A50141E07E
S1131A6009C08091790190917A0190937E018093CD
S1131A707D0140E08091830190918401892B09F1DB
S1131A808091A7019091A801209183013091840154
S1131A90820F931F9093A8018093A7018091A701BF
S1131AA09091A801885E9340A4F08091A701909141
S1131AB0A801885E93409093A8018093A70161E0F8
S1131AC009C080917B0190917C0190938001809367
S1131AD07F0160E0842F0E94B50D8091A101909157
S1131AE0A20120917D0130917E01280F391F30938E
S1131AF0A2012093A1018091A1019091A201885E8D
S1131B00934014F440E00BC08091A1019091A20194
S1131B10885E93409093A2018093A10141E080915B
S1131B20A3019091A40120917F0130918001280F9D
S1131B30391F3093A4012093A3018091A3019091B4
S1131B40A401885E934014F460E00BC08091A3016B
S1131B509091A401885E93409093A4018093A30183
S1131B6061E0842F0E94FA0D08958823F1F02091FA
S1131B70790130917A0180917D0190917E01281B39
S1131B80390B1216130634F480917D0190917E0175
S1131B90019607C0232B49F080917D0190917E012D
S1131BA0019790937E0180937D01662311F120912A
S1131BB07B0130917C0180917F0190918001281BF1
S1131BC0390B1216130654F480917F019091800111
S1131BD001969093800180937F010895232B49F00F
S1131BE080917F019091800101979093800180936F
S1131BF07F0108950F931F93182F062F8091AD0135
S1131C00882309F0E7C080919501882309F05AC020
S1131C1080917D0190917E01892BE9F4809172017C
S1131C20837E8093720110929E018091A901882382
S1131C3009F45DC06091970180E00E94510FE0912A
S1131C40AB01F091AC01309709F451C081E080837D
S1131C501092A9014CC080917701813041F48091A8
S1131C60890190918A01019711F411E002C01123B6
S1131C70F1F1E0919C01F0E0E050FF4F909172018E
S1131C80937E8081892B8093720180919A018823AD
S1131C9021F480919C018F5F03C080919C0181504D
S1131CA080939C0180919C01837080939C0181E0CE
S1131CB080939E01809177018130C9F480E00E9475
S1131CC0FD0E15C090917201937E90937201E09184
S1131CD09C01F0E0E050FF4F8081892B80937201DA
S1131CE082E080939E0110927E0110927D0180918A
S1131CF09601882309F059C080917F019091800159
S1131D00892BE9F4809172018F7180937201109292
S1131D109F018091AA01882309F45CC06091980115
S1131D2081E00E94510FE091AB01F091AC0130973A
S1131D3009F450C081E081831092AA014BC08091C4
S1131D407801813041F480918B0190918C0101974D
S1131D5011F401E002C00023E9F1E0919D01F0E0FB
S1131D60EC5FFE4F909172019F718081892B80936B
S1131D70720180919B01882321F480919D018F5FE2
S1131D8003C080919D01815080939D0180919D01AC
S1131D90837080939D0181E080939F0180917801FD
S1131DA08130C1F40E94FD0E15C0909172019F71A3
S1131DB090937201E0919D01F0E0EC5FFE4F808111
S1131DC0892B8093720182E080939F01109280019D
S1131DD010927F018091A001882331F482E791E081
S1131DE0612F402F0E94E40F88B18370909172019B
S1131DF0892B88B91F910F910895882321F0813090
S1131E0009F04EC027C08091890190918A01892BE5
S1131E1049F08091890190918A01019790938A01F8
S1131E20809389018091A9018823D1F520918901AA
S1131E3030918A0180918D0190918E012817390784
S1131E4079F580E060E070E00E942F0581E08093E6
S1131E50A901089580918B0190918C01892B49F0FF
S1131E6080918B0190918C01019790938C018093C8
S1131E708B018091AA01882399F420918B013091E0
S1131E808C0180918F01909190012817390741F4BA
S1131E9081E060E070E00E942F0581E08093AA0158
S1131EA008950F931F93182F062F662349F460E0BB
S1131EB070E00E942F05812F60E070E00E944A0AC2
S1131EC081E08093AD01113051F0113018F01230DF
S1131ED041F403C00093950104C00093950100935D
S1131EE096011092AD011F910F910895FF920F93E7
S1131EF01F93CF93DF938091C301882309F459C0C2
S1131F000091C4011091C501F801C081D1818C8177
S1131F109D8101979D838C83181619060CF449C082
S1131F20898180FF05C08E81882311F481E08E832E
S1131F30898181FF03C0EF81F88509958091C301F0
S1131F408230A8F0F801828193819093C501809337
S1131F50C40113821282E0910000F0910100848197
S1131F609581181619063CF0FF24F39405C01092CD
S1131F70C5011092C401FF248091C3018150809354
S1131F80C3018091C301882311F40E94E10F898168
S1131F9082FF08C08A819B819D838C83C8010E9433
S1131FA0710B08C0C8010E94381789818F7E89830C
S1131FB001C0FF248F2DDF91CF911F910F91FF90CE
S1131FC00895109251010895FC0180919E01823080
S1131FD069F48091760191E08927809376018823C2
S1131FE009F03EC08081837E80833AC080917D0168
S1131FF090917E01C397A4F56623D1F020917D01D1
S113200030917E0180E690E0BC01269FC001279FAD
S1132010900D369F900D1124880F892F881F990BDE
S1132020909392018093910181E08093740118C090
S1132030809174018823A1F0809191019091920183
S113204001979093920180939101809191019091D5
S11320509201892B29F48081837E808310927401FC
S113206080919F01823069F48091750191E0892704
S113207080937501882309F03EC080818F7180832D
S1132080089580917F0190918001C397A4F5442322
S1132090D1F020917F013091800180E690E0AC0185
S11320A0249FC001259F900D349F900D1124880F0B
S11320B0892F881F990B909394018093930181E059
S11320C0809373010895809173018823A1F0809116
S11320D093019091940101979093940180939301BB
S11320E08091930190919401892B29F480818F71BF
S11320F08083109273010895A0E1B0E0E2E8F0E17A
S11321000C945A167C011B016A01FC011782168289
S1132110838181FF44C39E012F5F3F4F3901F70143
S11321209381F10193FD859193FF81911F01882390
S113213009F431C3853239F493FD859193FF81917C
S11321401F01853239F4B70190E00E94AF1856019F
S11321506501E5CF10E0512C912CFFE1F915D8F081
S11321608B3279F038F4803279F08332A1F4F92D8E
S1132170F0612EC08D3261F0803369F4292D216025
S11321802DC0392D3260932E892D8460982E2AC05B
S1132190E92DE86015C097FC2DC020ED280F2A30EA
S11321A088F496FE06C03AE0139F200D1124122FE6
S11321B019C08AE0589E200D1124522EE92DE062A8
S11321C09E2E10C08E3231F496FCE5C2F92DF064D7
S11321D09F2E08C08C3621F4292D2068922E02C02F
S11321E0883641F4F10193FD859193FF81911F019C
S11321F08111B3CF9BEB980F933020F4992D90610C
S1132200805E07C09BE9980F933008F066C1992D52
S11322109F7E96FF16E09F73992E853619F490647D
S1132220992E08C0863621F4392F3068932E02C0C7
S11322301111115097FE07C01C3350F444244394E9
S1132240410E27E00BC0183038F027E017E005C036
S113225027E09CE3492E02C0212F412C560184E043
S1132260A80EB11CF6016081718182819381042DD5
S1132270A3010E94C1176C01F981FC87F0FF02C021
S1132280F3FF06C091FC06C092FE06C000E205C042
S11322900DE203C00BE201C000E08C858C7019F0E4
S11322A001115AC29BC297FE10C04C0CFC85F4FF6E
S11322B004C08A81813309F44A94141474F528E023
S11322C0241578F588E0482E2CC096FC2AC0812F6E
S11322D090E08C159D059CF03CEFC3163FEFD306B0
S11322E074F0892D8068982E0AC0E2E0F0E0EC0FCB
S11322F0FD1FE10FF11D8081803319F4115011117C
S1132300F4CF97FE0EC044244394410E812F90E0F5
S1132310C816D9062CF41C1904C04424439401C0E3
S113232010E097FE06C01C141D0434F4C601019687
S113233005C085E090E002C081E090E001110196C3
S1132340112331F0212F30E02F5F3F4F820F931F75
S1132350252D30E08217930714F4581A01C0512C2C
S1132360892D897049F4552039F0B70180E290E055
S11323700E94AF185A94F7CF002329F0B701802F99
S113238090E00E94AF1893FC09C0552039F0B701C2
S113239080E390E00E94AF185A94F7CF97FE4CC0A8
S11323A04601D7FE02C0812C912CC60188199909D7
S11323B0F301E80FF91FFE87ED879601241931090F
S11323C0388B2F87012F10E01195019511093FEFEC
S11323D08316930629F4B7018EE290E00E94AF18A9
S11323E0C814D9044CF08F8598898815990524F46C
S11323F0ED85FE85818101C080E3F1E08F1A9108AB
S11324002D853E852F5F3F4F3E872D878016910691
S11324102CF0B70190E00E94AF18D9CFC814D904AA
S113242041F49A81963320F4953319F43C8534FFB2
S113243081E3B70190E04EC08A81813319F09C8515
S11324409F7E9C87B70190E00E94AF18111105C0D0
S113245094FC18C085E690E017C0B7018EE290E0C6
S11324600E94AF181E5F82E001E0080FF301E80F3D
S1132470F11D8081B70190E00E94AF18802F0113F5
S1132480F3CFE6CF85E490E0B7010E94AF18D7FC04
S113249006C0C114D10441F4EC85E4FF05C0D19415
S11324A0C194D1088DE201C08BE2B70190E00E9493
S11324B0AF1880E32AE0C216D1042CF08F5FFAE053
S11324C0CF1AD108F7CFB70190E00E94AF18B70137
S11324D0C601C0960E94AF1854C1833631F08337C9
S11324E079F0833509F056C020C0560132E0A30EBE
S11324F0B11CF6018081898301E010E0630112C000
S11325005601F2E0AF0EB11CF601C080D18096FEF8
S113251003C0612F70E002C06FEF7FEFC6010E941D
S1132520A4188C01F92DFF7714C0560122E0A20EE5
S1132530B11CF601C080D18096FE03C0612F70E00B
S113254002C06FEF7FEFC6010E9499188C01F92D2C
S1132550F0689F2EF3FD1AC0852D90E00817190727
S1132560A8F4B70180E290E00E94AF185A94F4CF27
S1132570F60197FC859197FE81916F01B70190E078
S11325800E94AF1851105A940150110901151105F8
S113259079F7F7C0843611F0893661F5560197FE54
S11325A009C024E0A20EB11CF60160817181828110
S11325B093810AC0F2E0AF0EB11CF6016081718113
S11325C0072E000C880B990BF92DFF769F2E97FF91
S11325D009C090958095709561957F4F8F4F9F4F5F
S11325E0F0689F2E2AE030E0A3010E94EB18C82E69
S11325F0C6183FC0092D853721F40F7E2AE030E04C
S11326001DC0097F8F3691F018F4883559F0C3C086
S1132610803719F0883711F0BEC0006104FF09C08B
S1132620046007C094FE08C0066006C028E030E0DD
S113263005C020E130E002C020E132E0560107FF8E
S113264009C084E0A80EB11CF60160817181828109
S1132650938108C0F2E0AF0EB11CF6016081718174
S113266080E090E0A3010E94EB18C82EC6180F77F3
S1132670902E96FE0BC0092D0E7FC11650F494FEC9
S11326800AC092FC08C0092D0E7E05C0DC2C092D61
S113269003C0DC2C01C0D12E04FF0DC0FE01EC0DE3
S11326A0F11D8081803311F4097E09C002FF06C048
S11326B0D394D39404C0802F867809F0D39403FD77
S11326C011C000FF06C01C2DD51480F4150D1D1972
S11326D00DC0D51458F4B70180E290E00E94AF1801
S11326E0D394F7CFD51410F45D1801C0512C04FF16
S11326F010C0B70180E390E00E94AF1802FF17C03A
S113270001FD03C088E790E002C088E590E0B701CE
S11327100CC0802F867859F001FF02C08BE201C003
S113272080E207FD8DE2B70190E00E94AF18C11668
S113273038F4B70180E390E00E94AF181150F7CF4E
S1132740CA94F301EC0DF11D8081B70190E00E9461
S1132750AF18C110F5CF15C0F4E0F51560F584E0AD
S1132760581A93FE1FC0011127C02C8523FF2AC0CD
S113277008EC10E0392D3071932EF8018491811109
S113278024C0552009F4E4CCB70180E290E00E9413
S1132790AF185A94F6CFF7018681978126C08FEF40
S11327A09FEF23C0B70180E290E00E94AF185A94D3
S11327B05110F8CFD8CF512CB701802F90E00E9450
S11327C0AF18D3CF0CEC10E0D5CF91108052B701E5
S11327D090E00E94AF180F5F1F4FCFCF23E0251565
S11327E010F483E0BDCF512CC0CF6096E2E10C948D
S11327F076165058BB27AA270E9411140C945E1514
S11328000E94501538F00E94571520F039F49F3F6C
S113281019F426F40C944D150EF4E095E7FB0C9492
S11328201E15E92F0E946F1558F3BA176207730734
S11328308407950720F079F4A6F50C94A9150EF4F5
S1132840E0950B2EBA2FA02D0B01B90190010C01BC
S1132850CA01A0011124FF27591B99F0593F50F4D4
S1132860503E68F11A16F040A22F232F342F44272C
S1132870585FF3CF469537952795A795F040539524
S1132880C9F77EF41F16BA0B620B730B840BBAF0F4
S11328909150A1F0FF0FBB1F661F771F881FC2F75F
S11328A00EC0BA0F621F731F841F48F48795779573
S11328B06795B795F7959E3F08F0B0CF9395880F2D
S11328C008F09927EE0F9795879508950E947A143A
S11328D00C945E150E94571558F00E94501540F054
S11328E029F45F3F29F00C941E1551110C94AA157C
S11328F00C944D150E946F1568F39923B1F3552379
S113290091F3951B550BBB27AA27621773078407FE
S113291038F09F5F5F4F220F331F441FAA1FA9F394
S113292035D00E2E3AF0E0E832D091505040E69582
S1132930001CCAF72BD0FE2F29D0660F771F881FE3
S1132940BB1F261737074807AB07B0E809F0BB0BD6
S1132950802DBF01FF2793585F4F3AF09E3F5105EA
S113296078F00C941E150C94AA155F3FE4F3983E7E
S1132970D4F3869577956795B795F7959F5FC9F7D3
S1132980880F911D9695879597F90895E1E0660F54
S1132990771F881FBB1F621773078407BA0720F0CD
S11329A0621B730B840BBA0BEE1F88F7E095089536
S11329B00E94771588F09F5798F0B92F9927B7513F
S11329C0B0F0E1F0660F771F881F991F1AF0BA95CF
S11329D0C9F714C0B13091F00E94A915B1E008956F
S11329E00C94A915672F782F8827B85F39F0B93F61
S11329F0CCF3869577956795B395D9F73EF4909582
S1132A008095709561957F4F8F4F9F4F08950E94D9
S1132A10911590F09F3748F4911116F00C94AA1573
S1132A2060E070E080E89FEB089526F41B16611DBA
S1132A30711D811D0C9424150C943F1597F99F6703
S1132A4080E870E060E00895882371F4772321F032
S1132A509850872B762F07C0662311F499270DC051
S1132A609051862B70E060E02AF09A95660F771FEC
S1132A70881FDAF7880F9695879597F908959F3FF1
S1132A8031F0915020F4879577956795B795880F25
S1132A90911D9695879597F908959FEF80EC089579
S1132AA000240A9416161706180609060895002429
S1132AB00A9412161306140605060895092E0394A3
S1132AC0000C11F4882352F0BB0F40F4BF2B11F417
S1132AD060FF04C06F5F7F4F8F4F9F4F089557FD76
S1132AE09058440F551F59F05F3F71F04795880F78
S1132AF097FB991F61F09F3F79F08795089512160F
S1132B0013061406551FF2CF4695F1DF08C01616BA
S1132B1017061806991FF1CF86957105610508946B
S1132B2008950E947715A0F0BEE7B91788F4BB2773
S1132B309F3860F41616B11D672F782F8827985F89
S1132B40F7CF869577956795B11D93959639C8F318
S1132B500895E894BB2766277727CB0197F9089552
S1132B600E94C3150C945E150E94501538F00E9403
S1132B70571520F0952311F00C941E150C944D1547
S1132B8011240C94AA150E946F1570F3959FC1F33C
S1132B90950F50E0551F629FF001729FBB27F00D07
S1132BA0B11D639FAA27F00DB11DAA1F649F66275C
S1132BB0B00DA11D661F829F2227B00DA11D621FAB
S1132BC0739FB00DA11D621F839FA00D611D221F65
S1132BD0749F3327A00D611D231F849F600D211D49
S1132BE0822F762F6A2F11249F5750409AF0F1F0CC
S1132BF088234AF0EE0FFF1FBB1F661F771F881F35
S1132C0091505040A9F79E3F510580F00C941E1539
S1132C100C94AA155F3FE4F3983ED4F38695779518
S1132C206795B795F795E7959F5FC1F7FE2B880FDA
S1132C30911D9695879597F90895DB018F939F933E
S1132C400E944F16BF91AF91A29F800D911DA39F2B
S1132C50900DB29F900D11240895A1E21A2EAA1B83
S1132C60BB1BFD010DC0AA1FBB1FEE1FFF1FA21738
S1132C70B307E407F50720F0A21BB30BE40BF50B35
S1132C80661F771F881F991F1A9469F760957095BE
S1132C90809590959B01AC01BD01CF0108950E94E0
S1132CA09116A59F900DB49F900DA49F800D911D2A
S1132CB0112408952F923F924F925F926F927F92C8
S1132CC08F929F92AF92BF92CF92DF92EF92FF9238
S1132CD00F931F93CF93DF93CDB7DEB7CA1BDB0BE4
S1132CE00FB6F894DEBF0FBECDBF09942A88398889
S1132CF048885F846E847D848C849B84AA84B98490
S1132D00C884DF80EE80FD800C811B81AA81B9819B
S1132D10CE0FD11D0FB6F894DEBF0FBECDBFED01AF
S1132D200895A29FB001B39FC001A39F700D811DA0
S1132D301124911DB29F700D811D1124911D0895C0
S1132D400F931F93CF93DF938230910510F482E0A9
S1132D5090E0E091E701F091E80120E030E0A0E0AC
S1132D60B0E0309719F140815181028113814817F5
S1132D705907C8F08417950769F4109731F0129633
S1132D800C93129713961C9327C00093E70110939A
S1132D90E80122C02115310519F04217530718F430
S1132DA09A01BD01EF01DF01F801DBCF21153105E7
S1132DB0F9F0281B390B2430310580F48A819B817A
S1132DC06115710521F0FB019383828304C0909304
S1132DD0E8018093E701FE01329644C0FE01E20F50
S1132DE0F31F8193919322503109398328833AC088
S1132DF02091E5013091E601232B41F420910A0151
S1132E0030910B013093E6012093E50120910801F4
S1132E10309109012115310541F42DB73EB7409198
S1132E200C0150910D01241B350BE091E501F0914B
S1132E30E601E217F307A0F42E1B3F0B281739070E
S1132E4078F0AC014E5F5F4F2417350748F04E0F02
S1132E505F1F5093E6014093E5018193919302C073
S1132E60E0E0F0E0CF01DF91CF911F910F91089541
S1132E70CF93DF93009709F481C0FC01329713824A
S1132E801282A091E701B091E801109781F42081AA
S1132E903181820F931F2091E5013091E6012817BB
S1132EA0390751F5F093E601E093E50167C0ED01C0
S1132EB020E030E0CE17DF0740F44A815B819E01B9
S1132EC041155105F1F0EA01F5CFD383C283408166
S1132ED05181840F951FC817D90759F488819981A6
S1132EE0840F951F0296918380838A819B819383AB
S1132EF082832115310529F4F093E801E093E70179
S1132F003DC0E901FB83EA8349915991C40FD51F60
S1132F10EC17FD0761F480819181840F951F02965F
S1132F20E90199838883828193819B838A83E0E08A
S1132F30F0E012968D919C911397009719F0FD0182
S1132F40DC01F7CF8D919C9111979D012E5F3F4F2E
S1132F50820F931F2091E5013091E601281739076C
S1132F6069F4309729F41092E8011092E70102C045
S1132F7013821282B093E601A093E501DF91CF9111
S1132F800895283008F027E03327DA01990F311D1E
S1132F9087FD916000966105710539F432602E5FFA
S1132FA03D9330E32A95E1F708959F3F30F0803850
S1132FB07105610509F03C5F3C5F3D93913008F079
S1132FC08068911DDF93CF931F930F93FF92EF922D
S1132FD0192F987F9695E92F96959695E90FFF27D7
S1132FE0E65DFE4F99273327EE24FF24A701E7016E
S1132FF005900894079428F4360FE71EF81E491F1D
S1133000511D660F771F881F991F0694A1F705901D
S1133010079428F4E70EF81E491F561FC11D770FA9
S1133020881F991F661F0694A1F70590079428F43A
S1133030F80E491F561FC71FD11D880F991F661F01
S1133040771F0694A1F70590079420F4490F561FA3
S1133050C71FD81F990F661F771F881F0694A9F7EB
S113306084911095177041F0D695C795579547955B
S1133070F794E7941A95C1F7E0EDF0E068941590A1
S1133080159135916591959105907FE27395E118BD
S1133090F10A430B560BC90BD009C0F7E10CF11E22
S11330A0431F561FC91FD01D7EF4703311F48A9537
S11330B0E6CFE894015030F0080F0AF40027021715
S11330C008F4202F2395022F7A3328F079E37D9397
S11330D02A95E9F710C07D932A9589F60694979569
S11330E06795379517951794E118F10A430B560B1A
S11330F0C90BD00998F023957E9173957A3308F023
S113310070E37C932013B8F77E9170617D9330F067
S1133110839571E37D9370E32A95E1F71124EF9091
S1133120FF900F911F91CF91DF91992787FD909583
S11331300895FC010590615070400110D8F7809506
S113314090958E0F9F1F0895FC016150704001906F
S11331500110D8F7809590958E0F9F1F08950F93B7
S11331601F93CF93DF93FB01238121FD03C08FEFD6
S11331709FEF2CC022FF16C04681578124813581E0
S11331804217530744F4A081B1819D012F5F3F4F43
S1133190318320838C93268137812F5F3F4F378380
S11331A0268314C08B01EC01FB010084F185E02D22
S11331B00995892BE1F6D80116968D919C91179764
S11331C0019617969C938E931697CE01DF91CF911B
S11331D01F910F910895FA01AA27283051F1203147
S11331E081F1E8946F936E7F6E5F7F4F8F4F9F4F97
S11331F0AF4FB1E03ED0B4E03CD0670F781F891FD9
S11332009A1FA11D680F791F8A1F911DA11D6A0FA6
S1133210711D811D911DA11D20D009F468943F9159
S11332202AE0269F11243019305D3193DEF6CF0158
S11332300895462F4770405D4193B3E00FD0C9F71E
S1133240F6CF462F4F70405D4A3318F0495D31FD8B
S11332504052419302D0A9F7EACFB4E0A6959795DE
S1133260879577956795BA95C9F7009761057105B4
S113327008959B01AC010A2E0694579547953795FE
S11332802795BA95C9F7620F731F841F951FA01D58
S10932900895F894FFCF3D
S1113296180C0410C08020600000E901200024
S9030000FC
