:100000000C9431030C944E030C944E030C944E0349
:100010000C94F5060C941E070C9447070C9470077B
:100020000C944E030C94D6050C94FF050C942806F2
:100030000C94A3060C9451060C947A060C94CC06EE
:100040000C945B050C9484050C94AD050C944E0344
:100050000C944E030C944E030C944E030C944E03DC
:100060000C944E030C944E030C944E030C944E03CC
:100070000C944E030C944E030C944E03CB04CE040C
:10008000D104D404DD04D704DA04E004E304E60474
:10009000E904EC04EF04F204F504F804FB04FE04A4
:1000A00001051205150518051B0524051E0521056A
:1000B00027052A052D0530053305360539053C058C
:1000C0003F0542054505480507634236B79BD8A75B
:1000D0001A39685618AEBAAB558C1D3CB7CC57636D
:1000E000BD6DEDFD753EF6177231BF000000803F1B
:1000F00008000000BE922449123EABAAAA2ABECD37
:10010000CCCC4C3E00000080BEABAAAAAA3E0000A8
:100110000000BF000000803F0000000000084178A0
:10012000D3BB4387D1133D190E3CC3BD4282AD2BD7
:100130003E68EC8276BED98FE1A93E4C80EFFFBECF
:1001400001C4FF7F3F00000000006E616E00696E19
:10015000660000407A10F35A00A0724E1809001091
:10016000A5D4E80000E87648170000E40B5402002C
:1001700000CA9A3B000000E1F50500008096980057
:10018000000040420F000000A08601000000102780
:1001900000000000E8030000000064000000000010
:1001A0000A00000000000100000000002C76D88842
:1001B000DC674F0823DFC1DFAE59E1B1B796E5E355
:1001C000E453C63AE651997696E8E6C28426EB896E
:1001D0008C9B62ED407C6FFCEFBC9C9F40F2BAA50B
:1001E0006FA5F490055A2AF75C936B6CF9676DC1A3
:1001F0001BFCE0E40D47FEF520E6B500D0ED902EA7
:100200000300943577050080841E080000204E0A04
:10021000000000C80C333333330F986E1283114142
:10022000EF8D2114893BE65516CFFEE6DB18D1840D
:100230004B381BF77C1D901DA4BBE4242032847234
:100240005E228100C9F124ECA1E53D2716050100DD
:10025000000000000000FA000000E000E00028FEBE
:1002600028FE282454FE5448C4C81026466C92AA7E
:1002700044A000A0C000000038448200008244383E
:100280000028107C102810107C1010000A0C0000B0
:100290001010101010000606000004081020407C0A
:1002A0008A92A27C0042FE020042868A9262848286
:1002B000A2D28C182848FE08E4A2A2A29C3C52922A
:1002C000920C808E90A0C06C9292926C60929294EC
:1002D00078006C6C0000006A6C00001028448200FA
:1002E0002828282828008244281040808A90604CC2
:1002F000929E827C7E8888887EFE9292926C7C821E
:10030000828244FE82824438FE92929282FE9090D3
:1003100090807C8292925EFE101010FE0082FE821F
:1003200000040282FC80FE10284482FE02020202C7
:10033000FE403040FEFE201008FE7C8282827CFE61
:10034000909090607C828A847AFE90989462629207
:1003500092928C8080FE8080FC020202FCF80402F3
:1003600004F8FC021C02FCC6281028C6E0100E107F
:10037000E0868A92A2C200FE828200402010080419
:10038000008282FE00204080402002020202020021
:1003900080402000042A2A2A1EFE1222221C1C222F
:1003A0002222041C222212FE1C2A2A2A18107E90C5
:1003B0008040304A4A4A7CFE1020201E0022BE02A5
:1003C00000040222BC00FE081422000082FE02008B
:1003D0003E2018201E3E1020201E1C2222221C3EE1
:1003E00028282810102828183E3E10202010122AF5
:1003F0002A2A0420FC2202043C0202043E380402A1
:1004000004383C020C023C2214081422300A0A0A66
:100410003C22262A322200106C82000000FE0000DE
:1004200000826C1000081010081000000000007F0F
:100430008181817F7F8383837F7F8787877F7F8F92
:100440008F8F7F7F9F9F9F7F7FBFBFBF7F7FFFFF7C
:10045000FF7F2040FF4020621517156500FBFB0061
:10046000000000000000C0FF0300E0FF0700F0FFF5
:100470000F00F8FF1F0078001E0078001E007800B3
:100480001E0078001E0078001E0078001E00780014
:100490001E0078001E0078001E0000000000000012
:1004A000000080FF0300E0FF0700F0FF0F00F8FFEF
:1004B0001F00F83C1F00783C1E00783C1E00783C72
:1004C0001E00783C1E00783C1E00783C1E00783CE4
:1004D0001E00783C1E00783C1E00783C1E00000088
:1004E000000000000000E0FF0300F0FF0700F8FF3D
:1004F0000F00F8FF1F00783C1E00783C1E00783C7F
:100500001E00783C1E00783C1E00783C1E00783CA3
:100510001E00783C1E00783C1E00783C1E00000047
:10052000000000000000F8FF0300F8FF0F00F8FFD4
:100530001F00F8FF1F0000001E0000001E000080CA
:100540001F0000F01F0000FF0F00E0FF0700F0FF9A
:100550000000F80F0000F8000000780000007800AC
:100560000000F8FF1F00F8FF1F00F0FF1F00E0FF72
:100570001F000000000000000000F8FF1F00F8FF4F
:100580001F00F8FF1F00F8FF1F0078001E00783CD6
:100590001E00783C1E00783C1E00783C1E00783C13
:1005A0001E00783C1E00F87E1F00F8FF1F00F0FFC1
:1005B0000F00E0E703000000000000003800EEFF3D
:1005C0006C002A8045003A0047FC03FF6CFC83FF67
:1005D0003900DEFF0B7CD0810BFCD0810BC0D081B9
:1005E0000BFCD0810B7CDEFF0B0082FF397002FF19
:1005F0006CF83A0047DC2A8045CCEEFF6CCC00005A
:1006000038000000000C00001E0C00001E0000005E
:100610001E0000001E0000001E00F8FF1F00F8FF73
:100620001F00F8FF1F00F8FF1F0000001E00000061
:100630001E0000001E0000001E0000005E00000002
:10064000400000007C00000040000000400000006E
:100650007C000000300000001000000030000000AE
:100660007C0011241FBECFEFD8E0DEBFCDBF11E06C
:10067000A0E0B1E0EAE0F6E302C005900D92A033FD
:10068000B107D9F722E0A0E3B1E001C01D92A43187
:10069000B207E1F70E9459030C94031B0C9400006D
:1006A0000E947F030E9462038CE191E00E94751A10
:1006B000FFCF0E9459050E944B050E94500380E025
:1006C00090E008950F931F9380E460E00E9441043E
:1006D00000E0802F60E00E94280410E080E061E0EC
:1006E0000E9441041F5F1038C9F70F5F043089F77B
:1006F00083E060E00E9421041F910F9108950F9301
:100700001F9382E00E94BC04882311F482E006C09B
:1007100081E00E94BC04882319F481E090E06DC060
:100720000E94AD0785E061E00E9404058EEA60E06A
:100730000E94410482EA60E00E94410480EA60E095
:100740000E94410400E513ECC8010197F1F780EC29
:1007500060E00E9441048FE260E00E94410481E871
:1007600060E00E94410486E160E00E94410482E270
:1007700060E00E944104C8010197F1F78FEA60E050
:100780000E94410486EA60E00E94410485EA60E03C
:100790000E94410480E090E028E833E1F9013197BC
:1007A000F1F7019643E0883E9407C1F783EB60E0E0
:1007B0000E94410480E460E00E94410483E060E024
:1007C0000E94280483E060E00E9421041092AC01A2
:1007D0001092AE011092AD0180E091E09093110271
:1007E0008093100288E10E9400040E94620384EA60
:1007F00060E00E94410485E091E01F910F9108950F
:100800001F93182F85E00E94BC048130C1F487E05B
:100810000E945C0482E06AE00E94AD0482E061EB29
:100820000E94AD04612F113208F060E282E00E9464
:10083000AD0489EE8A95F1F787E00E945C041F9170
:10084000089583706F776093AA018093AB01089538
:100850000F931F93062F162F1F778370806B60E016
:100860000E94410412951F70812F806160E00E94F8
:100870004104802F8F7060E00E9441041F910F910E
:1008800008950F931F93082F162F85E00E94BC0434
:10089000813079F4112319F0113021F402C02B9822
:1008A00001C02B9A86E08A95F1F780E0602F0E94C4
:1008B000AD041F910F9108951F93182F82E00E949D
:1008C000BC04813009F047C0912F97708091AF012F
:1008D000981709F440C09093AF0185B1887F892BA8
:1008E00085B9933011F1943028F4913051F0923061
:1008F00090F40CC0953019F19530E0F0963021F568
:100900000FC0E0917201F091730122C0E09170017B
:10091000F09171011DC0E0917401F091750118C052
:10092000E0917C01F0917D0113C0E0917601F0919E
:1009300077010EC0E0917801F091790109C0E09152
:100940007A01F0917B0104C0E0917E01F0917F017A
:10095000309709F009951F9108951F93162F0E9453
:100960005C0482E00E94BC04813021F41EBD0DB401
:1009700007FEFDCF1F910895E82FF0E0E331F10568
:1009800040F4E25CFF4FEE0FFF1F0590F491E02D65
:10099000099480E0089580919701089580919801CD
:1009A000089580919901089580919A010895809108
:1009B0009B01089580919D01089580919C01089567
:1009C00080919E01089580919F0108958091A001DA
:1009D00008958091A10108958091A20108958091C8
:1009E000A30108958091A40108958091A50108951F
:1009F0008091A60108958091A70108958091A80192
:100A000008958091A9010895E82FF0E0E331F10500
:100A100008F040C0EF5AFF4FEE0FFF1F0590F49112
:100A2000E02D0994609397010895609398010895CB
:100A300060939901089560939A01089560939B01D2
:100A4000089560939D01089560939C0108956093BB
:100A50009E01089560939F0108956093A0010895F9
:100A60006093A10108956093A20108956093A3018A
:100A700008956093A40108956093A501089560937B
:100A8000A60108956093A70108956093A8010895B1
:100A90006093A70108950E942D0A0E945C080E949D
:100AA00099070E94FE0A0E94C1080E94500A789489
:100AB0000895000008951F920F920FB60F9211240F
:100AC0002F933F934F935F936F937F938F939F9356
:100AD000AF93BF93EF93FF93E0915001F0915101D9
:100AE000309709F00995FF91EF91BF91AF919F91D8
:100AF0008F917F916F915F914F913F912F910F90C7
:100B00000FBE0F901F9018951F920F920FB60F9265
:100B100011242F933F934F935F936F937F938F9302
:100B20009F93AF93BF93EF93FF93E0915201F091A6
:100B30005301309709F00995FF91EF91BF91AF9163
:100B40009F918F917F916F915F914F913F912F91E5
:100B50000F900FBE0F901F9018951F920F920FB617
:100B60000F9211242F933F934F935F936F937F9333
:100B70008F939F93AF93BF93EF93FF93E0915401B3
:100B8000F0915501309709F00995FF91EF91BF91D0
:100B9000AF919F918F917F916F915F914F913F9115
:100BA0002F910F900FBE0F901F9018951F920F92CC
:100BB0000FB60F9211242F933F934F935F936F9330
:100BC0007F938F939F93AF93BF93EF93FF93E091A6
:100BD0004201F0914301309709F00995FF91EF919F
:100BE000BF91AF919F918F917F916F915F914F9145
:100BF0003F912F910F900FBE0F901F9018951F924D
:100C00000F920FB60F9211242F933F934F935F9340
:100C10006F937F938F939F93AF93BF93EF93FF93C4
:100C2000E0914401F0914501309709F00995FF9159
:100C3000EF91BF91AF919F918F917F916F915F9154
:100C40004F913F912F910F900FBE0F901F901895CD
:100C50001F920F920FB60F9211242F933F934F9331
:100C60005F936F937F938F939F93AF93BF93EF9314
:100C7000FF93E0914601F0914701309709F0099503
:100C8000FF91EF91BF91AF919F918F917F916F9164
:100C90005F914F913F912F910F900FBE0F901F903A
:100CA00018951F920F920FB60F9211242F933F9316
:100CB0004F935F936F937F938F939F93AF93BF9364
:100CC000EF93FF93E0914A01F0914B01309709F0C7
:100CD0000995FF91EF91BF91AF919F918F917F9176
:100CE0006F915F914F913F912F910F900FBE0F9099
:100CF0001F9018951F920F920FB60F9211242F93E9
:100D00003F934F935F936F937F938F939F93AF9393
:100D1000BF93EF93FF93E0914C01F0914D01309719
:100D200009F00995FF91EF91BF91AF919F918F913C
:100D30007F916F915F914F913F912F910F900FBED7
:100D40000F901F9018951F920F920FB60F921124BB
:100D50002F933F934F935F936F937F938F939F93C3
:100D6000AF93BF93EF93FF93E0914801F091490156
:100D7000309709F00995FF91EF91BF91AF919F9145
:100D80008F917F916F915F914F913F912F910F9034
:100D90000FBE0F901F9018951F920F920FB60F92D3
:100DA00011242F933F934F935F936F937F938F9370
:100DB0009F93AF93BF93EF93FF93E0914E01F09118
:100DC0004F01309709F00995FF91EF91BF91AF91D5
:100DD0009F918F917F916F915F914F913F912F9153
:100DE0000F900FBE0F901F9018951F920F920FB685
:100DF0000F9211242F933F934F935F936F937F93A1
:100E00008F939F93AF93BF93EF93FF93E09138013C
:100E1000F0913901309709F00995FF91EF91BF9159
:100E2000AF919F918F917F916F915F914F913F9182
:100E30002F910F900FBE0F901F9018951F920F9239
:100E40000FB60F9211242F933F934F935F936F939D
:100E50007F938F939F93AF93BF93EF93FF93E09113
:100E60003A01F0913B01309709F00995FF91EF911C
:100E7000BF91AF919F918F917F916F915F914F91B2
:100E80003F912F910F900FBE0F901F9018951F92BA
:100E90000F920FB60F9211242F933F934F935F93AE
:100EA0006F937F938F939F93AF93BF93EF93FF9332
:100EB000E0913C01F0913D01309709F00995FF91D7
:100EC000EF91BF91AF919F918F917F916F915F91C2
:100ED0004F913F912F910F900FBE0F901F9018953B
:100EE0001F920F920FB60F9211242F933F934F939F
:100EF0005F936F937F938F939F93AF93BF93EF9382
:100F0000FF93E0913E01F0913F01309709F0099580
:100F1000FF91EF91BF91AF919F918F917F916F91D1
:100F20005F914F913F912F910F900FBE0F901F90A7
:100F3000189580E10E94BC04882361F4E0E3F1E0AD
:100F40001192119281E0E037F807D1F780E161E07A
:100F50000E94040580E191E00895239A0895FF928C
:100F60000F931F93CF93DF93F82E8AE0F816B1F01A
:100F70008F1548F0E8E0FE16B9F1EF1538F1F7E00B
:100F8000FF1651F43BC08DE0F81659F0EBE1FE1668
:100F900089F0FCE0FF1641F001E041C01092AA0187
:100FA00003C01092AA013AC08091AB018150809396
:100FB000AB0134C00E94620314C080E061E00E9473
:100FC00041048091AA018F5F8093AA018091AA01B8
:100FD00087FFF3CF1092AA018091AB0181508093DB
:100FE000AB0100E011E01CC08091AA018823B1F0A0
:100FF0008091AA0186508093AA0110C081E00E94CE
:10100000CD0964EF71E080E090E04DE750E024E628
:1010100030E00E94DA0981E00E94320900E010E02D
:101020008091AB016091AA010E942804002351F134
:1010300085E0F89EC0011124EC01C155DE4F8C0102
:101040000C541E4FFE01849161E00E9441042196E0
:10105000C017D107B9F780E061E00E944104809198
:10106000AA018A5F8093AA018091AA0190E08C373F
:1010700091053CF01092AA018091AB0181508093C0
:10108000AB0111E08091AB0183708093AB01113013
:1010900059F48091AC01813039F4E091AD01F091C7
:1010A000AE01309709F0099580E090E0DF91CF9193
:1010B0001F910F91FF90089580E00E94BC04882347
:1010C00051F4F8940E94480B81E00E946E0880E081
:1010D00061E00E94040580E091E00895813049F0CC
:1010E000F894813020F18230B1F0833009F045C0AE
:1010F00017C02C9A80E8809361001092610080E014
:1011000090E00000019688329105D9F710926800AE
:1011100010926B00089580E88093610083E004C022
:1011200080E88093610088E08093610028C080E0BF
:1011300090E0000001962DE680369207D1F72C98BA
:1011400080E090E0000001962DE680369207D1F70E
:1011500010927A008FEF8093640080916800816024
:101160008093680080916B00846080936B0078941A
:1011700083B7816083BF88950895823008F07894A2
:1011800008950F931F930E94740B80E063E67BE049
:101190000E94FA0881E06BE57BE00E94FA0882E099
:1011A00063E57BE00E94FA0886E06BE67BE00E9444
:1011B000FA080BE41BE083E0B8010E94FA0884E01F
:1011C000B8010E94FA0885E0B8010E94FA0887E099
:1011D000B8010E94FA0882E061E00E9404058FEFE6
:1011E0008093AF0187E00E945C0482E091E01F9150
:1011F0000F910895E82FF0E0EE0FFF1FE059FE4F2A
:101200007183608308958AE00E94BC04813041F4B8
:101210000E94D60B109281018AE060E00E940405D2
:10122000089589E00E94BC048130D9F48091800146
:10123000882311F00E94270A82E00E94D60B809139
:101240008E0190918F01009731F00E94C218109288
:101250008F0110928E011092800189E060E00E945F
:1012600004050895813029F0823029F40E94110983
:1012700008950E94030908950F931F93CF93DF935E
:1012800080E291E00E942A189C0190938F01809344
:101290008E01892B11F480E039C08901C0E0D0E0D3
:1012A000BE0180E090E00E947D1420E030E040EA42
:1012B00051E40E940B1427EF35E740E05FE30E9402
:1012C00048159B01AC0160E070E080E291E40E946F
:1012D000B5159B01AC01CA01B9012DEC3CEC42E80B
:1012E00051E40E9448150E940B152AE030E040E0CE
:1012F00050E00E94A717F801619371938193919335
:101300008F012196C834D10559F681E0DF91CF9144
:101310001F910F9108958AE00E94BC04882371F404
:1013200010928B0110928A0181E00E94F20B81E001
:10133000809381018AE061E00E9404058AE091E0E7
:1013400008951F938BE00E94BC04882311F090E065
:1013500021C089E00E94BC048823D9F40E943C0982
:10136000182F8130B1F410928201109283011092F3
:101370008401109285018DE06BE77BE00E94340BC5
:1013800082E00E94F20B1093800189E061E00E94EC
:10139000040591E089E01F910895813029F08230A1
:1013A00031F090E089E008950E948B0908950E9431
:1013B000A10908958F929F92AF92BF92CF92DF9230
:1013C000EF92FF920F931F93CF93DF934B015C013A
:1013D000EA01B9012115310539F19E01442737FD94
:1013E0004095542F6536710510F064E670E080E09A
:1013F00090E00E94A71724E630E040E050E00E9411
:10140000B71779018A01C501B4010E947E0BC7019B
:101410000E949F0A60E070E080E090E00E947E0BF6
:10142000CE018E199F0904C04115510519F0CA015A
:101430000E949F0ADF91CF911F910F91FF90EF9033
:10144000DF90CF90BF90AF909F908F900895EFE680
:10145000F0E080818D7F8083089510929701109233
:10146000980110929C011092990110929B01109288
:101470009D0110929E0110929F011092A001109266
:10148000A1011092A2011092A3011092A401109246
:10149000A5011092A6011092A7011092A80108952B
:1014A00082E00E94BC04882319F490E082E0089551
:1014B0001092C5011092C4011092C7011092C6018A
:1014C0001092C9011092C8011092CB011092CA016A
:1014D0001092CD011092CC0180E991E09093B1017E
:1014E0008093B0019093B3018093B2019093B501C2
:1014F0008093B4019093B7018093B6019093B901A2
:101500008093B80184E398E09093BB018093BA0183
:101510009093BD018093BC019093BF018093BE0165
:101520009093C1018093C0019093C3018093C20145
:1015300081E061E00E94040591E081E00895DF937D
:10154000CF93CDB7DEB729970FB6F894DEBF0FBEA5
:10155000CDBF9C01CE01019661E040E00E94C00A2F
:10156000982F882319F48F818823E9F3892F2996EE
:101570000FB6F894DEBF0FBECDBFCF91DF910895B7
:10158000EF92FF920F931F93CF93DF93EC01F62E10
:10159000E42E890188E00E94BC04813011F081E0D2
:1015A00026C084E090E00E942A18FC01009711F404
:1015B00082E01DC0F982F0FC1E8281E0E81619F479
:1015C0008981846089838981886089831B830A83F8
:1015D0001D830C83D183C0831382128281E08093A8
:1015E0009001CF010E942C0C1092900180E0DF91BD
:1015F000CF911F910F91FF90EF90089588E00E9486
:10160000BC048823B9F41092CE011092D00110923C
:10161000CF01109290011092910180E16CE17CE089
:101620000E94230B0E94230C0E941D0B88E061E0A6
:101630000E94040588E091E00895EEE6F0E08081E4
:10164000826080830895803218F020E030E00AC084
:10165000E82FF0E0EE0FFF1FE05DFE4F20813181AB
:1016600071836083C9010895E82F803268F4805146
:10167000833050F0F0E0EE0FFF1FE05DFE4F208161
:1016800031817183608302C020E030E0C901089598
:10169000249A2C9A089583E58CBD81E08DBD8DE060
:1016A0008A95F1F7089583E58CBD1DBC84EF91E028
:1016B0000197F1F708958FE78CBD1DBC84EF91E091
:1016C0000197F1F7089583E58CBD81E08DBD8DE034
:1016D0008A95F1F7089583E58CBD81E08DBD84EF97
:1016E00091E00197F1F70895259A2698279A209A74
:1016F000219A229A08950E94950B08959B01AC01AE
:1017000080918101882381F0DA01C901880F991F36
:10171000AA1FBB1F90938D0180938C012115310569
:101720004105510509F45F980895809182019091D7
:101730008301A0918401B0918501209186013091AF
:1017400087014091880150918901280F391F4A1F54
:101750005B1F209382013093830140938401509357
:1017600085018091820190918301A0918401B091C3
:1017700085018851964FA040B040BCF08BB1805895
:101780008BB98091820190918301A0918401B091E5
:1017900085018851964FA040B0408093820190937C
:1017A0008301A0938401B09385010895823029F4C8
:1017B000809181008E7F80938100809180018130B3
:1017C00031F480918101813011F4000008958091FD
:1017D0008001813021F080918101813011F45F9886
:1017E00057980895982F80918001882331F4809133
:1017F0008101882311F4579A5F9880918001882392
:10180000D1F49230C1F41092800010928100809146
:101810008100886080938100809181008160809345
:101820008100109285001092840081E080938900ED
:1018300080E98093880008950E94990C0E94D90C39
:101840000E94B20C089584B5826084BD85B5846021
:1018500085BD8EE487BD0895CF92DF92EF92FF920F
:101860000F931F93CF93DF93EC018091CE018823D8
:1018700039F4D093D001C093CF010E94950C47C09A
:10188000C090CF01D090D00100E010E0EE24FF2402
:1018900037C0A881B981FD0164817581F60140815D
:1018A0005181FA01848195819B01281B390B37FFF7
:1018B0000FC0861B970B95838483DB82CA82012B22
:1018C00029F4D093D001C093CF0121C0F7010CC0FF
:1018D000F601828193812115310549F4FD011582BC
:1018E00014829B838A83F601D383C28310C0FD01D7
:1018F000358324830097B9F30F5F1F4F76016C0186
:101900008091CE0190E00817190718F2ECCF809172
:10191000CE018F5F8093CE01DF91CF911F910F9108
:10192000FF90EF90DF90CF90089581E08093910138
:10193000089588E00E94BC04882311F484E008958F
:1019400080919101882311F483E0089580919001A2
:10195000882311F082E008950E946D0F8130E1F339
:1019600080E0089580918101813011F580918A0194
:1019700090918B0120918C0130918D01280F391F9E
:1019800030938B0120938A0180918A0190918B0181
:10199000885E93406CF08BB180588BB980918A013E
:1019A00090918B01885E934090938B0180938A0184
:1019B000089587E00E94BC04813009F0AAC080919C
:1019C000DB019091DC01892B09F18091FF0190915D
:1019D00000022091DB013091DC01820F931F909374
:1019E00000028093FF018091FF0190910002885EC8
:1019F0009340A4F08091FF0190910002885E934093
:101A0000909300028093FF0141E009C08091D301CF
:101A10009091D4019093D8018093D70140E08091B8
:101A2000DD019091DE01892B09F1809101029091F5
:101A300002022091DD013091DE01820F931F90930D
:101A40000202809301028091010290910202885E5D
:101A50009340A4F08091010290910202885E93402D
:101A6000909302028093010261E009C08091D50148
:101A70009091D6019093DA018093D90160E0842F90
:101A80000E948A0D8091FB019091FC012091D70169
:101A90003091D801280F391F3093FC012093FB01AE
:101AA0008091FB019091FC01885E934014F440E02A
:101AB0000BC08091FB019091FC01885E9340909354
:101AC000FC018093FB0141E08091FD019091FE01BA
:101AD0002091D9013091DA01280F391F3093FE018E
:101AE0002093FD018091FD019091FE01885E93405D
:101AF00014F460E00BC08091FD019091FE01885EBE
:101B000093409093FE018093FD0161E0842F0E9439
:101B1000CF0D08958823F1F02091D3013091D401A5
:101B20008091D7019091D801281B390B121613060A
:101B300034F48091D7019091D801019607C0232BEE
:101B400049F08091D7019091D80101979093D801E5
:101B50008093D701662311F12091D5013091D601F0
:101B60008091D9019091DA01281B390B12161306C6
:101B700054F48091D9019091DA0101969093DA01A1
:101B80008093D9010895232B49F08091D901909138
:101B9000DA0101979093DA018093D90108950F93A8
:101BA0001F93182F062F80910702882309F0E7C0A2
:101BB0008091EF01882309F05AC08091D70190915C
:101BC000D801892BE9F480919201837E8093920160
:101BD0001092F80180910302882309F45DC060919E
:101BE000F10180E00E94480FE0910502F0910602A9
:101BF000309709F451C081E08083109203024CC0F9
:101C00008091D101813041F48091E3019091E40110
:101C1000019711F411E002C01123F1F1E091F601F6
:101C2000F0E0E25FFE4F90919201937E8081892BDC
:101C3000809392018091F401882321F48091F60130
:101C40008F5F03C08091F60181508093F6018091EF
:101C5000F60183708093F60181E08093F801809112
:101C6000D1018130C9F480E00E94D20E15C090915C
:101C70009201937E90939201E091F601F0E0E25F91
:101C8000FE4F8081892B8093920182E08093F8013E
:101C90001092D8011092D7018091F001882309F0A9
:101CA00059C08091D9019091DA01892BE9F4809192
:101CB00092018F71809392011092F9018091040238
:101CC000882309F45CC06091F20181E00E94480F12
:101CD000E0910502F0910602309709F450C081E0CE
:101CE0008183109204024BC08091D201813041F473
:101CF0008091E5019091E601019711F401E002C0A5
:101D00000023E9F1E091F701F0E0EE5EFE4F9091E3
:101D100092019F718081892B809392018091F501BE
:101D2000882321F48091F7018F5F03C08091F70130
:101D300081508093F7018091F70183708093F701C0
:101D400081E08093F9018091D2018130C1F40E9439
:101D5000D20E15C0909192019F7190939201E091E3
:101D6000F701F0E0EE5EFE4F8081892B80939201B7
:101D700082E08093F9011092DA011092D9018091EA
:101D8000FA01882331F482E991E0612F402F0E940B
:101D9000DB0F88B1837090919201892B88B91F91D4
:101DA0000F910895882321F0813009F04EC027C09B
:101DB0008091E3019091E401892B49F08091E30146
:101DC0009091E40101979093E4018093E301809165
:101DD00003028823D1F52091E3013091E401809141
:101DE000E7019091E8012817390779F580E060E074
:101DF00070E00E94260F81E0809303020895809195
:101E0000E5019091E601892B49F08091E5019091DF
:101E1000E60101979093E6018093E5018091040229
:101E2000882399F42091E5013091E6018091E90140
:101E30009091EA012817390741F481E060E070E0F1
:101E40000E94260F81E0809304020895482F81E0CC
:101E500080930702CB0121E06139720710F080E91D
:101E600091E0413071F0413018F0423071F405C01A
:101E70009093D4018093D30108C09093D4018093B0
:101E8000D3019093D6018093D50110920702089553
:101E90000F931F93182F062F662349F460E070E01C
:101EA0000E94260F812F60E070E00E94731081E095
:101EB00080930702113051F0113018F0123041F4C4
:101EC00003C00093EF0104C00093EF010093F00101
:101ED000109207021F910F910895FF920F931F9385
:101EE000CF93DF938091CE01882309F459C00091EC
:101EF000CF011091D001F801C081D1818C819D81E9
:101F000001979D838C83181619060CF449C08981AA
:101F100080FF05C08E81882311F481E08E83898142
:101F200081FF03C0EF81F88509958091CE01823051
:101F3000A8F0F801828193819093D0018093CF0122
:101F400013821282E0910000F0910100848195815A
:101F5000181619063CF0FF24F39405C01092D00126
:101F60001092CF01FF248091CE0181508093CE0149
:101F70008091CE01882311F40E94D80F898182FFBD
:101F800008C08A819B819D838C83C8010E942C0C90
:101F900008C0C8010E94C21889818F7E898301C050
:101FA000FF248F2DDF91CF911F910F91FF90089506
:101FB000109291010895FC018091F801823069F43A
:101FC0008091960191E0892780939601882309F0FA
:101FD0003EC08081837E80833AC08091D7019091FA
:101FE000D801C397A4F56623D1F02091D701309191
:101FF000D80180E690E0BC01269FC001279F900D8C
:10200000369F900D1124880F892F881F990B90936C
:10201000EC018093EB0181E08093940118C08091E2
:1020200094018823A1F08091EB019091EC0101973C
:102030009093EC018093EB018091EB019091EC0186
:10204000892B29F48081837E808310929401809172
:10205000F901823069F48091950191E0892780939C
:102060009501882309F03EC080818F718083089597
:102070008091D9019091DA01C397A4F54423D1F05E
:102080002091D9013091DA0180E690E0AC01249FE3
:10209000C001259F900D349F900D1124880F892F2A
:1020A000881F990B9093EE018093ED0181E080935E
:1020B00093010895809193018823A1F08091ED010F
:1020C0009091EE0101979093EE018093ED01809144
:1020D000ED019091EE01892B29F480818F7180832D
:1020E000109293010895982F81E080930702913018
:1020F00071F0913018F0923071F405C07093E401E2
:102100006093E30108C07093E4016093E30170936E
:10211000E6016093E501109207020895A0E1B0E0A6
:10212000E4E9F0E10C94E4177C011B016A01FC0175
:1021300017821682838181FF44C39E012F5F3F4F28
:102140003901F7019381F10193FD859193FF81910D
:102150001F01882309F431C3853239F493FD859139
:1021600093FF81911F01853239F4B70190E00E94FD
:10217000391A56016501E5CF10E0512C912CFFE191
:10218000F915D8F08B3279F038F4803279F0833257
:10219000A1F4F92DF0612EC08D3261F0803369F425
:1021A000292D21602DC0392D3260932E892D846018
:1021B000982E2AC0E92DE86015C097FC2DC020EDAF
:1021C000280F2A3088F496FE06C03AE0139F200DAF
:1021D0001124122F19C08AE0589E200D1124522E6E
:1021E000E92DE0629E2E10C08E3231F496FCE5C2DD
:1021F000F92DF0649F2E08C08C3621F4292D20681B
:10220000922E02C0883641F4F10193FD859193FF2F
:1022100081911F018111B3CF9BEB980F933020F474
:10222000992D9061805E07C09BE9980F933008F06C
:1022300066C1992D9F7E96FF16E09F73992E853675
:1022400019F49064992E08C0863621F4392F30682D
:10225000932E02C01111115097FE07C01C3350F489
:1022600044244394410E27E00BC0183038F027E097
:1022700017E005C027E09CE3492E02C0212F412C26
:10228000560184E0A80EB11CF60160817181828143
:102290009381042DA3010E944B196C01F981FC87E5
:1022A000F0FF02C0F3FF06C091FC06C092FE06C01C
:1022B00000E205C00DE203C00BE201C000E08C8526
:1022C0008C7019F001115AC29BC297FE10C04C0CC1
:1022D000FC85F4FF04C08A81813309F44A94141404
:1022E00074F528E0241578F588E0482E2CC096FC7B
:1022F0002AC0812F90E08C159D059CF03CEFC31601
:102300003FEFD30674F0892D8068982E0AC0E2E072
:10231000F0E0EC0FFD1FE10FF11D8081803319F417
:1023200011501111F4CF97FE0EC044244394410E76
:10233000812F90E0C816D9062CF41C1904C044243F
:10234000439401C010E097FE06C01C141D0434F431
:10235000C601019605C085E090E002C081E090E0F2
:1023600001110196112331F0212F30E02F5F3F4FF3
:10237000820F931F252D30E08217930714F4581A0B
:1023800001C0512C892D897049F4552039F0B701CD
:1023900080E290E00E94391A5A94F7CF002329F086
:1023A000B701802F90E00E94391A93FC09C0552094
:1023B00039F0B70180E390E00E94391A5A94F7CFC0
:1023C00097FE4CC04601D7FE02C0812C912CC6015D
:1023D00088199909F301E80FF91FFE87ED87960127
:1023E00024193109388B2F87012F10E011950195A1
:1023F00011093FEF8316930629F4B7018EE290E0AE
:102400000E94391AC814D9044CF08F859889881510
:10241000990524F4ED85FE85818101C080E3F1E01A
:102420008F1A91082D853E852F5F3F4F3E872D8760
:10243000801691062CF0B70190E00E94391AD9CF8E
:10244000C814D90441F49A81963320F4953319F4D1
:102450003C8534FF81E3B70190E04EC08A8181332F
:1024600019F09C859F7E9C87B70190E00E94391AE5
:10247000111105C094FC18C085E690E017C0B701A3
:102480008EE290E00E94391A1E5F82E001E0080FA0
:10249000F301E80FF11D8081B70190E00E94391A25
:1024A000802F0113F3CFE6CF85E490E0B7010E94BF
:1024B000391AD7FC06C0C114D10441F4EC85E4FFFD
:1024C00005C0D194C194D1088DE201C08BE2B7015F
:1024D00090E00E94391A80E32AE0C216D1042CF061
:1024E0008F5FFAE0CF1AD108F7CFB70190E00E94D2
:1024F000391AB701C601C0960E94391A54C18336F1
:1025000031F0833779F0833509F056C020C0560189
:1025100032E0A30EB11CF6018081898301E010E056
:10252000630112C05601F2E0AF0EB11CF601C0808B
:10253000D18096FE03C0612F70E002C06FEF7FEF85
:10254000C6010E942E1A8C01F92DFF7714C0560186
:1025500022E0A20EB11CF601C080D18096FE03C01D
:10256000612F70E002C06FEF7FEFC6010E94231A57
:102570008C01F92DF0689F2EF3FD1AC0852D90E097
:1025800008171907A8F4B70180E290E00E94391AF1
:102590005A94F4CFF60197FC859197FE81916F01D3
:1025A000B70190E00E94391A51105A940150110954
:1025B0000115110579F7F7C0843611F0893661F5F8
:1025C000560197FE09C024E0A20EB11CF6016081FD
:1025D0007181828193810AC0F2E0AF0EB11CF601D5
:1025E00060817181072E000C880B990BF92DFF7605
:1025F0009F2E97FF09C090958095709561957F4FAC
:102600008F4F9F4FF0689F2E2AE030E0A3010E9479
:10261000A51AC82EC6183FC0092D853721F40F7E94
:102620002AE030E01DC0097F8F3691F018F488351C
:1026300059F0C3C0803719F0883711F0BEC000616F
:1026400004FF09C0046007C094FE08C0066006C00D
:1026500028E030E005C020E130E002C020E132E0B7
:10266000560107FF09C084E0A80EB11CF601608185
:1026700071818281938108C0F2E0AF0EB11CF60136
:102680006081718180E090E0A3010E94A51AC82EAC
:10269000C6180F77902E96FE0BC0092D0E7FC1161F
:1026A00050F494FE0AC092FC08C0092D0E7E05C0AD
:1026B000DC2C092D03C0DC2C01C0D12E04FF0DC081
:1026C000FE01EC0DF11D8081803311F4097E09C0FB
:1026D00002FF06C0D394D39404C0802F867809F0FB
:1026E000D39403FD11C000FF06C01C2DD51480F447
:1026F000150D1D190DC0D51458F4B70180E290E0F6
:102700000E94391AD394F7CFD51410F45D1801C084
:10271000512C04FF10C0B70180E390E00E94391AE9
:1027200002FF17C001FD03C088E790E002C088E502
:1027300090E0B7010CC0802F867859F001FF02C0ED
:102740008BE201C080E207FD8DE2B70190E00E94BC
:10275000391AC11638F4B70180E390E00E94391AA3
:102760001150F7CFCA94F301EC0DF11D8081B70130
:1027700090E00E94391AC110F5CF15C0F4E0F515AC
:1027800060F584E0581A93FE1FC0011127C02C8504
:1027900023FF2AC00AE411E0392D3071932EF8018D
:1027A0008491811124C0552009F4E4CCB70180E262
:1027B00090E00E94391A5A94F6CFF70186819781EA
:1027C00026C08FEF9FEF23C0B70180E290E00E9408
:1027D000391A5A945110F8CFD8CF512CB701802F05
:1027E00090E00E94391AD3CF0EE411E0D5CF9110BA
:1027F0008052B70190E00E94391A0F5F1F4FCFCF70
:1028000023E0251510F483E0BDCF512CC0CF609696
:10281000E2E10C9400180E941F140C94D1140E9441
:10282000CA1458F00E94C31440F029F45F3F29F005
:102830000C94BA1451110C9405150C94C0140E94F8
:10284000E21468F39923B1F3552391F3951B550BCB
:10285000BB27AA2762177307840738F09F5F5F4F73
:10286000220F331F441FAA1FA9F335D00E2E3AF0B2
:10287000E0E832D091505040E695001CCAF72BD0CA
:10288000FE2F29D0660F771F881FBB1F261737071B
:102890004807AB07B0E809F0BB0B802DBF01FF274D
:1028A00093585F4F3AF09E3F510578F00C94BA145C
:1028B0000C9405155F3FE4F3983ED4F38695779525
:1028C0006795B795F7959F5FC9F7880F911D969506
:1028D000879597F90895E1E0660F771F881FBB1F62
:1028E000621773078407BA0720F0621B730B840B0F
:1028F000BA0BEE1F88F7E0950895E89409C097FB9E
:102900003EF490958095709561957F4F8F4F9F4FC6
:102910009923A9F0F92F96E9BB279395F69587950A
:1029200077956795B795F111F8CFFAF4BB0F11F4CD
:1029300060FF1BC06F5F7F4F8F4F9F4F16C0882374
:1029400011F096E911C0772321F09EE8872F762FAA
:1029500005C0662371F096E8862F70E060E02AF0EB
:102960009A95660F771F881FDAF7880F96958795D7
:1029700097F9089597F99F6780E870E060E00895FF
:102980009FEF80EC089500240A9416161706180687
:102990000906089500240A94121613061406050663
:1029A0000895092E0394000C11F4882352F0BB0FF4
:1029B00040F4BF2B11F460FF04C06F5F7F4F8F4F57
:1029C0009F4F089557FD9058440F551F59F05F3F92
:1029D00071F04795880F97FB991F61F09F3F79F041
:1029E00087950895121613061406551FF2CF4695C3
:1029F000F1DF08C0161617061806991FF1CF869545
:102A00007105610508940895E894BB276627772728
:102A1000CB0197F908950E94EA14A8F19E57B0F1EE
:102A2000985160F039F1983070F5092E9927660FAA
:102A3000771F881F991F0A94D1F71CC0BB27993FA5
:102A40004CF4B111B1E0B62B672F782F8827985F2F
:102A5000B1F708C0869577956795B79508F4B1608A
:102A60009395C1F7BB0F30F411F460FF03C06F5FA3
:102A70007F4F8F4F3EF490958095709561957F4F75
:102A80008F4F9F4F089568940C9405150C9404156E
:102A90000E945B150C94D1140E94C31438F00E945C
:102AA000CA1420F0952311F00C94BA140C94C0149D
:102AB00011240C9405150E94E21470F3959FC1F344
:102AC000950F50E0551F629FF001729FBB27F00DDC
:102AD000B11D639FAA27F00DB11DAA1F649F662731
:102AE000B00DA11D661F829F2227B00DA11D621F80
:102AF000739FB00DA11D621F839FA00D611D221F3A
:102B0000749F3327A00D611D231F849F600D211D1D
:102B1000822F762F6A2F11249F5750409AF0F1F0A0
:102B200088234AF0EE0FFF1FBB1F661F771F881F09
:102B300091505040A9F79E3F510580F00C94BA1473
:102B40000C9405155F3FE4F3983ED4F38695779592
:102B50006795B795F795E7959F5FC1F7FE2B880FAF
:102B6000911D9695879597F90895FA01EE0FFF1F2D
:102B7000309621053105A1F16115710561F48038A8
:102B8000BFE39B0749F168949038810561F0803874
:102B9000BFEF9B0741F099234AF5FF3FE10531055F
:102BA000210519F1E8940894E795D901AA2329F49D
:102BB000AB2FBE2FF85FD0F310C0FF5F70F4A69567
:102BC000E0F7F73950F019F0FF3A38F49F779F9308
:102BD0000DD00F9007FC9058089546F00C94C01447
:102BE00060E070E080E89FE308954FE79F775F9390
:102BF0004F933F932F930E94B0162F913F914F9187
:102C00005F910E9448150C940D1629F416F00C944F
:102C1000BA140C9404150C94C0140E94EA14A8F37E
:102C20009638A0F707F80F92E8942BE33AEA48EBBE
:102C30005FE70E945E150F920F920F924DB75EB73D
:102C40000F920E94F816E8ECF0E00E943F164F91B8
:102C50005F91EF91FF91E595EE1FFF1F49F0FE5741
:102C6000E0684427EE0F441FFA95E1F74195550BB4
:102C70000E9472160F9007FE0C9466160895DF935B
:102C8000CF931F930F93FF92EF92DF927B018C0102
:102C9000689406C0DA2EEF010E945B15FE01E894ED
:102CA000A5912591359145915591A6F3EF010E948B
:102CB0004417FE019701A801DA9469F7DF90EF90BD
:102CC000FF900F911F91CF91DF9108959B01AC016F
:102CD00060E070E080E89FE30C940B140C94BA144D
:102CE0000C9499170E94EA14D8F39923C9F3940F0E
:102CF000511DA3F39150504094F059F0882332F0C5
:102D0000660F771F881F91505040C1F79E3F5105B5
:102D10002CF7880F911D9695879597F908955F3F39
:102D2000ACF0983E9CF0BB27869577956795B79554
:102D300008F4B1609395C1F7BB0F58F711F460FF29
:102D4000E8CF6F5F7F4F8F4F9F4FE3CF0C940515F8
:102D500016F00C9499170C94C01468940C94BA143F
:102D60000E94EA14A8F39923C1F3AEF3DF93CF9343
:102D70001F930F93FF92C92FDD2788232AF02197F5
:102D8000660F771F881FDAF720E030E040E85FEB3E
:102D90009FE3883920F0803E38F021968F770E949B
:102DA0002D17E0EFF0E004C00E942D17EDE1F1E0F7
:102DB0000E943F168B01BE01EC01FB2E6F5771097B
:102DC0007595771F880B990B0E947F1428E132E7D5
:102DD00041E35FE30E945B15AF2D9801AE01FF90C8
:102DE0000F911F91CF91DF910E9444170C94D11441
:102DF000FA01DC01AA0FBB1F9B01AC01BF5728F4ED
:102E0000222733274427507820C0B75190F4AB2FA6
:102E10000024469537952795011CA395D2F30020F1
:102E200071F0220F331F441FB395DAF30ED00C94C8
:102E30002C1761307105A0E88A07B94630F49B0170
:102E4000AC016627772788279078309621F0208379
:102E500031834283538308955058BB27AA270E9489
:102E600044170C94D1140E94C31438F00E94CA1461
:102E700020F039F49F3F19F426F40C94C0140EF49A
:102E8000E095E7FB0C94BA14E92F0E94E21458F382
:102E9000BA17620773078407950720F079F4A6F53F
:102EA0000C9404150EF4E0950B2EBA2FA02D0B01F7
:102EB000B90190010C01CA01A0011124FF27591B7F
:102EC00099F0593F50F4503E68F11A16F040A22F85
:102ED000232F342F4427585FF3CF469537952795F6
:102EE000A795F0405395C9F77EF41F16BA0B620BF5
:102EF000730B840BBAF09150A1F0FF0FBB1F661F3C
:102F0000771F881FC2F70EC0BA0F621F731F841F7E
:102F100048F4879577956795B795F7959E3F08F0A4
:102F2000B0CF9395880F08F09927EE0F9795879566
:102F300008959F3F31F0915020F4879577956795DC
:102F4000B795880F911D9695879597F90895DB01A0
:102F50008F939F930E94D917BF91AF91A29F800D2D
:102F6000911DA39F900DB29F900D11240895A1E291
:102F70001A2EAA1BBB1BFD010DC0AA1FBB1FEE1FF3
:102F8000FF1FA217B307E407F50720F0A21BB30B3E
:102F9000E40BF50B661F771F881F991F1A9469F7BA
:102FA00060957095809590959B01AC01BD01CF0116
:102FB00008950E941B18A59F900DB49F900DA49F8B
:102FC000800D911D112408952F923F924F925F9290
:102FD0006F927F928F929F92AF92BF92CF92DF9229
:102FE000EF92FF920F931F93CF93DF93CDB7DEB78E
:102FF000CA1BDB0B0FB6F894DEBF0FBECDBF099422
:103000002A88398848885F846E847D848C849B8478
:10301000AA84B984C884DF80EE80FD800C811B8186
:10302000AA81B981CE0FD11D0FB6F894DEBF0FBEB5
:10303000CDBFED010895A29FB001B39FC001A39F32
:10304000700D811D1124911DB29F700D811D1124E1
:10305000911D08950F931F93CF93DF9382309105B5
:1030600010F482E090E0E0910C02F0910D0220E07B
:1030700030E0A0E0B0E0309719F140815181028149
:10308000138148175907C8F08417950769F41097FA
:1030900031F012960C93129713961C9327C000934D
:1030A0000C0210930D0222C02115310519F04217B0
:1030B000530718F49A01BD01EF01DF01F801DBCFDE
:1030C00021153105F9F0281B390B2430310580F426
:1030D0008A819B816115710521F0FB0193838283B5
:1030E00004C090930D0280930C02FE01329644C0FE
:1030F000FE01E20FF31F819391932250310939832E
:1031000028833AC020910A0230910B02232B41F40C
:10311000209118013091190130930B0220930A027B
:1031200020911601309117012115310541F42DB779
:103130003EB740911A0150911B01241B350BE091C1
:103140000A02F0910B02E217F307A0F42E1B3F0BCB
:103150002817390778F0AC014E5F5F4F2417350709
:1031600048F04E0F5F1F50930B0240930A02819369
:10317000919302C0E0E0F0E0CF01DF91CF911F9189
:103180000F910895CF93DF93009709F481C0FC015C
:10319000329713821282A0910C02B0910D02109707
:1031A00081F420813181820F931F20910A02309196
:1031B0000B022817390751F5F0930B02E0930A022E
:1031C00067C0ED0120E030E0CE17DF0740F44A8110
:1031D0005B819E0141155105F1F0EA01F5CFD383E2
:1031E000C28340815181840F951FC817D90759F4B4
:1031F00088819981840F951F0296918380838A81AB
:103200009B81938382832115310529F4F0930D026C
:10321000E0930C023DC0E901FB83EA834991599197
:10322000C40FD51FEC17FD0761F480819181840FD5
:10323000951F0296E90199838883828193819B83FC
:103240008A83E0E0F0E012968D919C9113970097AD
:1032500019F0FD01DC01F7CF8D919C9111979D0133
:103260002E5F3F4F820F931F20910A0230910B0275
:103270002817390769F4309729F410920D0210923B
:103280000C0202C013821282B0930B02A0930A02B6
:10329000DF91CF910895283008F027E03327DA0135
:1032A000990F311D87FD916000966105710539F414
:1032B00032602E5F3D9330E32A95E1F708959F3FFA
:1032C00030F080387105610509F03C5F3C5F3D934B
:1032D000913008F08068911DDF93CF931F930F9377
:1032E000FF92EF92192F987F9695E92F96959695D4
:1032F000E90FFF27E455FE4F99273327EE24FF24DB
:10330000A701E70105900894079428F4360FE71EFB
:10331000F81E491F511D660F771F881F991F0694BD
:10332000A1F70590079428F4E70EF81E491F561FD1
:10333000C11D770F881F991F661F0694A1F705907E
:10334000079428F4F80E491F561FC71FD11D880F78
:10335000991F661F771F0694A1F70590079420F424
:10336000490F561FC71FD81F990F661F771F881F49
:103370000694A9F784911095177041F0D695C795DA
:1033800057954795F794E7941A95C1F7E2E5F1E070
:1033900068941590159135916591959105907FE20E
:1033A0007395E118F10A430B560BC90BD009C0F70E
:1033B000E10CF11E431F561FC91FD01D7EF4703350
:1033C00011F48A95E6CFE894015030F0080F0AF422
:1033D0000027021708F4202F2395022F7A3328F0B4
:1033E00079E37D932A95E9F710C07D932A9589F6B4
:1033F000069497956795379517951794E118F10AF4
:10340000430B560BC90BD00998F023957E91739509
:103410007A3308F070E37C932013B8F77E917061E3
:103420007D9330F0839571E37D9370E32A95E1F706
:103430001124EF90FF900F911F91CF91DF91992769
:1034400087FD90950895FC01059061507040011032
:10345000D8F7809590958E0F9F1F0895FC016150BD
:10346000704001900110D8F7809590958E0F9F1FA6
:1034700008950F931F93CF93DF93FB01238121FDC9
:1034800003C08FEF9FEF2CC022FF16C046815781EB
:10349000248135814217530744F4A081B1819D01F5
:1034A0002F5F3F4F318320838C93268137812F5F9D
:1034B0003F4F3783268314C08B01EC01FB0100844E
:1034C000F185E02D0995892BE1F6D80116968D91AD
:1034D0009C911797019617969C938E931697CE0101
:1034E000DF91CF911F910F9108950F931F93CF9369
:1034F000DF93E0911002F0911102238121FF1BC0A4
:103500008C01D0E0C0E0F80181918F016091100240
:1035100070911102DB011896ED91FC9119978823A7
:1035200031F00995892B79F3DFEFCFEFECCF8AE00B
:103530000995892B19F08FEF9FEF02C08D2F9C2FDB
:10354000DF91CF911F910F910895FA01AA2728309A
:1035500051F1203181F1E8946F936E7F6E5F7F4F60
:103560008F4F9F4FAF4FB1E03ED0B4E03CD0670FDC
:10357000781F891F9A1FA11D680F791F8A1F911D2F
:10358000A11D6A0F711D811D911DA11D20D009F47F
:1035900068943F912AE0269F11243019305D3193C1
:1035A000DEF6CF010895462F4770405D4193B3E0AA
:1035B0000FD0C9F7F6CF462F4F70405D4A3318F051
:1035C000495D31FD4052419302D0A9F7EACFB4E002
:1035D000A6959795879577956795BA95C9F70097BA
:1035E0006105710508959B01AC010A2E069457955B
:1035F000479537952795BA95C9F7620F731F841FB2
:0A360000951FA01D0895F894FFCF58
:10360A000000000200000000AF0700000000180CD4
:10361A000410C080206000001402200048656C6C11
:10362A006F2C20446176696420506572657A2100A6
:00000001FF
