S01700004345454E426F542D50726F6A6563742E73726563E9
S11300000C940B030C9428030C9428030C942803DD
S11300100C948D100C94B6100C94DF100C940811F1
S11300200C9428030C946E0F0C94970F0C94C00F2F
S11300300C943B100C94E90F0C9412100C94641063
S11300400C94F30E0C941C0F0C94450F0C94280381
S11300500C9428030C9428030C9428030C94280370
S11300600C9428030C9428030C9428030C94280360
S11300700C9428030C9428030C9428030763423639
S1130080B79BD8A71A39685618AEBAAB558C1D3C25
S1130090B7CC5763BD6DEDFD753EF6177231BF00E9
S11300A00000803F08000000BE922449123EABAA23
S11300B0AA2ABECDCCCC4C3E00000080BEABAAAA7E
S11300C0AA3E00000000BF000000803F00000000C6
S11300D000084178D3BB4387D1133D190E3CC3BDFF
S11300E04282AD2B3E68EC8276BED98FE1A93E4CAC
S11300F080EFFFBE01C4FF7F3F00000000006E617F
S11301006E00696E660000407A10F35A00A0724EC9
S113011018090010A5D4E80000E87648170000E4A8
S11301200B54020000CA9A3B000000E1F5050000F0
S113013080969800000040420F000000A086010055
S11301400000102700000000E80300000000640025
S1130150000000000A000000000001000000000090
S11301602C76D888DC674F0823DFC1DFAE59E1B1B4
S1130170B796E5E3E453C63AE651997696E8E6C2C3
S11301808426EB898C9B62ED407C6FFCEFBC9C9FCA
S113019040F2BAA56FA5F490055A2AF75C936B6CEC
S11301A0F9676DC11BFCE0E40D47FEF520E6B500E0
S11301B0D0ED902E0300943577050080841E08004E
S11301C000204E0A000000C80C333333330F986EFE
S11301D012831141EF8D2114893BE65516CFFEE6BB
S11301E0DB18D1844B381BF77C1D901DA4BBE42481
S11301F0203284725E228100C9F124ECA1E53D27FE
S113020016050100000000000000FA000000E000F4
S1130210E00028FE28FE282454FE5448C4C81026B2
S1130220466C92AA44A000A0C0000000384482009A
S1130230008244380028107C102810107C10100014
S11302400A0C00001010101010000606000004082C
S11302501020407C8A92A27C0042FE020042868AE0
S113026092628482A2D28C182848FE08E4A2A2A238
S11302709C3C5292920C808E90A0C06C9292926C94
S11302806092929478006C6C0000006A6C0000101C
S113029028448200282828282800824428104080E6
S11302A08A90604C929E827C7E8888887EFE9292A0
S11302B0926C7C82828244FE82824438FE929292C4
S11302C082FE909090807C8292925EFE101010FECE
S11302D00082FE8200040282FC80FE10284482FE1A
S11302E002020202FE403040FEFE201008FE7C8224
S11302F082827CFE909090607C828A847AFE9098C0
S11303009462629292928C8080FE8080FC0202024F
S1130310FCF8040204F8FC021C02FCC6281028C6DF
S1130320E0100E10E0868A92A2C200FE8282004093
S113033020100804008282FE002040804020020237
S11303400202020080402000042A2A2A1EFE1222F1
S1130350221C1C222222041C222212FE1C2A2A2ACB
S113036018107E908040304A4A4A7CFE1020201E9D
S11303700022BE0200040222BC00FE081422000077
S113038082FE02003E2018201E3E1020201E1C2249
S113039022221C3E28282810102828183E3E10200F
S11303A02010122A2A2A0420FC2202043C020204FD
S11303B03E38040204383C020C023C221408142285
S11303C0300A0A0A3C22262A322200106C820000DB
S11303D000FE000000826C100008101008100000DD
S11303E00000007F8181817F7F8383837F7F878774
S11303F0877F7F8F8F8F7F7F9F9F9F7F7FBFBFBFB1
S11304007F7FFFFFFF7F2040FF40206215171565A7
S113041000FBFB00000000000000C0FF0300E0FF41
S11304200700F0FF0F00F8FF1F0078001E0078009F
S11304301E0078001E0078001E0078001E00780060
S11304401E0078001E0078001E0078001E000000C8
S113045000000000000080FF0300E0FF0700F0FF41
S11304600F00F8FF1F00F83C1F00783C1E00783C8A
S11304701E00783C1E00783C1E00783C1E00783C30
S11304801E00783C1E00783C1E00783C1E00783C20
S11304901E000000000000000000E0FF0300F0FF69
S11304A00700F8FF0F00F8FF1F00783C1E00783C9F
S11304B01E00783C1E00783C1E00783C1E00783CF0
S11304C01E00783C1E00783C1E00783C1E00783CE0
S11304D01E000000000000000000F8FF0300F8FF09
S11304E00F00F8FF1F00F8FF1F0000001E000000AF
S11304F01E0000801F0000F01F0000FF0F00E0FF3F
S11305000700F0FF0000F80F0000F800000078007A
S1130510000078000000F8FF1F00F8FF1F00F0FF44
S11305201F00E0FF1F000000000000000000F8FFB3
S11305301F00F8FF1F00F8FF1F00F8FF1F007800DE
S11305401E00783C1E00783C1E00783C1E00783C5F
S11305501E00783C1E00783C1E00F87E1F00F8FF49
S11305601F00F0FF0F00E0E70300000000000000A0
S11305703800EEFF6C002A8045003A0047FC03FF78
S11305806CFC83FF3900DEFF0B7CD0810BFCD08137
S11305900BC0D0810BFCD0810B7CDEFF0B0082FFF3
S11305A0397002FF6CF83A0047DC2A8045CCEEFF34
S11305B06CCC000038000000000C00001E0C000091
S11305C01E0000001E0000001E0000001E00F8FFB8
S11305D01F00F8FF1F00F8FF1F00F8FF1F000000B6
S11305E01E0000001E0000001E0000001E0000008F
S11305F05E000000400000007C000000400000009D
S1130600400000007C0000003000000010000000EA
S1130610300000007C0011241FBECFEFD8E0DEBF05
S1130620CDBF11E0A0E0B1E0E4E0F9E402C0059040
S11306300D92A837B107D9F722E0A8E7B1E001C0CD
S11306401D92A439B207E1F70E9496060C94802407
S11306500C940000CF93DF93FC01308120910B02B6
S1130660321303C0208121111EC0EC010E949F0699
S11306708881813059F038F0823059F0833061F448
S113068082E591E00BC081E291E008C089E391E04A
S113069005C086E491E002C08CE591E00E94F2235B
S11306A0888180930B02DF91CF910895DC01FB01D7
S11306B09C918081981325C011962D913C9112979D
S11306C08181928128173907E1F413962D913C9189
S11306D01497838194812817390799F415962D91DD
S11306E03C911697858196812817390751F41796FE
S11306F04D915C9118972781308581E0421753070B
S113070009F080E00895CF93DF93EC019B01809181
S11307100A0281110AC041E061E081E092E00E9496
S11307203C0E81E080930A0211C080910702882365
S113073069F080E40E94C40780E00E94440D88832D
S113074081E00E94440D898310920702DF91CF91CA
S11307500895CF92DF92EF92FF92CF93DF93EC0153
S11307609B018091000281110AC041E061E087EFA2
S113077091E00E943C0E81E08093000242C080918F
S1130780FD018823F1F180E20E94C40781E00E9408
S1130790490683E00E9454060E942C06BC0180E0B6
S11307A090E00E943E1E20E030E040EA50E40E94C7
S11307B00E1F20E030E040E85AE30E940E1F6B0158
S11307C07C0185E00E9454060E942C06BC0180E056
S11307D090E00E943E1E20E030E040EA50E40E9497
S11307E00E1F20E030E040E85AE30E940E1FCA8248
S11307F0DB82EC82FD826E837F83888799871092E7
S1130800FD01DF91CF91FF90EF90DF90CF9008959D
S1130810FC0181E0808388EC90E09283818394835F
S1130820838380E991E09683858390878783089505
S11308304F925F926F927F928F929F92AF92BF92EC
S1130840CF92DF92EF92FF920F931F93CF93DF9398
S1130850EC013B01FB01D080F1E0DF124DC0E2E08E
S11308609E2E988260E082E00E94990C1F921F9253
S11308701F92DF92F0E94F2E4F921F92A8EC5A2E4E
S11308805F921F9286E98F9388248394A12CB12CC4
S1130890C12CB0E9EB2EFF24F39408EC10E026E918
S11308A030E041E062E080E00E943E091F921F9226
S11308B01F92DF924F921F925F921F9285E88F934F
S11308C025E830E040E062E080E00E943E09988242
S11308D088EC90E09A8389839C838B8380E991E000
S11308E09E838D8398878F838DB79EB742960FB66C
S11308F0F8949EBF0FBE8DBFF301D180F1E0DF12EB
S11309004EC042E0942E988260E082E00E94990CEE
S11309101F921F921F92DF9250E9452E4F921F9211
S113092068EC562E5F921F9286E98F9388248394F5
S1130930A12CB12CC12C70E9E72EFF24F39408EC10
S113094010E026E930E041E062E080E00E943E09E8
S11309501F921F921F92DF924F921F925F921F92DB
S113096085E88F93812C25E830E041E062E080E067
S11309700E943E09988288EC90E09A8389839C8344
S11309808B8380E991E09E838D8398878F838DB7D5
S11309909EB742960FB6F8949EBF0FBE8DBFF3016B
S11309A08181813009F052C0D080F1E0DF124EC065
S11309B082E0782E788260E082E00E94990C1F9297
S11309C01F921F92DF9290E9992E9F921F9228EC1A
S11309D0622E6F921F9286E98F9388248394A12CB0
S11309E0B12CC12C30E9E32EFF24F39408EC10E081
S11309F026E930E041E062E080E00E943E091F9277
S1130A001F921F92DF929F921F926F92DF928AE051
S1130A108F93812C2AE031E041E062E080E00E9483
S1130A203E09788288EC90E09A8389839C838B8347
S1130A3080E991E09E838D8398878F838DB79EB7DD
S1130A4042960FB6F8949EBF0FBE8DBFDF91CF9133
S1130A501F910F91FF90EF90DF90CF90BF90AF90D8
S1130A609F908F907F906F905F904F900895CF9359
S1130A700E942A1D20E030E040E05FE30E940E1F48
S1130A80C1E020E030E040E050E40E94CC1E1816A3
S1130A900CF0C0E08C2FCF910895CF92DF92EF92AB
S1130AA0FF920F931F93CF93DF93EC018B01FB0114
S1130AB06281738184819581268137814085518546
S1130AC00E942A1D20E030E040E05FE30E940E1FF8
S1130AD020E030E040E050E40E94CC1E18169CF563
S1130AE0F8016681778180859185228133814481F3
S1130AF055810E94291D20E030E048E452E40E9420
S1130B000E1F6B017C019B01AC0160E070E088E486
S1130B1093E40E94291D0E94081E7A83698320E0C1
S1130B2030E048E453E4C701B6010E942A1D0E9444
S1130B30081E7C836B8380E991E09E838D83988774
S1130B408F8383E08883DF91CF911F910F91FF9072
S1130B50EF90DF90CF900895CF93DF93EC016EEE8A
S1130B6071E00E945603811114C06F8178858D81D4
S1130B709E810E94E30A6B817C8189819A810E9413
S1130B80800A89E0FE01AEEEB1E001900D928A95F3
S1130B90E1F7DF91CF910895CF93DF93CDB7DEB71F
S1130BA02A970FB6F894DEBF0FBECDBF0E94B907D7
S1130BB00E94C1060E94D7090E94210610920E02CB
S1130BC010920D021092100210920F021092120253
S1130BD010921102109214021092130210920C023D
S1130BE08BE691E00E94F22388EB9BE00E940F0EBB
S1130BF00E949F066DE770E0CE0101960E94830378
S1130C006DE770E0CE0101960E94A9038CE092E0AA
S1130C100E940804BE016F5F7F4F8CE092E00E9447
S1130C201804BE016F5F7F4F8CE092E00E944D0577
S1130C308CE092E00E94AC058CE092E00E942A03D2
S1130C40D9CF8FE00E942B0D882311F082E0089504
S1130C500E948B0681E008958FE00E94380D88235E
S1130C6019F420E030E013C080917A00806480930E
S1130C707A0080917A0086FDFCCF30917800209133
S1130C807900922F80E0232F30E0282B392BC901E3
S1130C900895ECE7F0E090818295880F880F807CBE
S1130CA09F73982B90830895582F8091000188306A
S1130CB0D8F440917E0021E030E0B90102C0660F13
S1130CC0771F8A95E2F7CB018095842380937E0079
S1130CD080917E00052E02C0220F331F0A94E2F792
S1130CE0822B80937E000DC020917E0081E090E0F5
S1130CF0052E02C0880F991F0A94E2F7282B20932F
S1130D007E005093000180917C005F71807E852B72
S1130D1080937C0008958FE180937C00EAE7F0E003
S1130D2087E0808380818068808308950E94F10E2B
S1130D300E94E30E0E94CC0580E090E008950F939A
S1130D401F9385E00E94380D8823C1F080E460E0A1
S1130D500E949C0700E0802F60E00E94470710E09B
S1130D6080E061E00E949C071F5F1038C9F70F5FA5
S1130D70043089F783E060E00E948A071F910F9195
S1130D8008950F931F9385E00E942B0D882311F083
S1130D9082E07AC00E94E707182F0E94AA0D115022
S1130DA0123008F06DC08150823008F069C00E9492
S1130DB0B7078EEA60E00E949C0782EA60E00E9426
S1130DC09C0780EA60E00E949C0700E513ECC801E0
S1130DD00197F1F780EC60E00E949C078FE260E0ED
S1130DE00E949C0781E860E00E949C0786E160E025
S1130DF00E949C0782E260E00E949C07C801019760
S1130E00F1F78FEA60E00E949C0786EA60E00E94A6
S1130E109C0785EA60E00E949C0780E090E028E857
S1130E2033E1F9013197F1F7019643E0883E9407E5
S1130E30C1F783EB60E00E949C0780E460E00E94BD
S1130E409C0783E060E00E94470783E060E00E9423
S1130E508A0710922C0210922E0210922D0285E025
S1130E6091E0909391028093900288E10E94690737
S1130E700E949F0684EA60E00E949C0781E004C00F
S1130E8085E00E941B0D87E01F910F910895FF924A
S1130E900F931F93082FF62E85E00E94380D8823A8
S1130EA0A1F01F2D1F770370802F806B60E00E94DC
S1130EB09C0712951F70812F806160E00E949C073F
S1130EC08F2D8F7060E00E949C071F910F91FF90FF
S1130ED008951F93182F85E00E94380D8823C1F0D0
S1130EE087E00E94290882E06AE00E947A0882E092
S1130EF061EB0E947A08612F113208F060E282E00F
S1130F000E947A0889EE8A95F1F787E00E94290801
S1130F101F9108950F931F93082F162F85E00E94A9
S1130F20380D882331F003701F7710932A02009341
S1130F302B021F910F9108950F931F93082F162FC3
S1130F4085E00E94380D882379F0112319F01130BF
S1130F5021F402C02B9801C02B9A86E08A95F1F700
S1130F6080E0602F0E947A081F910F910895239AC0
S1130F70089586E00E942B0D882311F082E00895E5
S1130F800E94D00781E008951F93182F86E00E94E5
S1130F90380D882319F0812F0E94D9071F910895D5
S1130FA0559A569A80E20E94EF1180E40E94EF1154
S1130FB00895282F85FF04C08BB190E289278BB94F
S1130FC026FF04C08BB190E489278BB9089582E091
S1130FD00E942B0D882311F082E008950E94890855
S1130FE080E066E772E10E94200881E06EE672E12B
S1130FF00E94200882E066E672E10E94200886E0F2
S11310006EE772E10E94200883E06EE572E10E94BF
S1131010200884E06EE572E10E94200885E06EE518
S113102072E10E94200887E06EE572E10E942008C8
S11310308FEF80932F0287E00E94290881E00895B2
S1131040E82FF0E0EE0FFF1FE953FE4F718360833A
S113105008951F93182F82E00E94380D882309F405
S113106047C0912F977080912F02981709F440C0C0
S113107090932F0285B1887F892B85B9933011F124
S1131080943028F4913051F0923090F40CC09530A3
S113109019F19530E0F0963021F50FC0E091C901C7
S11310A0F091CA0122C0E091C701F091C8011DC0AE
S11310B0E091CB01F091CC0118C0E091D301F09103
S11310C0D40113C0E091CD01F091CE010EC0E091A6
S11310D0CF01F091D00109C0E091D101F091D2018A
S11310E004C0E091D501F091D601309709F009953B
S11310F01F9108951F93162F0E94290882E00E94D1
S1131100380D882321F01EBD0DB407FEFDCF1F91BD
S11311100895259A2698279A209A219A229A089522
S11311202F923F924F925F926F927F928F929F92F3
S1131130AF92BF92CF92DF92EF92FF920F931F93E1
S1131140DF93CF930F92CDB7DEB7582E962E442E51
S11311503901C9821501CE88DF88A88CB98C6A8DC3
S11311607B8D81E0981619F1981628F092E0991673
S113117009F070C03EC080E0B7010E94C10A80E05F
S1131180642DA30198010981EE24E39477E6C72E28
S113119072E0D72E0E94810B552009F05BC000D06D
S11311A00F92EDB7FEB71182338222821CC081E018
S11311B00E94C10A81E0682DA60195010C8DEE24E0
S11311C0E39497E6C92E92E0D92E0E94810B552014
S11311D009F040C000D00F92EDB7FEB791828D8D1B
S11311E09E8D938382830E94BE0C0F900F900F906C
S11311F031C0C7010E94E30A00D087E692E0EDB750
S1131200FEB792838183842DB301A8012981082D1F
S113121076016501AC8C882483940E94140C0F9091
S11312200F905520B9F400D000D00F92ADB7BEB7DF
S11312301196EDB7FEB79182FD01328221828D8D28
S11312409E8D948383830E94BE0C0F900F900F9009
S11312500F900F900F90CF91DF911F910F91FF90FE
S1131260EF90DF90CF90BF90AF909F908F907F9042
S11312706F905F904F903F902F9008954F925F92A0
S11312807F928F929F92AF92BF92CF92DF92EF9212
S1131290FF920F931F93DF93CF93CDB7DEB7562FF3
S11312A0942E7C2CAA89BB89CC88DD886E897F89A1
S11312B0988D813009F445C0813030F1823009F0D5
S11312C066C0513071F0513020F0523009F05FC0E7
S11312D011C080E0B7010E94C10A80E0692DA80115
S11312E006C081E00E94C10A81E0682DA6010E9427
S11312F04C0A4DC0C7010E94E30A892DB801482D4C
S113130096010E94630A43C0EDB7FEB739970FB642
S1131310F894FEBF0FBEEDBF4DB65EB60894411CF7
S1131320511CB283A183F201D382C2827583648388
S11313309683898D9A8D9087878380E0652FC72C4B
S11313401CC0EDB7FEB739970FB6F894FEBF0FBEB9
S1131350EDBFADB6BEB60894A11CB11CB283A18387
S1131360F501D382C28275836483968310861782C3
S113137081E0652FC72CAA24BB240E9490088DB756
S11313809EB709960FB6F8949EBF0FBE8DBFCF913E
S1131390DF911F910F91FF90EF90DF90CF90BF905E
S11313A0AF909F908F907F905F904F90089587E0CB
S11313B00E942B0D882311F082E008950E94110DE4
S11313C081E08093660210923002109231021092F2
S11313D033021092320210923502109234021092AB
S11313E0370210923602109239021092380210928B
S11313F03B0210923A0210923D0210923C0210926B
S11314003F0210923E02109241021092400210924A
S1131410430210924202109245021092440210922A
S1131420470210924602109249021092480210920A
S11314304E0210924F0210925002109251021092DA
S113144053021092540210925502109256021092B6
S11314505702109258021092590210925B02109295
S11314605A0210925D0210925C0210925F02109276
S11314705E02109261021092600210924B0210926E
S11314804A0210924D0210924C0210926502109280
S11314906402109266020895EF92FF920F931F93D5
S11314A0182F062F7A0160E00E94200B812F602FF5
S11314B00E94010B812FB7010E94350B1F910F91E0
S11314C0FF90EF900895CF92DF92EF92FF920F93E7
S11314D01F93C82E7B01D42E890182E060E00E9414
S11314E0200B8C2D6D2D0E94160BC701B8010E9494
S11314F0620B1F910F91FF90EF90DF90CF900895B2
S11315002EEF8037920714F480E79EEFFC0181E010
S1131510E139F80714F0E0E9F1E09B018EEF603760
S1131520780714F420E73EEFA90121E0413952077E
S113153014F040E951E08F2F881F8827881F252F3A
S1131540221F2227221F91E0909366028093530268
S113155020935402CF01F7FF03C0909581959F4FCC
S11315609A0157FF03C0309521953F4F9093330262
S11315708093320230933502209334021092660233
S11315800895482F81E080936602CB0123E0693EF1
S1131590720710F088EE93E0413071F0413018F09A
S11315A0423071F405C090933B0280933A0208C024
S11315B090933B0280933A0290933D0280933C02C5
S11315C010926602089521E020936602AC0183E044
S11315D0493E580710F048EE53E09B0183E0693E12
S11315E0780710F028EE33E0F89450933B024093D0
S11315F03A0230933D0220933C02789410926602A2
S11316000895982F81E080936602913051F09130D3
S113161018F0923041F403C06093530204C0609305
S113162053026093540210926602089591E09093DD
S11316306602E3E5F2E08193608310926602089506
S1131640982F81E080936602913051F0913018F028
S1131650923041F403C06093300204C060933002BE
S113166060933102109266020895482F81E08093BE
S11316706602CB0121E06139720710F080E991E044
S1131680413061F0413018F04230C9F40EC0F89492
S11316909093330280933202789411C0F89490931B
S11316A035028093340278940AC0F89490933302FC
S11316B0809332029093350280933402789410928E
S11316C066020895AC0181E080936602F894CB0130
S11316D021E06139720710F080E991E090933502BE
S11316E0809334029A0181E04139580710F020E9CF
S11316F031E03093330220933202789410926602E0
S113170008958F929F92AF92BF92CF92DF92EF9201
S1131710FF920F931F93CF93DF93182FF62E4A0156
S11317205901E60187E00E94380D882309F46FC04F
S1131730812F61E00E94200B812FB401A5010E943A
S11317405814812F6F2D0E94010B812F602F0E944E
S11317504314812FB4010E941B14C114D10499F0C5
S1131760113049F0113018F0123069F406C01882B3
S11317701092620208C0198204C018821982109261
S1131780620210926302D0936502C0936402EE2059
S1131790B9F588E791E09093650280936402812F04
S11317A0B5010E94350B812F0E940614113071F08F
S11317B0113018F0123059F512C0109278011092BD
S11317C06202809178018823E1F321C010927901AB
S11317D010926302809179018823E1F318C010927A
S11317E07801109279011092620210926302809142
S11317F078018823E1F3809179018823C1F307C03C
S1131800812FB5010E94350B812F0E940614DF91B0
S1131810CF911F910F91FF90EF90DF90CF90BF90E9
S1131820AF909F908F9008953F924F925F926F92E6
S11318307F928F929F92AF92BF92CF92DF92EF925C
S1131840FF920F931F93DF93CF93CDB7DEB7982EFC
S11318502B013A01322EB02E0C891D8987E00E949B
S1131860380D882309F453C082E061E00E94200B04
S113187080E0B201A3010E94581481E0B701A601DF
S11318800E945814892D6B2D0E94160B80E0632D45
S11318900E94431481E06A2D0E944314C201B701DF
S11318A00E9436140115110539F0F80110821182D5
S11318B01092620210926302109365020093640214
S11318C08820F1F48AE791E09093650280936402A2
S11318D0C301B6010E94620B82E00E9406141092BA
S11318E07A0110927B01109262021092630280913D
S11318F07A018823E1F380917B018823C1F307C037
S1131900C301B6010E94620B82E00E940614CF91CB
S1131910DF911F910F91FF90EF90DF90CF90BF90D8
S1131920AF909F908F907F906F905F904F903F907B
S113193008950F931F93182F062F662349F460E030
S113194070E00E94350B812F60E070E00E941B1450
S113195081E080936602113051F0113018F012309A
S113196041F403C000934E0204C000934E0200935E
S11319704F02109266021F910F910895CF92DF9249
S1131980EF92FF920F931F93DF93CF93CDB7DEB700
S11319901B8587E00E94380D8823D1F1113061F056
S11319A0113018F01230A1F511C0EC85FD8580913D
S11319B067028823E1F306C0EC85FD858091680207
S11319C08823E1F3309721F1099522C0CC84DD848A
S11319D0EE84FF8400E010E0002351F4809167025C
S11319E0882331F0C114D10411F0F601099501E006
S11319F0112351F480916802882331F0E114F10439
S1131A0011F0F701099511E0002331F3112321F3BB
S1131A10CF91DF911F910F91FF90EF90DF90CF90C6
S1131A2008953A9A3B9A3C9A3D9A3E9A3F9A88B1D5
S1131A30837088B90895853160F4E82FF0E0EB5E97
S1131A40FD4F8081882329F08081815080838081AB
S1131A5008958FEF0895853110F080E00895E82F00
S1131A60F0E0EB5EFD4F80818F5F808381500895AD
S1131A70853110F080E00895E82FF0E0EB5EFD4F33
S1131A808081811181E008951F93182F80917D0139
S1131A90882341F080918401882399F010927D017C
S1131AA0109284010E94790D80937C018EE791E06D
S1131AB061E040E028E230E00E943C0E81E0809347
S1131AC07D0190917C01133018F0133079F409C032
S1131AD0E12FF0E0EF5FFE4F8081892341F081E048
S1131AE006C091FF03C0892F817001C080E01F915F
S1131AF008950F931F9381E00E94380D882311F4F9
S1131B0000E024C087E00E94290882E06AE00E9485
S1131B107A0882E062EB0E947A0818EC812F8A9599
S1131B20F1F782E060E00E948712082F812F8A95E6
S1131B30F1F782E060E00E9487121A95F1F787E0DE
S1131B400E94290888E893E10197F1F7802F1F91FB
S1131B500F910895DF93CF9300D00F92CDB7DEB7E6
S1131B6081E00E942B0D882311F082E011C00E94B5
S1131B70E7078150823040F40E94CE0DCE010196D9
S1131B800E94AC1481E004C081E00E941B0D87E038
S1131B900F900F900F90CF91DF91089510927E02D5
S1131BA010927D021092800210927F0210928202A3
S1131BB01092810210928402109283021092860283
S1131BC01092850280E991E090936A028093690201
S1131BD090936C0280936B0290936E0280936D02DB
S1131BE09093700280936F029093720280937102BB
S1131BF084E398E090937402809373029093760246
S1131C0080937502909378028093770290937A027E
S1131C108093790290937C0280937B0208950F93C2
S1131C201F93DF93CF93CDB7DEB729970FB6F89400
S1131C30DEBF0FBECDBF8C0188E00E94380D882323
S1131C4011F491E00DC0CE01019661E040E09801ED
S1131C500E943C0E982F882319F48F818823E9F37E
S1131C60892F29960FB6F894DEBF0FBECDBFCF9152
S1131C70DF911F910F910895EF92FF920F931F939D
S1131C80CF93DF93EC01F62EE42E890188E00E94C5
S1131C90380D882311F481E026C084E090E00E948E
S1131CA0A721FC01009711F482E01DC0F982F0FC29
S1131CB01E8281E0E81619F4898184608983898110
S1131CC0886089831B830A831D830C83D183C0832B
S1131CD01382128281E08093E701CF010E947A0E81
S1131CE01092E70180E0DF91CF911F910F91FF9057
S1131CF0EF900895CF92DF92EF92FF920F931F938C
S1131D00CF93DF93EC0180918702882339F4D09339
S1131D108902C09388020E94051547C0C0908802BA
S1131D20D090890200E010E0EE24FF2437C0A8819F
S1131D30B981FD0164817581F60140815181FA0107
S1131D40848195819B01281B390B37FF0FC0861BAB
S1131D50970B95838483DB82CA82012B29F4D09369
S1131D608902C093880221C0F7010CC0F601828168
S1131D7093812115310549F4FD01158214829B8359
S1131D808A83F601D383C28310C0FD013583248383
S1131D900097B9F30F5F1F4F76016C0180918702A2
S1131DA090E00817190718F2ECCF809187028F5F33
S1131DB080938702DF91CF911F910F91FF90EF9055
S1131DC0DF90CF9008950E9495140E9400120E9403
S1131DD031110E94E9140E94E7070E94AA0D789429
S1131DE00895000008951F920F920FB60F921124C8
S1131DF02F933F934F935F936F937F938F939F930F
S1131E00AF93BF93EF93FF93E091A701F091A801E3
S1131E10309709F00995FF91EF91BF91AF919F9190
S1131E208F917F916F915F914F913F912F910F907F
S1131E300FBE0F901F9018951F920F920FB60F921E
S1131E4011242F933F934F935F936F937F938F93BB
S1131E509F93AF93BF93EF93FF93E091A901F09108
S1131E60AA01309709F00995FF91EF91BF91AF91C5
S1131E709F918F917F916F915F914F913F912F919E
S1131E800F900FBE0F901F9018951F920F920FB6D0
S1131E900F9211242F933F934F935F936F937F93EC
S1131EA08F939F93AF93BF93EF93FF93E091AB0115
S1131EB0F091AC01309709F00995FF91EF91BF9132
S1131EC0AF919F918F917F916F915F914F913F91CE
S1131ED02F910F900FBE0F901F9018951F920F9285
S1131EE00FB60F9211242F933F934F935F936F93E9
S1131EF07F938F939F93AF93BF93EF93FF93E0915F
S1131F009901F0919A01309709F00995FF91EF91A9
S1131F10BF91AF919F918F917F916F915F914F91FD
S1131F203F912F910F900FBE0F901F9018951F9205
S1131F300F920FB60F9211242F933F934F935F93F9
S1131F406F937F938F939F93AF93BF93EF93FF937D
S1131F50E0919B01F0919C01309709F00995FF9164
S1131F60EF91BF91AF919F918F917F916F915F910D
S1131F704F913F912F910F900FBE0F901F90189586
S1131F801F920F920FB60F9211242F933F934F93EA
S1131F905F936F937F938F939F93AF93BF93EF93CD
S1131FA0FF93E0919D01F0919E01309709F009950E
S1131FB0FF91EF91BF91AF919F918F917F916F911D
S1131FC05F914F913F912F910F900FBE0F901F90F3
S1131FD018951F920F920FB60F9211242F933F93CF
S1131FE04F935F936F937F938F939F93AF93BF931D
S1131FF0EF93FF93E091A101F091A201309709F0D2
S11320000995FF91EF91BF91AF919F918F917F912E
S11320106F915F914F913F912F910F900FBE0F9051
S11320201F9018951F920F920FB60F9211242F93A1
S11320303F934F935F936F937F938F939F93AF934C
S1132040BF93EF93FF93E091A301F091A401309724
S113205009F00995FF91EF91BF91AF919F918F91F5
S11320607F916F915F914F913F912F910F900FBE90
S11320700F901F9018951F920F920FB60F92112474
S11320802F933F934F935F936F937F938F939F937C
S1132090AF93BF93EF93FF93E0919F01F091A00161
S11320A0309709F00995FF91EF91BF91AF919F91FE
S11320B08F917F916F915F914F913F912F910F90ED
S11320C00FBE0F901F9018951F920F920FB60F928C
S11320D011242F933F934F935F936F937F938F9329
S11320E09F93AF93BF93EF93FF93E091A501F0917A
S11320F0A601309709F00995FF91EF91BF91AF9137
S11321009F918F917F916F915F914F913F912F910B
S11321100F900FBE0F901F9018951F920F920FB63D
S11321200F9211242F933F934F935F936F937F9359
S11321308F939F93AF93BF93EF93FF93E0918F019E
S1132140F0919001309709F00995FF91EF91BF91BB
S1132150AF919F918F917F916F915F914F913F913B
S11321602F910F900FBE0F901F9018951F920F92F2
S11321700FB60F9211242F933F934F935F936F9356
S11321807F938F939F93AF93BF93EF93FF93E091CC
S11321909101F0919201309709F00995FF91EF9127
S11321A0BF91AF919F918F917F916F915F914F916B
S11321B03F912F910F900FBE0F901F9018951F9273
S11321C00F920FB60F9211242F933F934F935F9367
S11321D06F937F938F939F93AF93BF93EF93FF93EB
S11321E0E0919301F0919401309709F00995FF91E2
S11321F0EF91BF91AF919F918F917F916F915F917B
S11322004F913F912F910F900FBE0F901F901895F3
S11322101F920F920FB60F9211242F933F934F9357
S11322205F936F937F938F939F93AF93BF93EF933A
S1132230FF93E0919501F0919601309709F009958B
S1132240FF91EF91BF91AF919F918F917F916F918A
S11322505F914F913F912F910F900FBE0F901F9060
S1132260189580E10E942B0D882311F082E00895D7
S1132270E7E8F1E01192119281E0E73CF807D1F729
S113228081E00895FF920F931F93CF93DF93F82E6D
S11322908AE0F816B1F08F1548F0E8E0FE16B9F1BF
S11322A0EF1538F1F7E0FF1651F43BC08DE0F81656
S11322B059F0EBE1FE1689F0FCE0FF1641F001E075
S11322C041C010922A0203C010922A023AC080919F
S11322D02B02815080932B0234C00E949F0614C0AD
S11322E080E061E00E949C0780912A028F5F8093C6
S11322F02A0280912A0287FFF3CF10922A0280914A
S11323002B02815080932B0200E011E01CC08091CD
S11323102A028823B1F080912A02865080932A02EF
S113232010C081E00E94581364EF71E080E090E0F7
S11323304DE750E024E630E00E94641381E00E94FF
S1132340BF1200E010E080912B0260912A020E94EB
S11323504707002351F185E0F89EC0011124EC01E8
S1132360CD59DE4F8C0108591E4FFE01849161E066
S11323700E949C072196C017D107B9F780E061E05D
S11323800E949C0780912A028A5F80932A0280918E
S11323902A0290E08C3791053CF010922A02809139
S11323A02B02815080932B0211E080912B028370C9
S11323B080932B02113059F480912C02813039F42E
S11323C0E0912D02F0912E02309709F0099580E0FA
S11323D090E0DF91CF911F910F91FF9008951F938B
S11323E0182F86E00E94380D882319F0812F0E944F
S11323F0FB111F91089585FD5D9886FD5E980895F3
S1132400F8940E945B1281E00E94081281E0089512
S1132410813049F0F894813020F18230B1F083307A
S113242009F045C017C02C9A80E88093610010928F
S1132430610080E090E00000019688329105D9F7B0
S11324401092680010926B00089580E880936100F8
S113245083E004C080E88093610088E08093610099
S113246028C080E090E0000001962DE680369207B7
S1132470D1F72C9880E090E0000001962DE680369C
S11324809207D1F710927A008FEF809364008091C5
S1132490680081608093680080916B008460809301
S11324A06B00789483B7816083BF889508958230E8
S11324B008F078940895249A2C9A089583E58CBDA5
S11324C081E08DBD8DE08A95F1F7089583E58CBD9B
S11324D01DBC84EF91E00197F1F708958FE78CBD5F
S11324E01DBC84EF91E00197F1F7089583E58CBD5D
S11324F081E08DBD8DE08A95F1F7089583E58CBD6B
S113250081E08DBD84EF91E00197F1F708951F9369
S1132510162F0E94290882E00E94380D882329F092
S11325201EBD0DB407FEFDCF8EB51F9108958AE040
S11325300E941B0D882329F481E00E94BA13109293
S1132540D801089589E00E941B0D8823B9F4809175
S1132550D701882311F00E94001482E00E94BA136C
S11325608091E5019091E601009731F00E943F22AD
S11325701092E6011092E5011092D701089581307E
S113258029F0823029F40E94A21208950E94971221
S113259008950F931F93CF93DF9380E291E00E94FD
S11325A0A7219C019093E6018093E501892B11F406
S11325B080E039C08901C0E0D0E0BE0180E090E055
S11325C00E943E1E20E030E040EA51E40E94961D45
S11325D027EF35E740E05FE30E940E1F9B01AC014B
S11325E060E070E080E291E40E947B1F9B01AC01FB
S11325F0CA01B9012DEC3CEC42E851E40E940E1FE3
S11326000E94D11E2AE030E040E050E00E942421E4
S1132610F80161937193819391938F012196C8344A
S1132620D10559F681E0DF91CF911F910F91089563
S11326308AE00E942B0D882311F082E00895109205
S1132640E2011092E10181E00E94D61381E08093BF
S1132650D80108951F9389E00E942B0D882311F05F
S113266082E024C08BE00E94380D8823D9F40E94B4
S1132670C912182F813011F086E018C01092D901C8
S11326801092DA011092DB011092DC018DE06DE30F
S113269075E10E94181582E00E94D6131093D701A9
S11326A081E004C089E00E941B0D87E01F9108951A
S11326B0813021F0823029F084E008950E941813BB
S11326C008950E942A1308956F927F928F929F9289
S11326D0AF92BF92CF92DF92EF92FF920F931F932C
S11326E0CF93DF933B014C015A01E9018AE00E9438
S11326F0380D882381F1209741F19501442737FD56
S11327004095542FBE01C536D10510F064E670E043
S113271080E090E00E94242124E630E040E050E094
S11327200E94342179018A01C401B3010E94401539
S1132730C7010E940F0E60E070E080E090E00E940C
S11327404015C5018E199F0904C0A114B10419F0E4
S1132750C5010E940F0EDF91CF911F910F91FF9041
S1132760EF90DF90CF90BF90AF909F908F907F902D
S11327706F900895823029F4809181008E7F809338
S113278081008091D701813031F48091D80181306A
S113279011F4000008958091D701813021F08091D7
S11327A0D801813011F45F9857980895982F80913B
S11327B0D701882331F48091D801882311F4579AE2
S11327C05F988091D7018823D1F49230C1F410929C
S11327D08000109281008091810088608093810044
S11327E08091810081608093810010928500109215
S11327F0840081E08093890080E9809388000895B3
S1132800EFE6F0E080818D7F80830895982F81E04A
S113281080936602913051F0913018F0923041F477
S113282003C010924E0204C010924E0210924F0246
S1132830109266020895982F81E080936602913089
S113284071F0913018F0923071F405C07093430226
S11328506093420208C070934302609342027093F3
S113286045026093440210926602089521E0209389
S11328706602E2E4F2E0918380833296718360839E
S1132880109266020895982F81E080936602913039
S113289051F0913018F0923041F403C0609350022B
S11328A004C060935002609351021092660208952E
S11328B00F931F93CF93DF93EB018A01813001F1D2
S11328C0813018F0823061F50DC080913A02909108
S11328D03B02892B11F080E01AC01092470210923B
S11328E046021EC080913A0290913B02892B21F04E
S11328F080E00E94A51504C010924702109246027F
S113290080913C0290913D02892B31F081E0BE011F
S1132910A8010E94A51504C0109249021092480211
S1132920DF91CF911F910F910895CF93DF93C0E072
S1132930D0E08C2F60E00E94A4142196C531D1050B
S1132940C1F7DF91CF910895853128F4E82FF0E0A5
S1132950EB5EFD4F608308951F93CF93DF93EC01EB
S1132960009799F181E00E94380D882351F187E0A6
S11329700E94290818EC812F8A95F1F782E06AE019
S11329800E947A0882E064EB0E947A08812F8A957B
S1132990F1F782E060E00E9487128883812F8A9594
S11329A0F1F782E060E00E94871289831A95F1F7BB
S11329B082E060E00E9487128A8387E00E942908EF
S11329C004C0188219828DE28A83DF91CF911F910E
S11329D0089588E00E942B0D882311F082E0089569
S11329E01092870210928902109288021092E701D5
S11329F01092E80180E162E176E10E942C150E94C8
S1132A0009150E94121581E0089581E08093E80180
S1132A10089584B5826084BD85B5846085BD8EE4E7
S1132A2087BD0895EEE6F0E080818260808308959A
S1132A30E82F803268F48051833050F0F0E0EE0FDC
S1132A40FF1FE957FE4F208131817183608302C0EB
S1132A5020E030E0C9010895803218F020E030E031
S1132A600AC0E82FF0E0EE0FFF1FE957FE4F208168
S1132A70318171836083C90108950E9464150895AA
S1132A80EF92FF920F931F937B018C018AE00E94C7
S1132A90380D8823A1F08091D801882381F0D801D2
S1132AA0C701880F991FAA1FBB1F9093E40180934D
S1132AB0E301E114F1040105110509F45F981F9184
S1132AC00F91FF90EF9008958091D9019091DA01D0
S1132AD0A091DB01B091DC012091DD013091DE0198
S1132AE04091DF015091E001280F391F4A1F5B1FFD
S1132AF02093D9013093DA014093DB015093DC0138
S1132B008091D9019091DA01A091DB01B091DC01AF
S1132B108851964FA040B040BCF08BB180588BB91F
S1132B208091D9019091DA01A091DB01B091DC018F
S1132B308851964FA040B0408093D9019093DA0118
S1132B40A093DB01B093DC010895EF92FF920F9301
S1132B501F93CF93DF93EB01882321F0813009F099
S1132B605AC02DC09A0140E050E0CA01B9010E9448
S1132B70242120913A0230913B02220F331F40E07E
S1132B8050E00E94342179018A01A8019701220FA3
S1132B90331F441F551FCE01A0E0B0E082179307F6
S1132BA0A407B50728F0F0924702E092460233C02A
S1132BB0D695C795D0934702C09346022CC09A017C
S1132BC040E050E0CA01B9010E94242120913C0256
S1132BD030913D02220F331F40E050E00E94342127
S1132BE079018A01A8019701220F331F441F551F41
S1132BF0CE01A0E0B0E082179307A407B50728F040
S1132C00F0924902E092480206C0D695C795D09347
S1132C104902C0934802DF91CF911F910F91FF9019
S1132C20EF9008950E9419160E9459160E943216B8
S1132C30089588E00E94380D882311F484E00895F3
S1132C408091E801882311F483E008958091E701DD
S1132C50882311F082E008950E94A6188130E1F3E0
S1132C6080E008958091D801813011F58091E101CF
S1132C709091E2012091E3013091E401280F391F82
S1132C803093E2012093E1018091E1019091E2010E
S1132C90885E93406CF08BB180588BB98091E101D0
S1132CA09091E201885E93409093E2018093E10168
S1132CB0089587E00E94380D882309F4AAC0809102
S1132CC03A0290913B02892B09F180915E02909126
S1132CD05F0220913A0230913B02820F931F90933E
S1132CE05F0280935E0280915E0290915F02885E33
S1132CF09340A4F080915E0290915F02885E9340BD
S1132D0090935F0280935E0241E009C08091320299
S1132D1090913302909337028093360240E0809181
S1132D203C0290913D02892B09F1809160029091BF
S1132D30610220913C0230913D02820F931F9093D7
S1132D406102809360028091600290916102885ECA
S1132D509340A4F08091600290916102885E934058
S1132D60909361028093600261E009C08091340213
S1132D7090913502909339028093380260E0842F59
S1132D800E940A1780915A0290915B0220913602A8
S1132D9030913702280F391F30935B0220935A0277
S1132DA080915A0290915B02885E934014F440E053
S1132DB00BC080915A0290915B02885E934090937D
S1132DC05B0280935A0241E080915C0290915D0223
S1132DD02091380230913902280F391F30935D0257
S1132DE020935C0280915C0290915D02885E934026
S1132DF014F460E00BC080915C0290915D02885EE7
S1132E00934090935D0280935C0261E0842F0E9462
S1132E104F1708958823F1F0209132023091330244
S1132E208091360290913702281B390B1216130633
S1132E3034F48091360290913702019607C0232B17
S1132E4049F08091360290913702019790933702AE
S1132E5080933602662311F12091340230913502B9
S1132E608091380290913902281B390B12161306EF
S1132E7054F480913802909139020196909339026A
S1132E80809338020895232B49F080913802909161
S1132E9039020197909339028093380208950F9371
S1132EA01F93182F062F80916602882309F0E7C02C
S1132EB080914E02882309F05AC080913602909185
S1132EC03702892BE9F48091E901837E8093E9013B
S1132ED01092570280916202882309F45DC06091C8
S1132EE0500280E00E94990CE0916402F091650226
S1132EF0309709F451C081E08083109262024CC083
S1132F0080913002813041F48091420290914302D9
S1132F10019711F411E002C01123F1F1E09155027F
S1132F20F0E0ED5EFE4F9091E901937E8081892B64
S1132F308093E90180915302882321F48091550202
S1132F408F5F03C080915502815080935502809118
S1132F50550283708093550281E0809357028091DB
S1132F6030028130C9F480E00E94521815C090915B
S1132F70E901937E9093E901E0915502F0E0ED5E62
S1132F80FE4F8081892B8093E90182E08093570270
S1132F90109237021092360280914F02882309F072
S1132FA059C08091380290913902892BE9F48091BB
S1132FB0E9018F718093E9011092580280916302B4
S1132FC0882309F45CC06091510281E00E94990C4D
S1132FD0E0916402F0916502309709F450C081E0F9
S1132FE08183109263024BC080913102813041F49D
S1132FF08091440290914502019711F401E002C0CE
S11330000023E9F1E0915602F0E0E95EFE4F909171
S1133010E9019F718081892B8093E9018091540299
S1133020882321F4809156028F5F03C08091560259
S11330308150809356028091560283708093560289
S113304081E080935802809131028130C1F40E9462
S1133050521815C09091E9019F719093E901E09194
S11330605602F0E0E95EFE4F8081892B8093E901EE
S113307082E08093580210923902109238028091B3
S11330805902882331F489EE91E0612F402F0E9488
S1133090141988B183709091E901892B88B91F9123
S11330A00F910895882321F0813009F04EC027C084
S11330B08091420290914302892B49F0809142020F
S11330C0909143020197909343028093420280912E
S11330D062028823D1F5209142023091430280910B
S11330E04602909147022817390779F580E060E09D
S11330F070E00E94350B81E0809362020895809114
S1133100440290914502892B49F0809144029091A8
S11331104502019790934502809344028091630293
S1133120882399F420914402309145028091480209
S1133130909149022817390741F481E060E070E07A
S11331400E94350B81E0809363020895FF920F93F0
S11331501F93CF93DF9380918702882309F459C08A
S11331600091880210918902F801C081D1818C817B
S11331709D8101979D838C83181619060CF449C010
S1133180898180FF05C08E81882311F481E08E83BC
S1133190898181FF03C0EF81F885099580918702B9
S11331A08230A8F0F8018281938190938902809300
S11331B0880213821282E0910000F0910100848160
S11331C09581181619063CF0FF24F39405C010925B
S11331D0890210928802FF24809187028150809393
S11331E0870280918702882311F40E941119898132
S11331F082FF08C08A819B819D838C83C8010E94C1
S11332007A0E08C0C8010E943F2289818F7E89837B
S113321001C0FF248F2DDF91CF911F910F91FF905B
S113322008951092E8010895FC01809157028230BC
S113323069F48091ED0191E089278093ED01882361
S113324009F03EC08081837E80833AC0809136023B
S113325090913702C397A4F56623D1F020913602EA
S11332603091370280E690E0BC01269FC001279F81
S1133270900D369F900D1124880F892F881F990B6C
S113328090934B0280934A0281E08093EB0118C033
S11332908091EB018823A1F080914A0290914B0226
S11332A0019790934B0280934A0280914A02909135
S11332B04B02892B29F48081837E80831092EB0159
S11332C080915802823069F48091EC0191E0892761
S11332D08093EC01882309F03EC080818F71808344
S11332E008958091380290913902C397A4F544233C
S11332F0D1F0209138023091390280E690E0AC019F
S1133300249FC001259F900D349F900D1124880F98
S1133310892F881F990B90934D0280934C0281E072
S11333208093EA0108958091EA018823A1F08091B5
S11333304C0290914D02019790934D0280934C0260
S113334080914C0290914D02892B29F480818F71D8
S113335080831092EA010895A0E1B0E0E2EBF9E184
S11333600C9461217C011B016A01FC011782168205
S1133370838181FF44C39E012F5F3F4F3901F701D1
S11333809381F10193FD859193FF81911F0188231E
S113339009F431C3853239F493FD859193FF81910A
S11333A01F01853239F4B70190E00E94B62356011B
S11333B06501E5CF10E0512C912CFFE1F915D8F00F
S11333C08B3279F038F4803279F08332A1F4F92D1C
S11333D0F0612EC08D3261F0803369F4292D2160B3
S11333E02DC0392D3260932E892D8460982E2AC0E9
S11333F0E92DE86015C097FC2DC020ED280F2A3078
S113340088F496FE06C03AE0139F200D1124122F73
S113341019C08AE0589E200D1124522EE92DE06235
S11334209E2E10C08E3231F496FCE5C2F92DF06464
S11334309F2E08C08C3621F4292D2068922E02C0BC
S1133440883641F4F10193FD859193FF81911F0129
S11334508111B3CF9BEB980F933020F4992D906199
S1133460805E07C09BE9980F933008F066C1992DE0
S11334709F7E96FF16E09F73992E853619F490640B
S1133480992E08C0863621F4392F3068932E02C055
S11334901111115097FE07C01C3350F44424439477
S11334A0410E27E00BC0183038F027E017E005C0C4
S11334B027E09CE3492E02C0212F412C560184E0D1
S11334C0A80EB11CF6016081718182819381042D63
S11334D0A3010E94C8226C01F981FC87F0FF02C09D
S11334E0F3FF06C091FC06C092FE06C000E205C0D0
S11334F00DE203C00BE201C000E08C858C7019F072
S113350001115AC29BC297FE10C04C0CFC85F4FFFB
S113351004C08A81813309F44A94141474F528E0B0
S1133520241578F588E0482E2CC096FC2AC0812FFB
S113353090E08C159D059CF03CEFC3163FEFD3063D
S113354074F0892D8068982E0AC0E2E0F0E0EC0F58
S1133550FD1FE10FF11D8081803319F41150111109
S1133560F4CF97FE0EC044244394410E812F90E083
S1133570C816D9062CF41C1904C04424439401C071
S113358010E097FE06C01C141D0434F4C601019615
S113359005C085E090E002C081E090E00111019651
S11335A0112331F0212F30E02F5F3F4F820F931F03
S11335B0252D30E08217930714F4581A01C0512CBA
S11335C0892D897049F4552039F0B70180E290E0E3
S11335D00E94B6235A94F7CF002329F0B701802F15
S11335E090E00E94B62393FC09C0552039F0B7013E
S11335F080E390E00E94B6235A94F7CF97FE4CC024
S11336004601D7FE02C0812C912CC6018819990964
S1133610F301E80FF91FFE87ED879601241931099C
S1133620388B2F87012F10E01195019511093FEF79
S11336308316930629F4B7018EE290E00E94B62324
S1133640C814D9044CF08F8598898815990524F4F9
S1133650ED85FE85818101C080E3F1E08F1A910838
S11336602D853E852F5F3F4F3E872D87801691061F
S11336702CF0B70190E00E94B623D9CFC814D90426
S113368041F49A81963320F4953319F43C8534FF40
S113369081E3B70190E04EC08A81813319F09C85A3
S11336A09F7E9C87B70190E00E94B623111105C04C
S11336B094FC18C085E690E017C0B7018EE290E054
S11336C00E94B6231E5F82E001E0080FF301E80FB9
S11336D0F11D8081B70190E00E94B623802F011371
S11336E0F3CFE6CF85E490E0B7010E94B623D7FC80
S11336F006C0C114D10441F4EC85E4FF05C0D194A3
S1133700C194D1088DE201C08BE2B70190E00E9420
S1133710B62380E32AE0C216D1042CF08F5FFAE0CE
S1133720CF1AD108F7CFB70190E00E94B623B701B2
S1133730C601C0960E94B62354C1833631F0833744
S113374079F0833509F056C020C0560132E0A30E4B
S1133750B11CF6018081898301E010E0630112C08D
S11337605601F2E0AF0EB11CF601C080D18096FE86
S113377003C0612F70E002C06FEF7FEFC6010E94AB
S1133780AB238C01F92DFF7714C0560122E0A20E61
S1133790B11CF601C080D18096FE03C0612F70E099
S11337A002C06FEF7FEFC6010E94A0238C01F92DA8
S11337B0F0689F2EF3FD1AC0852D90E008171907B5
S11337C0A8F4B70180E290E00E94B6235A94F4CFA3
S11337D0F60197FC859197FE81916F01B70190E006
S11337E00E94B62351105A94015011090115110574
S11337F079F7F7C0843611F0893661F5560197FEE2
S113380009C024E0A20EB11CF6016081718182819D
S113381093810AC0F2E0AF0EB11CF60160817181A0
S1133820072E000C880B990BF92DFF769F2E97FF1E
S113383009C090958095709561957F4F8F4F9F4FEC
S1133840F0689F2E2AE030E0A3010E942224C82EB3
S1133850C6183FC0092D853721F40F7E2AE030E0D9
S11338601DC0097F8F3691F018F4883559F0C3C014
S1133870803719F0883711F0BEC0006104FF09C019
S1133880046007C094FE08C0066006C028E030E06B
S113389005C020E130E002C020E132E0560107FF1C
S11338A009C084E0A80EB11CF60160817181828197
S11338B0938108C0F2E0AF0EB11CF6016081718102
S11338C080E090E0A3010E942224C82EC6180F773E
S11338D0902E96FE0BC0092D0E7FC11650F494FE57
S11338E00AC092FC08C0092D0E7E05C0DC2C092DEF
S11338F003C0DC2C01C0D12E04FF0DC0FE01EC0D71
S1133900F11D8081803311F4097E09C002FF06C0D5
S1133910D394D39404C0802F867809F0D39403FD04
S113392011C000FF06C01C2DD51480F4150D1D19FF
S11339300DC0D51458F4B70180E290E00E94B6237C
S1133940D394F7CFD51410F45D1801C0512C04FFA3
S113395010C0B70180E390E00E94B62302FF17C0B5
S113396001FD03C088E790E002C088E590E0B7015C
S11339700CC0802F867859F001FF02C08BE201C091
S113398080E207FD8DE2B70190E00E94B623C116E4
S113399038F4B70180E390E00E94B6231150F7CFCA
S11339A0CA94F301EC0DF11D8081B70190E00E94EF
S11339B0B623C110F5CF15C0F4E0F51560F584E029
S11339C0581A93FE1FC0011127C02C8523FF2AC05B
S11339D00EEF10E0392D3071932EF801849181118E
S11339E024C0552009F4E4CCB70180E290E00E94A1
S11339F0B6235A94F6CFF7018681978126C08FEFBC
S1133A009FEF23C0B70180E290E00E94B6235A944E
S1133A105110F8CFD8CF512CB701802F90E00E94DD
S1133A20B623D3CF02E011E0D5CF91108052B70175
S1133A3090E00E94B6230F5F1F4FCFCF23E02515E0
S1133A4010F483E0BDCF512CC0CF6096E2E10C941A
S1133A507D215058BB27AA270E94411D0C94921E19
S1133A600E94841E38F00E948B1E20F039F49F3F80
S1133A7019F426F40C94811E0EF4E095E7FB0C94E3
S1133A807B1EE92F0E94A31E58F3BA17620773071F
S1133A908407950720F079F4A6F50C94C51E0EF45E
S1133AA0E0950B2EBA2FA02D0B01B90190010C014A
S1133AB0CA01A0011124FF27591B99F0593F50F462
S1133AC0503E68F11A16F040A22F232F342F4427BA
S1133AD0585FF3CF469537952795A795F0405395B2
S1133AE0C9F77EF41F16BA0B620B730B840BBAF082
S1133AF09150A1F0FF0FBB1F661F771F881FC2F7ED
S1133B000EC0BA0F621F731F841F48F48795779500
S1133B106795B795F7959E3F08F0B0CF9395880FBA
S1133B2008F09927EE0F9795879508950E94AA1D8E
S1133B300C94921E0E948B1E58F00E94841E40F02A
S1133B4029F45F3F29F00C947B1E51110C94C61E7E
S1133B500C94811E0E94A31E68F39923B1F355238C
S1133B6091F3951B550BBB27AA276217730784078C
S1133B7038F09F5F5F4F220F331F441FAA1FA9F322
S1133B8035D00E2E3AF0E0E832D091505040E69510
S1133B90001CCAF72BD0FE2F29D0660F771F881F71
S1133BA0BB1F261737074807AB07B0E809F0BB0B64
S1133BB0802DBF01FF2793585F4F3AF09E3F510578
S1133BC078F00C947B1E0C94C61E5F3FE4F3983E81
S1133BD0D4F3869577956795B795F7959F5FC9F761
S1133BE0880F911D9695879597F90895E1E0660FE2
S1133BF0771F881FBB1F621773078407BA0720F05B
S1133C00621B730B840BBA0BEE1F88F7E0950895C3
S1133C100E940F1E6894B1110C94C61E08950E9450
S1133C20AB1E88F09F5798F0B92F9927B751B0F081
S1133C30E1F0660F771F881F991F1AF0BA95C9F72C
S1133C4014C0B13091F00E94C51EB1E008950C94E7
S1133C50C51E672F782F8827B85F39F0B93FCCF39A
S1133C60869577956795B395D9F73EF490958095A9
S1133C70709561957F4F8F4F9F4F0895E89409C0C9
S1133C8097FB3EF490958095709561957F4F8F4F8B
S1133C909F4F9923A9F0F92F96E9BB279395F695A1
S1133CA0879577956795B795F111F8CFFAF4BB0F1F
S1133CB011F460FF1BC06F5F7F4F8F4F9F4F16C083
S1133CC0882311F096E911C0772321F09EE8872F0D
S1133CD0762F05C0662371F096E8862F70E060E0C9
S1133CE02AF09A95660F771F881FDAF7880F969542
S1133CF0879597F9089597F99F6780E870E060E0E9
S1133D0008959FEF80EC089500240A941616170670
S1133D1018060906089500240A94121613061406B8
S1133D2005060895092E0394000C11F4882352F01B
S1133D30BB0F40F4BF2B11F460FF04C06F5F7F4FD3
S1133D408F4F9F4F089557FD9058440F551F59F0BA
S1133D505F3F71F04795880F97FB991F61F09F3F74
S1133D6079F087950895121613061406551FF2CF9D
S1133D704695F1DF08C0161617061806991FF1CFED
S1133D8086957105610508940895E894BB27662714
S1133D907727CB0197F908950E94052008F48FEF47
S1133DA008950E94AB1EA8F19E57B0F1985160F09F
S1133DB039F1983070F5092E9927660F771F881FFF
S1133DC0991F0A94D1F71CC0BB27993F4CF4B11139
S1133DD0B1E0B62B672F782F8827985FB1F708C01A
S1133DE0869577956795B79508F4B1609395C1F773
S1133DF0BB0F30F411F460FF03C06F5F7F4F8F4F30
S1133E003EF490958095709561957F4F8F4F9F4FAD
S1133E10089568940C94C61E0C94C51E0E94211F1C
S1133E200C94921E0E94841E38F00E948B1E20F077
S1133E30952311F00C947B1E0C94811E11240C9478
S1133E40C61E0E94A31E70F3959FC1F3950F50E008
S1133E50551F629FF001729FBB27F00DB11D639F38
S1133E60AA27F00DB11DAA1F649F6627B00DA11DDE
S1133E70661F829F2227B00DA11D621F739FB00D84
S1133E80A11D621F839FA00D611D221F749F3327F4
S1133E90A00D611D231F849F600D211D822F762F8D
S1133EA06A2F11249F5750409AF0F1F088234AF06A
S1133EB0EE0FFF1FBB1F661F771F881F91505040D6
S1133EC0A9F79E3F510580F00C947B1E0C94C61EEE
S1133ED05F3FE4F3983ED4F3869577956795B7955D
S1133EE0F795E7959F5FC1F7FE2B880F911D969577
S1133EF0879597F90895FA01EE0FFF1F3096210573
S1133F003105A1F16115710561F48038BFE39B07A8
S1133F1049F168949038810561F08038BFEF9B07C0
S1133F2041F099234AF5FF3FE1053105210519F1D7
S1133F30E8940894E795D901AA2329F4AB2FBE2F5E
S1133F40F85FD0F310C0FF5F70F4A695E0F7F7397F
S1133F5050F019F0FF3A38F49F779F930DD00F90EB
S1133F6007FC9058089546F00C94811E60E070E0C0
S1133F7080E89FE308954FE79F775F934F933F93C4
S1133F802F930E949A202F913F914F915F910E940D
S1133F900E1F0C94D31F29F416F00C947B1E0C9462
S1133FA0C51E0C94811E0E94AB1EA8F39638A0F780
S1133FB007F80F92E8942BE33AEA48EB5FE70E9494
S1133FC0241F0F920F920F924DB75EB70F920E946B
S1133FD0E220ECE7F0E00E9429204F915F91EF91FD
S1133FE0FF91E595EE1FFF1F49F0FE57E068442757
S1133FF0EE0F441FFA95E1F74195550B0E945C20A2
S11340000F9007FE0C9450200895990F0008550F47
S1134010AA0BE0E8FEEF16161706E807F907C0F04A
S113402012161306E407F50798F0621B730B840B52
S1134030950B39F40A2661F0232B242B252B21F42C
S113404008950A2609F4A140A6958FEF811D811DCC
S11340500895DF93CF931F930F93FF92EF92DF9214
S11340607B018C01689406C0DA2EEF010E94211FA7
S1134070FE01E894A5912591359145915591A6F3BA
S1134080EF010E94411DFE019701A801DA9469F72E
S1134090DF90EF90FF900F911F91CF91DF910895E2
S11340A09B01AC0160E070E080E89FE30C94961DF6
S11340B00C947B1E0C9416210E94AB1ED8F39923FA
S11340C0C9F3940F511DA3F39150504094F059F04B
S11340D0882332F0660F771F881F91505040C1F734
S11340E09E3F51052CF7880F911D9695879597F95A
S11340F008955F3FACF0983E9CF0BB27869577957A
S11341006795B79508F4B1609395C1F7BB0F58F75D
S113411011F460FFE8CF6F5F7F4F8F4F9F4FE3CF66
S11341200C94C61E16F00C9416210C94811E6894EF
S11341300C947B1E0E94AB1EA8F39923C1F3AEF32B
S1134140DF93CF931F930F93FF92C92FDD2788230B
S11341502AF02197660F771F881FDAF720E030E0F6
S113416040E85FEB9FE3883920F0803E38F02196E9
S11341708F770E942A1DE4EAF0E004C00E942A1D01
S1134180E1EDF0E00E9429208B01BE01EC01FB2E41
S11341906F5771097595771F880B990B0E94401E04
S11341A028E132E741E35FE30E94211FAF2D98012C
S11341B0AE01FF900F911F91CF91DF910E94411D9D
S11341C00C94921EFA01DC01AA0FBB1F9B01AC01E7
S11341D0BF5728F4222733274427507820C0B751EB
S11341E090F4AB2F0024469537952795011CA39591
S11341F0D2F3002071F0220F331F441FB395DAF37A
S11342000ED00C94291D61307105A0E88A07B946C7
S113421030F49B01AC016627772788279078309685
S113422021F0208331834283538308959F3F31F0EB
S1134230915020F4879577956795B795880F911DD0
S11342409695879597F90895DB018F939F930E9424
S11342505621BF91AF91A29F800D911DA39F900DF8
S1134260B29F900D11240895A1E21A2EAA1BBB1B24
S1134270FD010DC0AA1FBB1FEE1FFF1FA217B3072E
S1134280E407F50720F0A21BB30BE40BF50B661F44
S1134290771F881F991F1A9469F760957095809508
S11342A090959B01AC01BD01CF0108950E94982116
S11342B0A59F900DB49F900DA49F800D911D112476
S11342C008952F923F924F925F926F927F928F92B6
S11342D09F92AF92BF92CF92DF92EF92FF920F9391
S11342E01F93CF93DF93CDB7DEB7CA1BDB0B0FB69B
S11342F0F894DEBF0FBECDBF09942A883988488858
S11343005F846E847D848C849B84AA84B984C884ED
S1134310DF80EE80FD800C811B81AA81B981CE0FE4
S1134320D11D0FB6F894DEBF0FBECDBFED010895C9
S1134330A29FB001B39FC001A39F700D811D1124E2
S1134340911DB29F700D811D1124911D08950F932D
S11343501F93CF93DF938230910510F482E090E0B5
S1134360E0918C02F0918D0220E030E0A0E0B0E01A
S1134370309719F1408151810281138148175907FF
S1134380C8F08417950769F4109731F012960C93CE
S1134390129713961C9327C000938C0210938D02DE
S11343A022C02115310519F04217530718F49A0158
S11343B0BD01EF01DF01F801DBCF21153105F9F073
S11343C0281B390B2430310580F48A819B816115C7
S11343D0710521F0FB019383828304C090938D02C5
S11343E080938C02FE01329644C0FE01E20FF31F5B
S11343F08193919322503109398328833AC02091C3
S11344008A0230918B02232B41F420911D013091BB
S11344101E0130938B0220938A0220911B0130915C
S11344201C012115310541F42DB73EB740911F0100
S113443050912001241B350BE0918A02F0918B02EC
S1134440E217F307A0F42E1B3F0B2817390778F067
S1134450AC014E5F5F4F2417350748F04E0F5F1FC6
S113446050938B0240938A028193919302C0E0E0BF
S1134470F0E0CF01DF91CF911F910F910895CF9379
S1134480DF93009709F481C0FC01329713821282F2
S1134490A0918C02B0918D02109781F4208131811A
S11344A0820F931F20918A0230918B0228173907BB
S11344B051F5F0938B02E0938A0267C0ED0120E08E
S11344C030E0CE17DF0740F44A815B819E0141153D
S11344D05105F1F0EA01F5CFD383C28340815181C4
S11344E0840F951FC817D90759F488819981840FBF
S11344F0951F0296918380838A819B819383828313
S11345002115310529F4F0938D02E0938C023DC00E
S1134510E901FB83EA8349915991C40FD51FEC1734
S1134520FD0761F480819181840F951F0296E90152
S113453099838883828193819B838A83E0E0F0E07E
S113454012968D919C911397009719F0FD01DC014F
S1134550F7CF8D919C9111979D012E5F3F4F820F54
S1134560931F20918A0230918B022817390769F42E
S1134570309729F410928D0210928C0202C013829B
S11345801282B0938B02A0938A02DF91CF91089597
S1134590283008F027E03327DA01990F311D87FD11
S11345A0916000966105710539F432602E5F3D9388
S11345B030E32A95E1F708959F3F30F08038710584
S11345C0610509F03C5F3C5F3D93913008F08068E1
S11345D0911DDF93CF931F930F93FF92EF92192FA7
S11345E0987F9695E92F96959695E90FFF27E05ABF
S11345F0FE4F99273327EE24FF24A701E7010590F6
S11346000894079428F4360FE71EF81E491F511D1D
S1134610660F771F881F991F0694A1F705900794CA
S113462028F4E70EF81E491F561FC11D770F881F77
S1134630991F661F0694A1F70590079428F4F80EB5
S1134640491F561FC71FD11D880F991F661F771F4B
S11346500694A1F70590079420F4490F561FC71F2D
S1134660D81F990F661F771F881F0694A9F7849196
S11346701095177041F0D695C79557954795F794BF
S1134680E7941A95C1F7E6E0F1E068941590159166
S113469035916591959105907FE27395E118F10A42
S11346A0430B560BC90BD009C0F7E10CF11E431F95
S11346B0561FC91FD01D7EF4703311F48A95E6CFBE
S11346C0E894015030F0080F0AF40027021708F4A8
S11346D0202F2395022F7A3328F079E37D932A95AE
S11346E0E9F710C07D932A9589F606949795679506
S11346F0379517951794E118F10A430B560BC90B1C
S1134700D00998F023957E9173957A3308F070E37D
S11347107C932013B8F77E9170617D9330F083957C
S113472071E37D9370E32A95E1F71124EF90FF90F4
S11347300F911F91CF91DF91992787FD909508954F
S1134740FC010590615070400110D8F78095909558
S11347508E0F9F1F0895FC0161507040019001105D
S1134760D8F7809590958E0F9F1F08950F931F93F0
S1134770CF93DF93FB01238121FD03C08FEF9FEFD4
S11347802CC022FF16C046815781248135814217EF
S1134790530744F4A081B1819D012F5F3F4F3183C2
S11347A020838C93268137812F5F3F4F3783268365
S11347B014C08B01EC01FB010084F185E02D099507
S11347C0892BE1F6D80116968D919C911797019645
S11347D017969C938E931697CE01DF91CF911F91DC
S11347E00F9108950F931F93CF93DF93E09190025D
S11347F0F0919102238121FF1BC08C01D0E0C0E025
S1134800F80181918F016091900270919102DB0116
S11348101896ED91FC911997882331F00995892B0D
S113482079F3DFEFCFEFECCF8AE00995892B19F00C
S11348308FEF9FEF02C08D2F9C2FDF91CF911F919F
S11348400F910895FA01AA27283051F1203181F1FE
S1134850E8946F936E7F6E5F7F4F8F4F9F4FAF4F84
S1134860B1E03ED0B4E03CD0670F781F891F9A1F97
S1134870A11D680F791F8A1F911DA11D6A0F711D4B
S1134880811D911DA11D20D009F468943F912AE057
S1134890269F11243019305D3193DEF6CF0108953F
S11348A0462F4770405D4193B3E00FD0C9F7F6CF70
S11348B0462F4F70405D4A3318F0495D31FD405238
S11348C0419302D0A9F7EACFB4E0A69597958795CE
S11348D077956795BA95C9F70097610571050895AD
S11348E09B01AC010A2E0694579547953795279559
S11348F0BA95C9F7620F731F841F951FA01D0895F1
S1074900F894FFCF55
S11349041F02010303000000020000000042110022
S1134914000000180C041060C080200000940220E1
S1134924005374617274696E6720746865205072F0
S11349346F6772616D2E2E2E004578706C6F7269EC
S11349446E672E2E2E0041766F6964696E672E2E73
S11349542E00486F6D696E672E2E2E00556E6B6E99
S11349646F776E207374617465210053746172747B
S10B4974696E672E2E2E00006F
S9030000FC
